:020000040800F2
:10000000786100209503000803380008D9350008FE
:10001000013800082D1F0008893D0008000000007D
:10002000000000000000000000000000D5020008F1
:10003000811F00080000000031030008DD3A0008BD
:10004000AF030008AF030008AF030008AF030008C8
:10005000AF030008AF030008AF030008AF030008B8
:10006000AF030008AF030008AF030008AF030008A8
:10007000AF030008AF030008AF030008AF03000898
:10008000AF030008AF030008AF030008AF03000888
:10009000AF030008AF030008AF030008AF03000878
:1000A000AF030008AF030008AF030008AF03000868
:1000B000AF030008AF030008AF030008AF03000858
:1000C000AF030008AF030008AF030008AF03000848
:1000D000AF030008AF030008AF030008AF03000838
:1000E000AF030008AF030008AF030008AF03000828
:1000F000AF030008AF030008AF030008AF03000818
:10010000AF030008AF030008AF030008AF03000807
:10011000AF030008AF030008A13B0008AF030008CD
:10012000AF030008AF030008AF030008AF030008E7
:10013000AF030008AF030008AF030008AF030008D7
:10014000AF030008AF030008AF030008AF030008C7
:10015000AF030008AF030008AF030008AF030008B7
:10016000AF030008AF030008AF030008AF030008A7
:10017000AF030008AF030008AF0300080000000051
:10018000AF030008AF03000800F002F800F092F897
:100190000AA090E8000C82448344AAF10107DA45E2
:1001A00001D100F087F8AFF2090EBAE80F0013F0A2
:1001B000010F18BFFB1A43F00103184768700000D5
:1001C00088700000103A24BF78C878C1FAD8520766
:1001D00024BF30C830C144BF04680C6070470000C1
:1001E0000023002400250026103A28BF78C1FBD840
:1001F000520728BF30C148BF0B6070476E2900F01E
:100200000484702900F04F82662906F07C836529FA
:1002100006F07983672906F07683612906F07583F5
:1002200003681B0A28BF41F08001692900F0C081E2
:10023000642900F0BD81752900F0BA816F2900F0B2
:100240000485782900F01B82E92900F09F84E429C5
:1002500000F09C84F52900F09984EF2900F00185D5
:10026000F82900F01A820368DB0928BF41F08001F9
:10027000632900F00E84732900F01384E32901F050
:100280002B81F32901F03081002070471FB506F063
:1002900035FB01F07FF904000020002106F018FB77
:1002A000401C60600020002106F0FCFAE0601FBDE9
:1002B00010B510BD01F040F91146FFF7E7FF03F05C
:1002C00097FF01F01DFA03B4FFF7F2FF03BC03F040
:1002D0008BFD00002C4B19680868B0E8F04F80F3E4
:1002E0000988BFF36F8F4FF0000080F311887047CB
:1002F0000000000008480068006880F308884FF09C
:10030000000080F3148862B661B6BFF34F8FBFF36D
:100310006F8F00DF00BF00BF08ED00E0DFF80C00CA
:10032000016841F470010160704700BF88ED00E092
:10033000EFF30980BFF36F8F134B1A681EF0100F95
:1003400008BF20ED108A20E9F04F106009B44FF08B
:10035000500080F31188BFF34F8FBFF36F8F05F00C
:100360003FFD4FF0000080F3118809BC1968086850
:10037000B0E8F04F1EF0100F08BFB0EC108A80F309
:100380000988BFF36F8F704720000020EFF30580CE
:10039000704700000948804709480047FEE7FEE72C
:1003A000FEE7FEE7FEE7FEE7FEE7FEE7FEE7FEE725
:1003B00004480549054A064B70470000913B000878
:1003C00089010008785500207861002078590020C4
:1003D00078590020704753EA020C00F069802DE93B
:1003E000F04B4FF00006002B1FBFB3FA83F503FA62
:1003F00005F424FA05F65E4012BF1643B2FA82F500
:1004000002FA05F4C5F120051EBF22FA05FC44EAF4
:100410000C04203556EA044C4FEA144418BF641CFF
:100420004FF000084FF00009904271EB030C39D3F4
:10043000002919BFB1FA81F701FA07F6B0FA80F77F
:1004400000FA07F6C7F120071EBF20FA07FC46EAAC
:100450000C062037B6FBF4FCA7EB0507103F07F0AE
:100460001F0BCBF120060CFA0BFB2CFA06F644BF4F
:10047000B3460026202FA4BF5E464FF0000B5BEA78
:10048000060C08BF4FF0010B19EB0B09ABFB027C0C
:1004900048EB0608C01B06FB02CC0BFB03CC71EB40
:1004A0000C01C1E70B46024641464846BDE8F08BC9
:1004B00013B54FF000004FF00001AFF30080BDE82E
:1004C0001C4070477CB51D4616460C00009001D0BC
:1004D0002044401E074B7B442A4669460190304623
:1004E00000F0ADFA05461CB10020694600F0BAFAEA
:1004F00028467CBD950500000FB4044910B503AA39
:10050000029800F0D3FA10BC5DF814FB0C00002038
:1005100070B5044685690068C10601D5302600E043
:100520002026C00707D070BDD4E90121304690478E
:10053000206A401C20626D1EF6D570BD70B5044661
:1005400085690078C00707D170BDD4E9012120205A
:100550009047206A401C20626D1EF6D570BD70B5B4
:100560000C460546012A05D02878800600D5EA69A0
:10057000002302E0012305E05B1C934202D2E05C11
:100580000028F9D1A869E618C01AA861286A184499
:1005900028622846FFF7BCFF04E0D5E9012114F8E2
:1005A000010B9047B442F8D32846FFF7C7FF70BD50
:1005B0002DE9F0410646002410687529314616A53C
:1005C00010D000F0B7F9002802DA404213A507E086
:1005D00031688A0701D512A502E0490704D511A5A3
:1005E000012401E000F0AFF900210A2206F12407FE
:1005F00009E0B0FBF2FCB0FBF2F302FB1C00303070
:1006000078541846491C0028F3D123462A46304620
:10061000BDE8F04100F0A0B9000000002D0000008E
:100620002B00000020000000F0B40D4601880905F1
:1006300002D5214C7C4402E01F4C7C440E34002146
:1006400000F1240608E002F00F071209E75D42EA14
:1006500003721B097754491C52EA0307F3D102784D
:100660000023120704D5702D06D009B102231134DE
:100670002246F0BC00F070B901231034F8E770B5E1
:1006800004460D462146106800F05DF902462946F1
:100690002046BDE870400023C6E7D21D22F00703C4
:1006A000D3E90023C0E70368126843F02003036026
:1006B0000823C3610023B7E7986600002DE9F05FC7
:1006C000894604464FF0000ADFF874B1FB44C0F8D5
:1006D00020A02046E1688847002874D0252806D04D
:1006E000D4E901219047206A401C2062F1E70026EE
:1006F0005F462046E16888472028054607DB312D04
:1007000005D2781910F8200C08B10643F1E7B007BC
:1007100001D526F00406C4F81CA00027C4F818A0D0
:100720002A2D09D0284603F058FB38B304EB87087C
:10073000303DC8F8185019E059F8041B204604EB66
:1007400087029161E1688847012F054618D1E06969
:10075000002820DA26F020061DE0D8F8180000EB6B
:10076000800005EB40003038C8F818002046E168EA
:100770008847054603F031FB0028EED1012F0AD04F
:100780002E2D08D12046E16888477F1C0546022FA0
:1007900046F02006C4DBA069002803DA404246F098
:1007A0000106A061F00701D026F010066C2D0BD0D9
:1007B000682D09D04C2D39D06A2D35D0742D35D007
:1007C0007A2D33D016E038E0E1682F46204688477E
:1007D000B842054609D16C2F26D04FF48060E168FD
:1007E000064320468847054604E06C2F1AD04FF494
:1007F000807006430DB3A5F14100192802D82035B9
:1008000046F400664A462946204626604E46FFF7D3
:10081000F5FC80B101280BD0F61D26F0070000F191
:10082000080956E74020E4E78020D8E70020D6E713
:1008300006F104094DE7284652E7206ABDE8F09F1B
:1008400028660000032A40F2308010F0030C00F00C
:10085000158011F8013BBCF1020F624498BF11F8FA
:1008600001CB00F8013B38BF11F8013BA2F10402B3
:1008700098BF00F801CB38BF00F8013B11F003032B
:1008800000F0FA81083AC0F0088051F8043B083AB9
:1008900051F804CBA0E80810F5E7121D5CBF51F831
:1008A000043B40F8043BAFF30080D20724BF11F8AB
:1008B000013B11F801CB48BF11F8012B24BF00F810
:1008C000013B00F801CB48BF00F8012B704702F054
:1008D000FF0343EA032242EA024200F001BA4FF06A
:1008E000000200B5134694469646203922BFA0E880
:1008F0000C50A0E80C50B1F12001BFF4F7AF09078C
:1009000028BFA0E80C5048BF0CC05DF804EB89007C
:1009100028BF40F8042B08BF704748BF20F8022BBF
:1009200011F0804F18BF00F8012B704770477047D7
:100930007047704709684A0501D540B27047C9053C
:10094000FCD500B2704709684A0501D5C0B27047AE
:10095000C905FCD580B270472DE9F0470D46994690
:100960009246044600F124080168880604D5E0692F
:1009700021F01001216000E00120A84201DD471BA9
:1009800000E00027A1697A1902EB0900081AA061AA
:100990002078C00602D42046FFF7BAFD002608E002
:1009A000D4E901211AF806009047206A401C761C01
:1009B00020624E45F4DB2078C0060AD52046FFF7BA
:1009C000A7FD06E0D4E9012130209047206A401CB1
:1009D0002062381EA7F10107F4DC07E0D4E9012109
:1009E00018F805009047206A401C2062281EA5F1D7
:1009F0000105F3DC2046FFF7A1FD2078000602D5B3
:100A00000220BDE8F0870120FBE711680268006A58
:100A1000530501D508700AE0D30501D5088006E02A
:100A2000130603D5C217C1E9000200E008600120E7
:100A30007047000001694A1C02610878704700B5E0
:100A40008FB0CDE901310021059105497944CDE907
:100A5000031011466846FFF731FE0FB000BD0000DD
:100A6000E5FFFFFF0A6802F8010B0A607047D1E951
:100A700000239A4202D2531C0B601070704710B5CD
:100A8000436913B1AFF3008001E0FFF768FD012077
:100A900010BD127800F124010A7000224A70012270
:100AA000EDE711684FF0FF32E9E70000074B70B542
:100AB0000D467B44FFF7C3FF0446284600F018FDAF
:100AC00010B14FF0FF3070BD204670BD9B34000068
:100AD0002DE9FF5F15468A460446DFF8AC80F844EE
:100AE0000027D8E900103E46CDE9001010E03AF8A2
:100AF00016106A4602A800F0FFFC411C07D02178BE
:100B0000890603D5E269391891420DD80744761C4D
:100B10002078800602D5E069B84205DDAE42E6DB0A
:100B20003AF816000028E2D1A069C01BA061204657
:100B3000FFF7EEFCD8E90010CDE90010002017E027
:100B40003AF818106A4602A800F0D6FCB0F1FF3F50
:100B500081460BD000250DF1080B05E0D4E90121F9
:100B60001BF8050090476D1C4D45F7D308F10100B7
:100B7000B0428046E4DB206A384420622046FFF71A
:100B8000DDFCBDE8FF9F00002A6200002DE9F04176
:100B90008046D21D22F007020025D2E90002F52985
:100BA00015A614D0011E72F1000106DA0023D0EB65
:100BB000030063EB020211A608E0D8F800108B07CF
:100BC00001D50FA602E0490701D50EA60125114661
:100BD000002408F1240704E000F0A2F830323A556E
:100BE000641C50EA0102F7D12B46324621464046AA
:100BF000BDE8F041FFF7B0BE000000002D0000008E
:100C00002B0000002000000030B4002100F124047B
:100C100008E002F00705D208303542EA4372DB08EB
:100C20006554491C52EA0305F3D10468002310A25D
:100C3000250707D5A40600D421B1C46901230DA25C
:100C4000641EC46130BCFFF787BE10B50446214660
:100C50001068FFF778FE02462046BDE810400023EA
:100C6000D2E7D21D22F00701D1E90023CCE7000032
:100C7000000000003000000010B5203AC0F00B80EA
:100C8000B1E81850203AA0E81850B1E81850A0E890
:100C90001850BFF4F5AF5FEA027C24BFB1E81850EA
:100CA000A0E8185044BF18C918C0BDE810405FEA5A
:100CB000827C24BF51F8043B40F8043B08BF7047D6
:100CC000D20728BF31F8023B48BF11F8012B28BFDB
:100CD00020F8023B48BF00F8012B70474FF000029C
:100CE0000429C0F0128010F0030C3FF4FAADCCF1EF
:100CF000040CBCF1020F18BF00F8012BA8BF20F8AC
:100D0000022BA1EB0C01FFF7ECBD5FEAC17C24BF15
:100D100000F8012B00F8012B48BF00F8012B7047A9
:100D200030B5B0F10A024FEA900E71F100034EEABD
:100D3000817EB0EB0E0061EB91014FEA101E4EEA8E
:100D4000017E10EB0E0041EB11114FEA102E4EEA1E
:100D5000016E10EB0E0041EB11214FEA104E4EEAEE
:100D6000014E10EB0E0041EB1141401841F1000122
:100D70004FEAD00040EA41704FEAD10110EB800504
:100D80004FEA810444EA907444EB01046D1944EB8A
:100D90000404521BA3414FF0000348BF0A3200D5A0
:100DA00030BD401C41F1000130BD70472DE9FF4FBF
:100DB0000C461E464FF0FF378BB0D2E90001DDF83C
:100DC00060800A908A46C1F30A5505B93D46002164
:100DD00008464FF00000BAF1000F00F4400005DAB9
:100DE00000EB80004FF4400101EA50004FEA9059B7
:100DF000B9F1010F00DDB9460A9850EA4A000ED059
:100E000044F61050A5F2FF3545432F14B8F1000FFA
:100E10001ED07542291E1EDDC9F100021CE0B8F18A
:100E2000010F4FF0000001D0302103E0F24305E054
:100E30002154401CB042FBDB3046002200212154EB
:100E40000B99C1F80880C1E900200FB0BDE8F08F10
:100E5000BD1B6D1CDEE74A4600DA694206A800F0B9
:100E6000DDFB06AB93E8070003AB83E807005046C1
:100E70000A9900F093FC8DE80700A0F500501F3898
:100E800000900398002D0ADD42F21F014A460844F3
:100E9000002303A90390684600F0FCFE09E0A0F5DA
:100EA00000504A461F38002303A90390684600F00B
:100EB00006FF8DE807000004000C03D04FF0FF3060
:100EC000410800E01046B8F1000F03D00022009264
:100ED00015461EE0751E05D4FFF722FF303262551D
:100EE0006D1EF9D5B3460122084302D000227F1CB3
:100EF00004E02078302801D100227F1E002A0997C3
:100F000084D01DE0112D07DAFFF70AFF3032625559
:100F10006D1C50EA0102F5D1084302D00098C8B117
:100F20000EE00021681E05E0235C625C63542254DD
:100F3000401E491C8142F7DBAB46A81B401E0990AE
:100F4000002004F80B000B98099AC0F80880C0E94B
:100F5000002B7AE711264FF0000857E72DE9F04FF4
:100F600088460446D21D22F0070191B0D1E9000164
:100F7000CDE90A0102F009FF02460B98C00F01D02B
:100F80002D2007E02068810701D52B2002E02021D9
:100F900001EAC000032A099001D0072A05DB0346B5
:100FA0004146204600F0FAFA0BE12078800601D590
:100FB000E06900E00620B8F1650F814606D0B8F17F
:100FC000660F18D0B8F1670F70D131E00020B9F189
:100FD000110F009001DB112301E009F101030AAABE
:100FE00001A90CA8FFF7E2FEDDE90C70002609F16B
:100FF0000105834647E001204B4600904FF0004733
:101000000AAA01A90CA8FFF7D1FEDDE90DB00C99E1
:101010005D46002610B909F101000D18B9EB050075
:1010200003D4C0F1FF3609F10105A5EB09002BE05F
:10103000B9F1010F01DA4FF001090020B9F1110FE8
:101040000090484601DD112300E003460AAA01A9E9
:101050000CA8FFF7ABFEDDE90C704D460026834679
:10106000207800070AD4AB4500DA5D4601A8012DBF
:1010700004DD411911F8011C302907D04F4502DA6F
:1010800017F1040F04DA012082460FE06D1EEEE72F
:10109000002F02DCED1B3E4403E0781CA84200DD7B
:1010A0007D1CB81B00F1010A4FF0004720780007B3
:1010B00003D4AA4501DB4FF0FF3A0021B7F1004FFE
:1010C0000DF143088DF8431024D002202B23002F6C
:1010D00001DA7F422D230A21021EA0F1010000DC6B
:1010E0005FB197FBF1FC97FBF1F201FB1C7C17460B
:1010F0000CF1300C08F801CDEEE7A8F10100037007
:101100002188090501D5452100E06521A0F10108EC
:1011100000F8011C09980FA9A1EB0807FF1D00B1F9
:101120000120411901EBEA70A1693844081A401EF8
:10113000A0612078C00602D42046FFF7E9F909989B
:1011400028B1D4E901219047206A401C2062207810
:10115000C00622D52046FFF7DBF91EE0002E04DB97
:10116000B34502DD01A8805D00E03020D4E9012113
:101170009047206A401C2062761CAAF101005FEAB9
:10118000000A0AD100F006FAC0680168405CD4E9A0
:1011900001219047206A401C2062281EA5F101050C
:1011A000DCDC07E0D4E9012118F8010B9047206A44
:1011B000401C2062381EA7F10107F3DC2046FFF730
:1011C000BDF9032011B041E62DE9F04F04460D466C
:1011D000D21D22F0070089B0D0E900974846394671
:1011E00002F0D3FD0246F80F01D02D2307E020685E
:1011F000810701D52B2302E0202101EAC0038DF8ED
:1012000020300BB1012000E00020032A824601D0EB
:10121000072A04DB2946204600F0C0F93FE1207888
:10122000800601D40D2500E0E569C7F30A560D2DAF
:1012300049DA00214FEA175B08464FF00000002F03
:1012400000F4400007DA00EB80004FF4400100EBAF
:10125000D07001EA60008115012901DD4FF0FF31F6
:1012600000224FEA850CBCF1180F06D31346ACF1EF
:1012700018004FF08052C24003E04FF4801323FA6D
:101280000CF30CF10C0CBCF1200F04D3ACF1200CCE
:1012900009FA0CF001E007FA0CF000294FF00048C1
:1012A00001DD18B90FE00ED140450CD319EB02094E
:1012B0005F4121B9404502D19F4329EA0209BBEBB6
:1012C000175F00D0761C2088000502D57B48784443
:1012D00002E07A487844193808AA302302F80A3024
:1012E000037C0AF10101002E0AF1020A53546A46F6
:1012F00002DC4FF0300101E04FF031014FF0010806
:101300008DF8001002D0A6F2FF3603E059EA47013B
:1013100000D06B4E002D02DC2178090704D54FF078
:1013200002082E218DF80110C44600210BE0C7F3FE
:1013300003433F01C35C491C6D1E02F808300529B8
:1013400008F1010801DA002DF1DC00210CE000EBCE
:101350001973491C1B786D1E082902F808304FEAE2
:10136000091908F1010801DA002DF0DC21688B066B
:1013700002D516E0A8F10108E04505DD02EB0803FF
:1013800013F8013C302BF5D0B8F1000F09DD02EB6A
:10139000080313F8013C2E2B03D1090701D4A8F14F
:1013A0000108002D05DD3E2102F808106D1E08F130
:1013B0000108407C002E02F8080008F1010804DA58
:1013C0002D20764202F8080002E02B2002F80800E7
:1013D0000A214FF47A70864208F101080BDB96FB74
:1013E000F0F3303302F8083096FBF0F308F101080F
:1013F00000FB136601E0642E0CDB642096FBF0F327
:10140000303302F8083096FBF0F308F1010800FBD6
:10141000136601E00A2E06DB96FBF1F0303002F88D
:10142000080008F1010896FBF1F001FB1060303074
:1014300002F80800A16908F1010808EB050202EBB7
:101440000A00081AA0612078C00602D42046FFF7DF
:101450005FF8216A08AE01EB0A00206204E0D4E9DB
:10146000012116F8010B9047BAF1010AF7D2207852
:10147000C00602D52046FFF74BF86E4609E016F885
:10148000010B3E280FD0D4E901219047206A401C6F
:101490002062B8F10108F2D22046FFF74FF809B0F8
:1014A0000320BDE8F08F206A2844206203E0D4E9DD
:1014B0000121302090476D1EEBD3F8E7555A00000C
:1014C00002FCFFFF10B5436913B1AFF3008001E0E8
:1014D000FFF7FEFA012010BD128800F1240182847A
:1014E0000022C2840122EDE711684FF0FF32E9E7E4
:1014F000007B00F08000704770B516460C4605462C
:1015000000F040F8036893F80101012806D0FF2C91
:101510000FD8185D68B101202C7070BDD3F8070199
:101520003246214603F2071303442846BDE87040C3
:1015300018474FF0FF3070BD754600F0EBF8AE462F
:1015400005006946534620F00700854618B020B5CF
:10155000FEF72EFFBDE820404FF000064FF00007D9
:101560004FF000084FF0000B21F00701AC46ACE84B
:10157000C009ACE8C009ACE8C009ACE8C0098D46B8
:101580007047000010B500F005F8001D10BD00BF49
:101590004153000000487047385500202DE9F041C4
:1015A0001F46044603260168072A01F4006004DB95
:1015B00008B116A505E016A503E008B115A500E0E1
:1015C00015A521F010002060A069C01EA0610FB118
:1015D000401EA0612046FEF79BFF4FB1D4E90121D8
:1015E00038469047206A401C2062C01C206206E0FA
:1015F000206AFAE7D4E9012115F8010B9047761E1D
:10160000F8D22046FEF79AFFBDE8F0814E414E0029
:101610006E616E00494E4600696E66002DE9F04726
:10162000814616468AB0354878440DC88DE80D00CD
:1016300032487844801C03AC0DC884E80D0041F6A4
:101640009B300844372190FBF1F290FBF1F5A5F1B6
:10165000800501FB12041B3C02D56442012000E01E
:101660000020DFF898A080460027FA44AAF1BE0ABD
:101670000EE0E0070AD03246684607EB4701012337
:101680000AEB810100F01BFB8DE8070064107F1C52
:10169000002CEED1194F7F44AE3F19E0E80715D07A
:1016A00007EB04100DF1180A90E80E008AE80E000E
:1016B000C068F04201D1981908903246012306A96A
:1016C00003A800F0FCFA03AB83E807006D10641C6C
:1016D000002DE3D14FF0010332466946B8F1000F07
:1016E00003A802D000F0D6FA01E000F0E8FAC9E958
:1016F0000001C9F808200AB0BDE8F0878C57000047
:1017000010B50446AFF300802046BDE81040FEF758
:10171000DABD000000487047185500204FF0013C2A
:1017200050F8042B51F8043B9A4221D1A2EB0C0350
:10173000934313EACC1317D150F8042B51F8043B10
:101740009A4215D1A2EB0C03934313EACC130BD1AD
:1017500050F8042B51F8043B9A4209D1A2EB0C0338
:10176000934313EACC13DBD04FF00000704700BF67
:10177000D01A01BAB1FA81F101F0180122FA01F090
:10178000CB40C1F12001DBB2C0B2C01A2CFA01F388
:10179000D11A914311EAC311E6D170475FEA400CB8
:1017A00008BF91F0000F4FEA8C234FEAC12243EAB1
:1017B00051514FEA1C5018BF00F5F0404FEA30007D
:1017C00018BF41F000415FEA6C5C00F02980BCF179
:1017D000FF3F08BF40F080407047130C06BF120463
:1017E0004FF0100C4FF0000C130E04BF12020CF15E
:1017F000080C130F04BF12010CF1040C930F04BF6B
:1018000092000CF1020CD30F04BF52000CF1010C3A
:1018100011464FF00002A0F11F00A0EB0C00704732
:1018200011F0004F08BF704731F000413FF4D5AFD1
:101830000B0C06BF09044FF0100C4FF0000C0B0E00
:1018400004BF09020CF1080C0B0F04BF09010CF1D5
:10185000040C8B0F04BF89000CF1020CCB0F04BFEA
:1018600049000CF1010CCCF12003A0EB0C0022FA92
:1018700003F302FA0CF241EA030100F101007047A0
:1018800020F07F4C80EA030023F07F47ACEB070396
:1018900003F57C5300F0004003F1FF032DE980497C
:1018A0004FEA154B09B44FEA144325EA0B4E24EADC
:1018B00003480FF2042606EB132749083E785FEA37
:1018C000320203FB0667C7F5000707FB06F64FEA7F
:1018D00054374FEAD64606F1020607FB066CCCF1F8
:1018E000005C4FEA1C472CEA074C07FB06F40CFB94
:1018F00006F504EB15464FEA961634BF00204FF06C
:1019000000404FEAD13706FB07FC4FEA1C4C0CFBAA
:101910000BF7D21B03FB0CF761EB07010CFB0EF777
:10192000B0EB074072EB17420CFB08F734BFA2EB99
:101930000742B2EB074261EB17414FEA0C444FEA12
:10194000910706FB07FC4FEA1C4C0CFB0BF7B0EBB6
:10195000C74072EB573203FB0CF734BFA2EBC74210
:10196000B2EBC74261EB57310CFB0EF7B0EBC7008F
:1019700072EB57720CFB08F734BFA2EBC702B2EB55
:10198000C70261EB5771039F4FEA816141EA9211EF
:1019900004EBCC044FEAD1374FEA826206FB07FC26
:1019A00042EA90124FEA80604FEA1C4C0CFB0BF7A6
:1019B000D21B03FB0CF761EB07010CFB0EF7B0EB3E
:1019C000074072EB17420CFB08F734BFA2EB07424B
:1019D000B2EB074261EB17414FEA8C554FEA910792
:1019E00004EB9C2406FB07FC4FEA1C4C0CFB0BF79A
:1019F000B0EBC74072EB573203FB0CF734BFA2EBDE
:101A0000C742B2EBC74261EB57310CFB0EF7B0EBAC
:101A1000C70072EB57720CFB08F734BFA2EBC7028A
:101A2000B2EBC70261EB577115EB4C254FEA8161B0
:101A300041EA92114FEA82624FEAD13742EA9012AC
:101A400006FB07FC44F100044FEA80604FEA1C4C9F
:101A50000CFB0BF7D21B03FB0CF761EB07010CFB34
:101A60000EF7B0EB074072EB17420CFB08F734BFE0
:101A7000A2EB0742B2EB074261EB174115EB1C15D5
:101A80004FEA813141EA92414FEA823242EA904282
:101A90004FEA80304FEA0C7644F1000448EA0343F1
:101AA0004EEA0B484FF0000EB2EB080C71EB030747
:101AB00024BF624639464EEB0E0E4FF0000B001865
:101AC000524149414BEB0B0BB2EB080C71EB030796
:101AD0007BF1000B24BF624639464EEB0E0E4FF0F1
:101AE000000B0018524149414BEB0B0BB2EB080CB9
:101AF00071EB03077BF1000B24BF624639464EEBC6
:101B00000E0E51EA020718BF46F0010616EB0E76DC
:101B100055F1000254F1000103D5BDE88901BDE88B
:101B20000088BDE88901BDE80048B619524141EB83
:101B30000101A3F10103704780807F7E7D7C7B7A69
:101B40007978777676757473727171706F6E6E6D69
:101B50006C6C6B6A6A69686867666665646463630F
:101B600062616160605F5F5E5E5D5D5C5C5B5B5A95
:101B70005A59595858575756565555555454535302
:101B800052525251515050504F4F4F4E4E4D4D4D5D
:101B90004C4C4C4B4B4B4A4A4A49494948484847A8
:101BA00047474746464645454544444444434343E6
:101BB0004342424242414141002B9C4630D477008F
:101BC0002BD01CB54FEA370703B44FF010004FF08D
:101BD0001001BAF1000F06D0BCF1000FDCBF40F0DD
:101BE000080040F008014FF000000FBCBDE81040B5
:101BF0000BF1010BBBF1010F08BF5FEA170722BF12
:101C000012F1010211F101014FF0004143F1000313
:101C100000F0004043EA00007047F9D35708D0E7CE
:101C200046EA064613F1400F4FEA16461FDD13F150
:101C3000200FDFBF16430A46002120335B42BED08F
:101C4000C3F1200746EA064602FA07F74FEA1646AE
:101C500046EA0706C3F1200722FA03F201FA07F762
:101C600021FA03F14FF0000342EA0702A7E746EA30
:101C7000020646EA06464FEA164646EA0106BCBF99
:101C800046EA0646360C4FF000034FF000024FF0D4
:101C9000000194E72DE9804C9A46934670B491E890
:101CA000380007C831EA400C48BF34EA430C03D57A
:101CB000FFF7E6FDFFF780FFF0BCBDE8008C2DE9E3
:101CC000804C9A46934670B491E8380007C810F0EB
:101CD000804F08BF13F0804F03D100F005F8FFF7E5
:101CE0006BFFF0BCBDE8008C20F07F4780EA03006A
:101CF00023F07F4C07EB0C03A3F57C5300F000406E
:101D0000A3F1FE0392F0000F00F0B38095F0000FF6
:101D100000F077802DE901494FEA11404FEA14465F
:101D200021EA004800FB06FC24EA064708FB06F609
:101D300007FB08F800FB07F718EB06484CEB164CBE
:101D40004FEA124B18EB07484FEA15464CEB174089
:101D500022EA0B4E0BFB06FC25EA06470EFB06F6B5
:101D600007FB0EFE0BFB07F71EEB064E4CEB164C6B
:101D70004FF000061EEB074E4CEB174B18EB0B0811
:101D800040F1000018EB0E0B58EB000840F100008A
:101D90008F1A4FF000013CBFC943661B14BFB5EB5F
:101DA000040C00213CBFC943F61B4FEA17444EEA1E
:101DB0008E0E27EA04454FEA1C4704FB07622CEA13
:101DC000074C05FB07F70CFB05F604FB0CFC16EBB8
:101DD000074642EB174216EB0C4642EB1C421BEB4C
:101DE000060658EB0202414146EA9E0601D5BDE8CF
:101DF0000189B619524141EB0101A3F10103BDE88C
:101E000001894FEA14454FEA114724EA054621EAC1
:101E1000074C05FB07F406FB07F70CFB06F105FB77
:101E20000CFC11EB074144EB17444FEA124711EB4E
:101E30000C4144EB1C4422EA074C05FB07F206FB6D
:101E400007F70CFB06F605FB0CFC16EB074642EB0E
:101E5000174216EB0C4642EB1C456A1854F1000180
:101E600048BF7047B619524141EB0101A3F101038C
:101E7000704795F0000F37D04FEA11424FEA1447F0
:101E800021EA024624EA074C02FB07F106FB07F7AA
:101E90000CFB06F402FB0CFC14EB074441EB17416E
:101EA0004FEA154714EB0C4441EB1C4125EA074C63
:101EB00002FB07F506FB07F70CFB06F602FB0CFC22
:101EC00016EB074645EB174516EB0C4645EB1C4257
:101ED000121951F1000148BF7047B619524141EB48
:101EE0000101A3F1010370474FEA14454FEA11477E
:101EF00024EA054621EA074C05FB07F106FB07F734
:101F00000CFB06F24FF0000605FB0CFC12EB07423F
:101F100041EB174112EB0C4251EB1C4148BF70479B
:101F2000921841EB0101A3F101037047FEE7642021
:101F3000AFF30080064A10B553680649064C09689D
:101F4000B1FBF4F141435068C01A8842FBD310BD85
:101F5000001000E01C00002040420F00064801680D
:101F600041F0807101600548016841F001010160A4
:101F70000021416070470000FCED00E0001000E02F
:101F8000704772B6FEE700002DE9F84FDFF8BCA1FC
:101F90000022012503264FF00F090AF1040BAAF1D4
:101FA000040E00BF0B6805FA02F42340A34270D16F
:101FB0000F7907F00307012F01D0022F16D1876890
:101FC0004FEA420806FA08FC27EA0C07D1F80CC0D1
:101FD0000CFA08FC4CEA070CC0F808C04768A74395
:101FE0000C79C4F3001494403C4344600C79E443FE
:101FF000A4070AD0C4684FEA420C06FA0CF7BC43A7
:102000008F6807FA0CF72743C7600C7904F00304C4
:10201000022C12D1D40800EB840CDCF820405707C6
:10202000FF0E09FA07F824EA0804D1F8108008FA2C
:1020300007F848EA0408CCF8208004684FEA420C0C
:1020400006FA0CF7BC430F7907F0030707FA0CF701
:10205000274307604C6814F4403F70D03C4C27681D
:1020600047F480472760246822F0030704F4804483
:102070000094384C07EB040CDCF8084897074FEA4B
:10208000177809FA08F7BC43334FB84202D100274A
:1020900024E054E0314FB84201D101271EE0304F17
:1020A000B84201D1022719E02E4FB84201D10327CF
:1020B00014E02D4FB84201D104270FE02B4FB84256
:1020C00001D105270AE02A4FB84201D1062705E0D1
:1020D000284FB84201D1072700E0082707FA08F780
:1020E0002743CCF80878DAF800405746D1F804C006
:1020F0009C435FEACC2C00D51C433C60DBF80040DD
:102100005F46D1F804C09C435FEA8C2C00D51C4389
:102110003C60DEF800407746D1F804C09C435FEA9B
:102120008C3C00D51C433C60084F083F3C68D1F80C
:1021300004C09C435FEACC3C00D51C433C60521C6D
:10214000102AFFF42FAFBDE8F88F0000083C0140D3
:1021500044380240003001400000024000040240C8
:1021600000080240000C024000100240001402402F
:1021700000180240001C02400AB181617047090446
:10218000FBE7000001488068704700001000002055
:102190000248816802781144816070471000002075
:1021A0000B4810B5016841F400710160016841F409
:1021B00080610160016841F480710160032000F0DA
:1021C0009FF80F2000F006F800F050F8002010BD36
:1021D000003C024030B505461F4887B00024016826
:1021E00041F010010160006806A900F010000090A5
:1021F00001A800F0DBF90498A8B100F0F7F940005D
:102200001649174AB0FBF1F11648491E026040F228
:10221000E732C0E90324C0E90114846101F05DF8EC
:10222000040003D015E000F0E1F9E9E70D4801F002
:1022300083F804000DD1362000F034F8102D07D2B9
:1022400000222946362000F03BF80748056000E0F0
:10225000012407B0204630BD4038024040420F0004
:1022600000100040F4090020140000200C4882B047
:10227000016841F480410160006800F480400090F2
:102280000748001F016841F080510160006800228A
:1022900000F0805000900F21901E02B000F010B8A6
:1022A00044380240002809DB00F01F020121914060
:1022B0004009800000F1E020C0F8001170470000E4
:1022C000F0B40E4B1B680C46C3F30223C3F10705A1
:1022D000042D00D90425191D072901D2002300E08F
:1022E000DB1E012606FA05F1491E214099409E4059
:1022F000761E16403143F0BC01F05FBD0CED00E0EE
:10230000064900F0070208684FF6FF03184040EA4C
:102310000220034A10430860704700000CED00E003
:102320000000FA05034908B5012008620248006868
:10233000009008BD00000E42007000402DE9F843F7
:10234000054600684FF00109C1074FF0000601D1B2
:10235000400727D5DFF80C81C8F86860FFF712FF47
:102360000746414C05E000BFFFF70CFFC01B0228E9
:1023700057D820680001F7D468688101287A41EABB
:102380000070394984310860C8F86890FFF7FAFE98
:10239000074604E0FFF7F6FEC01B022841D820687C
:1023A0000001F7D52878800752D52F4840300168C2
:1023B00041F08051016000682C4C00F0805000908A
:1023C000206840F480702060FFF7DCFE074604E0E0
:1023D000FFF7D8FEC01B022823D82068C005F7D518
:1023E000214C7034206810F4407020D0A98901F489
:1023F000407181421BD020681D4920F44070C1F813
:1024000000900E6020602068C00710D0FFF7BAFE71
:10241000064641F2883707E0FFF7B4FE801BB8425A
:1024200002D90320BDE8F88320688007F4D5E96865
:102430000D48C1F301220830032A0BD0016821F4B2
:10244000F81101602068A989C1F30B0108432060DD
:102450000020E7E70268074B22F4F81219400A430C
:102460000260EFE700004742003802400070004081
:10247000400E4742FFFCFF0F2DE9F0470E460500D6
:1024800065D0DFF81481D8F80000F7B200F007003B
:10249000B04207D288F80070D8F8000000F00700BA
:1024A000B04254D128683D4C810712D5400703D56E
:1024B000206840F4E05020602878000703D52068A9
:1024C00040F4604020602068A96820F0F0000843D4
:1024D00020602878C0072DD0304968680839012865
:1024E00012D0022813D0032811D0096889070029C7
:1024F0002DDA216821F0030101432160FFF742FE3C
:10250000814641F2883A0EE009688903EFE70968DD
:102510008901ECE7FFF736FEA0EB0901514502D92E
:102520000320BDE8F0872068696800F00C00B0EB7C
:10253000810FEFD1D8F80010404601F00701B142F9
:1025400007D90770006800F00700B04201D00120F1
:10255000E7E72878400705D52068E96820F4E050CF
:10256000084320602878000706D52068296920F4F0
:10257000604040EAC100206000F058F82168084A35
:10258000C1F30311515CC840064908600648006861
:10259000FFF720FE0020C4E7003C0240083802405C
:1025A000586900081C000020140000200F2202605F
:1025B0000C4A136803F003034360136803F0F0034D
:1025C0008360136803F4E053C36012684FF4E05370
:1025D00003EAD20202610448006800F007000860C4
:1025E0007047000008380240003C0240044805499A
:1025F00000680968044AC1F38221515CC8407047F1
:102600001C00002008380240686900080448054999
:1026100000680968044AC1F34231515CC840704700
:102620001C0000200838024068690008154810B5F1
:10263000006810F00C02144813D04110042A0FD087
:10264000082A0ED10F4C241F2268236802F03F0293
:102650005B0207D52068C0F38810A0FB010106E0EB
:10266000084610BD2168C1F38811A1FB00010023B9
:10267000FDF7B1FE2168C1F30141491C4900B0FBDF
:10268000F1F010BD083802400024F4002DE9F84FA5
:1026900004006ED02078DFF84C93C007A9F1040540
:1026A0004AD009F104000168C1F38101012908D071
:1026B0000068C0F3810002280AD1D9F80000400266
:1026C00006D52868800337D560680028E1D033E05C
:1026D0006068B0F5803F10D0B0F5A02F286810D00A
:1026E00020F480302860286820F48020286060680A
:1026F000A8B1FFF747FD06460DE0286840F480309A
:10270000F4E740F480202860F7E700BFFFF73AFDC8
:10271000801B642873D828688003F7D50CE0FFF786
:1027200031FD064605E000BFFFF72CFD801B642845
:10273000F0D828688003F7D42078DFF8AC828007CF
:102740004FF0000A3ED5A748001D016811F00C0F9C
:1027500008D00068C0F3810002280BD1D9F800002E
:10276000400207D42868800716D5E068012800D108
:1027700012E033E1E068B8B10120C8F80000FFF7CB
:1027800001FD064605E000BFFFF7FCFC801B0228A8
:10279000C0D828688007F7D52868216920F0F8009C
:1027A00040EAC10028600DE0C8F800A0FFF7EAFC8D
:1027B000064604E0FFF7E6FC801B02281FD82868C5
:1027C0008007F7D42078000722D5864F87486169B3
:1027D000703771B101210160FFF7D4FC064604E0B7
:1027E000FFF7D0FC801B022809D838688007F7D58E
:1027F0000EE0C0F800A0FFF7C5FC064605E082E049
:10280000FFF7C0FC801B02287DD838688007F7D40A
:102810002078400768D5DFF8CCB100270BF13C0BDE
:10282000DBF80000C0000BD4DBF8001041F0805151
:10283000CBF80010DBF80000012700F0805000907A
:102840006B4E3068C00510D4306840F48070306042
:10285000FFF798FC009005E0FFF794FC0099401A00
:10286000022850D83068C005F6D55E4EA0686C3698
:1028700001280FD00528306810D020F0010030600A
:10288000306820F004003060A068B8B1FFF77AFC2F
:1028900000900FE0306840F00100F4E740F00400E1
:1028A0003060F7E7FFF76EFC0099411A41F288307B
:1028B000814266D830688007F4D50EE0FFF762FCED
:1028C000009007E0FFF75EFC0099411A41F2883062
:1028D000814256D830688007F4D42FB1DBF800105D
:1028E00021F08051CBF80010A069C8B33D49091D03
:1028F0000968C1F3810102294AD00228504607D055
:10290000C8F8600000E03CE0FFF73CFC04463BE018
:102910004746C8F86000FFF735FC064605E000BFF3
:10292000FFF730FC801B02282BD828688001F7D4E1
:10293000D4E907010843A16A2E4A490802EB014184
:10294000626A41EA8211084394F82C1040EA01615E
:10295000C9F8001001203866FFF714FC044606E0B1
:102960003EE000BFFFF70EFC001B022809D82868D4
:102970008001F7D534E000BFFFF704FC001B0228FC
:1029800002D90320BDE8F88F28688001F4D427E03D
:102990000128F7D0D9F80000E26900F480019142E3
:1029A0001CD1226A00F03F01914217D147F6C07155
:1029B000626A0140B1EB821F10D1A26A4FF0FF336F
:1029C00000F4403103EB5202B1EB024F06D194F810
:1029D0002C1000F07060B0EB016F01D00120D1E746
:1029E0000020CFE70438024000004742800E4742F3
:1029F000007000400000FFFF0068503050F82100D8
:102A000070470068503040F82120704710B50068CA
:102A10000B4641680D480140080CD870C1F30424EE
:102A20005C7001F03F049C70C1F34231197052B9DF
:102A300000F0E8FED870587800F0E4FE58709878FE
:102A400000F0E0FE9870002010BD00003FFFFF0086
:102A500010B50B460168896A596001680969C1F3BC
:102A60000E019960006801680D480140C1F30540FE
:102A70001870C1F306245C7001F07F049C70890D0E
:102A8000D97052B900F0BEFE1870587800F0BAFE46
:102A90005870987800F0B6FE9870002010BD0000C5
:102AA0007F7F7F0010B5040002D0607F10B106E088
:102AB000012010BD00202077204600F041F80220C0
:102AC00060772068C168C943C90632D5CA2141620E
:102AD000216853204862204600F0A8FE20BB2068F1
:102AE0008168164A114081602168886862681043D5
:102AF000D4E904231A43104388602168E068086120
:102B000020680169228941EA02410161204600F002
:102B1000B1FE48B921680A6C22F480220A64216857
:102B20000A6CA3691A430A642268FF21516208B142
:102B300010BD00200121617710BD0000BFFF8FFF95
:102B40001FB500210091019102910391006808498D
:102B500088420CD102200090C00103906846FFF724
:102B6000EDFB08B1FFF70DFA0249012008601FBD17
:102B7000002800403C0E474270B50446007F0B46DB
:102B8000012819D00126267702206077B2B1987803
:102B9000D97840EA014558781978000240EA413076
:102BA00005432168CA2048622168532048622046B4
:102BB00000F03CFED0B122E0022070BD5878C10682
:102BC00003D500F0EF000A305870D87800F023FEEB
:102BD0000204587800F01FFE42EA0022987800F0C4
:102BE0001AFE0243187842EA4035DAE70748054002
:102BF00020684560204600F03DFE00B966772268F7
:102C0000FF2151620021217770BD00003FFFFF00CE
:102C10002DE9F0410446007F0D46012823D04FF0F6
:102C2000010884F81C8002206077206800278068F3
:102C30004FEA4060D2B1002800DBEF70A878297815
:102C400040EA01466878E978000240EA815006438C
:102C50002168CA204862216853204862204600F05B
:102C6000E5FDB8B12CE00220BDE8F081002800DBD2
:102C7000EF70287800F0CFFD0204687800F0CBFDFB
:102C800042EA0022A87800F0C6FD0243E87842EA52
:102C90008056DDE70D4806402068066020688168A0
:102CA00021F480218160D5E90301084321688A6805
:102CB00010438860204600F0DDFD08B984F81D80CF
:102CC0002268FF2151622777CEE700007F7F7F00D7
:102CD00070B504460B482168C860FFF753FA0546F3
:102CE0004FF47A7607E000BFFFF74CFA401BB04282
:102CF00001D9032070BD2068C0688006F4D500208B
:102D000070BD00005F7F010070B5040009D0606AEB
:102D1000002540B125616561A56294F8510040B17C
:102D20000CE0012070BD6068B0F5827FF4D0E561F1
:102D3000F2E784F85050204600F044F8022084F86E
:102D400051002068016821F040010160A0882189BC
:102D500000F4827001F404410843A18901F4006188
:102D60000843217C01F002010843217D01F00101AB
:102D70000843218B01F400710843217F01F03801E1
:102D8000084394F8201001F080010843218D01F4DC
:102D90000051084321680860A069042101EA10403D
:102DA00094F8241001F0100108432168486020685D
:102DB000C16921F40061C1616565012084F8510099
:102DC000002070BD10B586B0044614216846FDF79A
:102DD00086FD13492068884220D1124800210268EC
:102DE00042F480520260006800F4805005900D4863
:102DF0001438026842F002020260006800F002002B
:102E00000590382000900220CDE9010103200390B5
:102E10000520049069460448FFF7B6F806B010BDD7
:102E20000030014044380240000402402DE9F84FD0
:102E3000044690F851001D4616460F46012838D129
:102E4000002F77D0002E75D060684FF00408B0F5E1
:102E5000827F01D1A06810B3FFF794F9824694F8FD
:102E60005000012825D04FF0010984F8509084F8D3
:102E700051804FF00008C4F85480A763A687E68706
:102E8000C4F83080A4F83480A4F83680C4F84080B8
:102E9000C4F84480A068B0F5004F0CD015E084F869
:102EA0005180009313460A46204600F01CF9BDE805
:102EB000F88F0220FBE72068016821F040010160E3
:102EC0002068016821F4804101602068016849069A
:102ED00003D4016841F040010160E068C0B134E012
:102EE00020688168C90709D0007BA16B0870A06BBE
:102EF000401CA063E08F401EE08709E0FFF742F925
:102F0000A0EB0A00A84202D3681C01D032E085B3CE
:102F1000E08F0028E4D11BE020688168C9070AD04F
:102F2000C068A16B0880A06B801CA063E08F401E6E
:102F3000E0870AE01BE0FFF725F9A0EB0A00A842B2
:102F400002D3681C01D015E09DB1E08F0028E3D1C9
:102F500052462946204600F0FFFC08B1202060655B
:102F600084F8519084F85080606D00289FD0012033
:102F70009DE7FFE784F8519084F85080032096E79E
:102F80002DE9F84F984616468A460446FFF7FAF8A8
:102F9000814694F8510001281ED1BAF1000F73D078
:102FA000002E71D094F85000012815D0012784F824
:102FB0005070032084F8510000256565C4F830A0E6
:102FC000A686E686A563A587E58765642564A0686F
:102FD000B0F5004F03D00CE00220BDE8F88F206868
:102FE000016821F0400101602068016841F48041DE
:102FF000016020680168490603D4016841F040017E
:103000000160E068B0F5006F606803D048B3012E3E
:1030100027D047E008B1012E1FD1206B216800881E
:10302000C86006E020688168890709D5216B098896
:10303000C160206B801C2063E08E401EE0860CE0A7
:10304000FFF7A0F8A0EB0901414503D3B8F1FF3F1A
:1030500003D035E0B8F1000F32D0E08E0028E1D186
:1030600023E0206B21680078087306E020688168FF
:1030700089070AD5216B09780173206B401C2063F6
:10308000E08E401EE0860DE02BE0FFF77BF8A0EB22
:103090000901414503D3B8F1FF3F03D010E0B8F177
:1030A000000F0DD0E08E0028E0D14A464146204670
:1030B00000F080FC08B120206065A06830B109E014
:1030C00084F8517084F85050032086E72068C16866
:1030D0008068009084F8517004F8505F60680028A0
:1030E000F3D0012079E72DE9FF4F81B01D469346CB
:1030F00004464FF001090E9EFFF744F8074694F886
:1031000051006168012806D0B1F5827F3CD1A168E9
:10311000C9BB042838D10298002871D0BBF1000F38
:10312000FBD0002DF9D094F8500001282CD04FF09E
:10313000010A84F850A094F85100042802D0052018
:1031400084F851004FF00008C4F85480C4F838B037
:10315000E587A58702992163E586A586C4F84080A6
:10316000C4F8448020680168490603D4016841F02E
:1031700040010160E068B0F5006F606808D0F0B30E
:10318000012D49D081E0FFE7022005B0BDE8F08FB6
:1031900008B1012D39D1206B21680088C860206BEF
:1031A000801C2063E08E401EE0862EE0206881684F
:1031B00089070FD5E18E69B1B9F1010F0AD1216BF1
:1031C0000988C160206B801C2063E08E401EE08671
:1031D0004FF0000920688168C9070CD0E18F51B118
:1031E000C068A16B0880A06B801CA063E08F401EAC
:1031F000E0874FF00109FEF7C5FFC01B01E00BE0BF
:1032000067E0B04201D3701C50D1E08E0028CDD1D0
:10321000E08F0028CAD13EE0206B21680078087357
:10322000206B401C2063E08E401EE0862DE020686D
:10323000816889070FD5E18E69B1B9F1010F0AD113
:10324000216B09780173206B401C2063E08E401EC7
:10325000E0864FF0000920688168C9070CD0E18F33
:1032600051B1C068A16B0870A06B401CA063E08FD7
:10327000401EE0874FF00109FEF784FFC01BB042FB
:1032800002D3701C01D011E086B1E08E0028CED1AF
:10329000E08F0028CBD13A463146204600F08AFB29
:1032A00050B12020606584F8508012E084F851A06D
:1032B00084F85080032068E7A06818B92068C168C6
:1032C0008068009084F851A084F85080606D0028D8
:1032D000F1D0012059E77047704710B5040003D0C2
:1032E00094F83D0010B107E0012010BD002084F8E3
:1032F0003C00204600F01EF8022084F83D00211D0D
:10330000206800F053FC012084F8460084F83E0059
:1033100084F83F0084F8400084F8410084F84200BB
:1033200084F8430084F8440084F8450084F83D00A4
:10333000002010BD7047000090F83D10012901D019
:1033400001207047022180F83D100168CA6842F0F0
:103350000102CA6000681149884214D0B0F1804F60
:1033600011D00F4988420ED00E4988420BD00E4929
:10337000884208D00D49884205D00D49884202D0C4
:103380000C49884204D1816801F00701062903D065
:10339000016841F001010160002070470000014018
:1033A0000004004000080040000C00400004014000
:1033B000004001400018004070472DE9F0410446EC
:1033C0000068C66805694FF00007A90713D5B10763
:1033D00011D5F91E016101202077206880698007DE
:1033E000204602D0FFF7E8FF04E000F07EF8204618
:1033F00000F07CF82777680716D5700714D5216888
:103400006FF004000861022020772068806910F4C2
:10341000407F204602D0FFF7CFFF04E000F065F8C0
:10342000204600F063F82777280715D5300713D515
:1034300021686FF008000861042020772068C069C7
:103440008007204602D0FFF7B7FF04E000F04DF8F8
:10345000204600F04BF82777E80616D5F00614D57D
:1034600021686FF010000861082020772068C0698B
:1034700010F4407F204602D0FFF79EFF04E000F0EA
:1034800034F8204600F032F82777E80708D0F00734
:1034900006D021686FF001000861204600F028F88E
:1034A000280608D5300606D521686FF0800008612F
:1034B0002046FFF710FF680608D5700606D521687C
:1034C0006FF040000861204600F01CF8A8060AD5FD
:1034D000B00608D521686FF0200008612046BDE8DD
:1034E000F041FFF7F9BEBDE8F0817047704700007A
:1034F00000680349884201D1FEF74ABE70470000C8
:1035000000100040704770B5040004D094F84100EA
:10351000002510B106E0012070BD84F8405020461F
:1035200000F024F8242084F841002068C16821F4C8
:103530000051C160204600F0A1FB2068016921F420
:10354000904101612068416921F02A0141612068B0
:10355000C16841F40051C1606564202084F84100D5
:1035600084F842006563002070BD000010B586B08D
:10357000044614216846FDF7B2F9144920688842D0
:1035800021D113480021026842F010020260006855
:1035900000F0100005900E481438026842F0010255
:1035A0000260006800F0010005904FF4C0600090D8
:1035B0000220CDE901010320039007200490694611
:1035C0000448FEF7E1FC06B010BD00000010014009
:1035D0004438024000000240FEE7000010B5074AF0
:1035E0000021074800F09AFE064C044A00212060A2
:1035F0002432054800F092FE606010BD106900089A
:10360000A138000804000020193900082DE9F04114
:1036100086B014216846FDF762F927480025016845
:1036200041F004010160016801F0040105910168A5
:1036300041F020010160016801F02001059101685D
:1036400041F080010160016801F08001059101688D
:1036500041F002010160016801F002010591016879
:1036600041F0010101600068144F00F001004FF4C7
:10367000C0640590012221463846FEF77DFD0122F7
:10368000DFF83C80960331464046FEF775FD009416
:103690000124CDE90145694638460394FEF774FCE0
:1036A0000320CDE90250CDE9006469464046FEF7AB
:1036B0006BFC06B0BDE8F0813038024000140240D7
:1036C0000004024030B587B014216846FDF707F9C1
:1036D00000240594FEF726FE2648016841F080513B
:1036E00001600068244900F0805006902348C0E93A
:1036F00000147F218160FF21C0E9031444618461CB
:10370000FFF7D0F908B1FEF73CFC00211B48FFF79A
:1037100073F945F25005A8422AD017208DF8000011
:103720002D208DF801008DF8024003940022694697
:1037300012480494FFF76CFA08B1FEF722FC062049
:103740008DF8140005208DF815001F208DF8160047
:1037500019208DF81700002205A90848FFF70CFA78
:1037600008B1FEF70EFC2A4600210448FFF749F98C
:1037700007B030BD40380240002800403409002026
:10378000104810B50E4901604FF48271416000216C
:1037900002228160C0E90312012242615202826169
:1037A0000822C0E90721416281620A21C162FFF754
:1037B000ABFA002803D0BDE81040FEF7E2BB10BD15
:1037C00000300140540900200C4810B50A4901603E
:1037D0004FF4E1314160002181600C22C160C0E9F9
:1037E00004128161C161FFF78EFE002803D0BDE89D
:1037F0001040FEF7C6BB10BD00100140AC09002010
:10380000FEE7FEE7010901EB810100F00F0000EB8C
:103810004100C0B27047002102E00A38C0B2491C22
:103820000A28FAD2090740EA116070472DE9F041F1
:10383000044600680025C168490618D4C16841F0F3
:103840008001C160FEF79EFC06464FF47A7804279B
:1038500007E000BFFEF796FC801B404501D9677763
:1038600001252068C068400601D4002DF2D028460A
:10387000BDE8F08170B5044600680025C16821F0FC
:103880008001C16020688068800606D42046FFF76A
:103890001FFA10B1042060770125284670BD000092
:1038A0001C4C4FF400762515002231462046FEF7C9
:1038B00063FC002229462046FEF75EFC322000F021
:1038C000F2FC012231462046FEF756FC0122294631
:1038D0002046FEF751FC322000F0E5FC0022314684
:1038E0002046FEF749FC002229462046FEF744FC0C
:1038F000322000F0D8FC012231462046FEF73CFC85
:10390000012229462046FEF737FCC82000F0CBFCF8
:10391000CAE700000014024001F00EFF18B108A031
:10392000FCF7EAFD05E00B4A4FF40061002001F0CE
:1039300017FD4FF47A74204600F0B5FCFBE7000059
:10394000736675645F696E69742046616C73652186
:103950000D0A000034010020F8B5044640684FF419
:103960008273984221D1A0684FF48065B0F5004F72
:1039700001D0A8420AD12068066826F040060660F9
:103980006068984211D1A068A8420ED000920B4600
:1039900000228021204600F043F8002804D0606D0A
:1039A00040F0200060650320F8BD00920B46002225
:1039B0000121EFE7F8B515460E460B460092044686
:1039C0000122022100F02CF8A0B913481349006825
:1039D000B0FBF1F04FF47A71484300906068B0F5A5
:1039E000827F0DD13346002280212046009500F0D1
:1039F00017F870B1606D40F0200060650320F8BDDD
:103A0000009830B1401E009020688068C0430006D6
:103A1000F6D50020F8BD00001C00002000366E0125
:103A20002DE9F8431E46914688460446089DFEF758
:103A3000A9FB401B351AFEF7A5FB07462648006880
:103A4000C0F3CB3068430AE0701C09D0FEF79AFB44
:103A5000C01BA8420FD275B10098B8B3401E0090A9
:103A60002068816838EA010033D000214945EBD154
:103A70000020BDE8F8832068416821F0E001416042
:103A80006068B0F5827F0BD1A068B0F5004F02D01E
:103A9000B0F5806F04D12068016821F04001016019
:103AA000A06AB0F5005F09D12068016821F40051D7
:103AB00001602068016841F400510160012084F830
:103AC0005100002084F850000320D2E7FFE70025D2
:103AD000C6E70121CAE700001C00002010B54FF026
:103AE000E020006902F028FD012803D0BDE8104065
:103AF00002F056BA10BD000030B593B030216846D0
:103B0000FCF7EDFE14210CA8FCF7E9FE1E48002589
:103B1000016841F080510160006800F08050119010
:103B20001A48016841F4804101600068022400F4F1
:103B300080401190052000904FF4803001900120CA
:103B400002908005CDE9064008AA0420A82182E859
:103B500013000B906846FEF799FD08B172B6FEE7B8
:103B60000CA90F2081E831004FF4A0500F904FF4C2
:103B70008050109005210CA8FEF77EFC002801D093
:103B800072B6FEE713B030BD40380240007000400E
:103B90000248016841F470010160704788ED00E05F
:103BA0000148FFF70ABC0000F4090020F0B50268E4
:103BB000274B284D284E294F294C4FF0804C9842D6
:103BC00009D0604507D0A84205D0B04203D0B84222
:103BD00001D0A04204D122F0700E4A6842EA0E02DF
:103BE00098421BD0604519D0A84217D0B04215D0DA
:103BF000B84213D0A04211D01A4DA8420ED01A4D8F
:103C0000A8420BD0194DA84208D0194DA84205D0A2
:103C1000184DA84202D0184DA84203D122F4407595
:103C2000CA682A434D6922F080022A438D68C56222
:103C30000D688562984201D0A04201D109690163F3
:103C4000016841F004010160012141610260F0BDA1
:103C5000000001400004004000080040000C00404B
:103C60000004014000400140004401400048014080
:103C700000180040001C00400020004070B50446C1
:103C800000680169E26821F4405111430161216932
:103C9000A068E26908436169114308432168CA6862
:103CA00049F20C639A430243CA6020684169A269E1
:103CB00021F440711143416131492068884202D0AA
:103CC0003049884202D1FEF7A1FC01E0FEF78EFCEC
:103CD000E2690023192164253226B2F5004F62689B
:103CE00028D0A0FB0101930F9200FCF774FB014662
:103CF000B0FBF5F06FF01802504301EB800006EBCB
:103D00000010B0FBF5F000F0F002B1FBF5F002EBB3
:103D10000012B1FBF5F06FF01803584301EB80007F
:103D200006EB0010B0FBF5F000F00F002168104426
:103D3000886070BDA0FB010192185B41FCF74BFB52
:103D40000146B0FBF5F00201B1FBF5F06FF018038E
:103D5000584301EB800006EBC000B0FBF5F000F02B
:103D6000F80002EB4002B1FBF5F0584301EB800094
:103D700006EBC000B0FBF5F000F00700D6E700004E
:103D80000010014000140140FEE703B40198410017
:103D9000009850EAC12018BF04204A0D18BF40F017
:103DA000010040F2FF72B2EB515F08BF40F0020029
:103DB000012808BF052002B070470907090E002836
:103DC00004DB00F1E02080F80014704700F00F00E1
:103DD00000F1E02080F8141D704730380A2801D225
:103DE0000120704700207047704700002DE9FE4F0A
:103DF000814600F1200817460E46006939441D46E9
:103E00004FF0010A814205D93CA001F0A1FC052038
:103E1000BDE8FE8FD8F80810404601B18847F0078A
:103E20000CD028463146012300906D1C761C1A46A2
:103E3000484600F0B9FA040054D17F1E01214846DB
:103E400001F0EAF904004DD1AD208DF804000DF128
:103E5000040B34E0BAF1000F13D05C46621C31460B
:103E6000484600F00DFA99F8350008B1052200E047
:103E700004222878A054A118687848704FF0000AEE
:103E800006E028788DF80500687801228DF8060094
:103E9000002000900023D8F80440404601A9921C5D
:103EA000A047040003D01FA001F052FC1AE04846CE
:103EB00001F0C8FF040015D1AD1CB61CBF1E022FB7
:103EC000C8D20021484601F0A7F904000AD1012F09
:103ED0000CD101231A4631464846009500F064FA99
:103EE000040003D00021484601F096F9D8F80C10E0
:103EF000404601B1884720468AE700004572726F4C
:103F0000723A20466C6173682061646472657373F1
:103F1000206973206F7574206F6620626F756E6400
:103F20002E0000004572726F723A20466C61736811
:103F30002077726974652053504920636F6D6D75E9
:103F40006E6963617465206572726F722E00000085
:103F500003490A685206FCD5C2B24A6070470000A5
:103F600000100140FEB5044601F09CFC00281BD166
:103F70002069002530B1A08A20B1A06910B1207F4E
:103F800000286FD19F218DF8081003210091666AE7
:103F900004F1200001AB012202A9B047060004D0C1
:103FA00057A001F0D5FB3046FEBD9DF804102173EB
:103FB0009DF8051061739DF806102046A17301F06D
:103FC0002FFC00B3A560206D2061B4F848000128E3
:103FD00017D00120A082606DA06194F8580020776E
:103FE0005FF0010004EBC002516D31B1A3698B4257
:103FF00003D9A16192F858102177401C0428F1D30D
:1040000028E00220E6E7494A237B002000EB400637
:1040100002EBC6010F799F4219D14F7994F80DC078
:10402000674514D18F7994F80EC067450FD100EB26
:10403000400052F83000A06002EBC60080682061AA
:104040008889A0820869A061087D207702E0401C71
:104050001E28DBD32069C8B1A08AB8B1A069A8B175
:10406000207F98B1314A0020217B903A02EBC003B7
:104070001B798B420FD152F8301079B1A268002A17
:104080001BD02BA0236901F063FB0BE034A001F0EF
:104090005FFB0120FEBD401C1228E7D33FA0216931
:1040A00001F056FB204601F02FF80028F2D1217DC7
:1040B000490707D5002201210FE042A0226901F043
:1040C00047FBEFE7217BC2290CD1617B202909D175
:1040D000A17B162906D100221146204601F016FCCC
:1040E0000028D7D12169B1F1807F06D903B02046DD
:1040F000BDE8F040012101F04BB884F83550FEBD19
:104100004572726F723A205265616420666C617309
:104110006820646576696365204A454445432049C3
:1041200044206572726F722E00000000006A000861
:10413000466F756E64206120257320257320666CA0
:1041400061736820636869702E2053697A652069FD
:104150007320256C642062797465732E0000000062
:104160005761726E696E673A205468697320666C95
:1041700061736820646576696365206973206E6F7A
:104180007420666F756E64206F72206E6F7420737A
:104190007570706F727465642E000000466F756EE6
:1041A00064206120666C61736820636869702E20EA
:1041B00053697A6520697320256C6420627974657F
:1041C000732E0000466F756E642061202573206693
:1041D0006C61736820636869702E2053697A65206A
:1041E000697320256C642062797465732E00000069
:1041F0000EB5FDF7D5FFFFF77FFCFFF707FAFFF7D6
:1042000061FAFFF7E1FAFFF7BBFAFDF7A7FE00221C
:104210000E490F48FEF71CFC00220E490C48FEF721
:10422000F5FB0A488278417800788DE80700094854
:1042300083784278C17808A0FCF75EF900F040F876
:10424000FFF7CCF900F04EF8FEE700002001002057
:1042500034090020000000205254433A2032302517
:104260003032642F253032642F25303264202025EF
:104270003032643A253032643A253032640D0A0017
:1042800010B590F8350008B1042300E003230020A6
:104290001C1AE400083C21FA04F41454401CC0B277
:1042A0009842F5D310BD10B5EFF3058111B16FF051
:1042B000050403E0002408B101F0DEFC204610BD37
:1042C000EFF3058010B16FF00500704704480168F6
:1042D00011B14FF0FF30704701210160002070479D
:1042E0007000002010B5EFF3058010B16FF00500ED
:1042F00010BD08480168012902D04FF0FF3010BD01
:10430000054A002182F8141D0221016001F01CFD04
:10431000002010BD700000200BE000E02DE9FF41FF
:104320004FEA01034FF00005EFF30581039549BB08
:1043300040B38027182100244AB3166806B13446DA
:1043400096691EB13146761E382E02D21679F607CE
:1043500003D0002004B0BDE8F081566906B1B7086B
:10436000D2F808C0BCF1000F0DD0D5685C2D18D371
:1043700012693AB136B18DE806103A46214602F08C
:10438000B0F803900DE0D6685EB912694AB903AA85
:10439000CDE90012BAB2214602F076F8012800D029
:1043A00003950398D6E700002DE9F84F804600F109
:1043B000200614460F460069002521449A46814292
:1043C00005D934A001F0C4F90520BDE8F88FB16823
:1043D000DFF8E8B0002950D0304688474DE0012191
:1043E000404600F019FF050049D102208BF800007B
:1043F0000BF1010239464046FFF742FF98F83500BD
:1044000008B1052500E00425B7FBFAF10AFB11709D
:1044100070B1B7FBFAF10AFB1171AAEB0100A042DF
:104420000AD2B7FBFAF10AFB1171AAEB010904E009
:10443000544501D9D14600E0A146A4EB09044F44FC
:104440000BEB05004A460A99FCF7FCF9002005EB46
:10445000090200900346756818493046A8470500D0
:1044600003D017A001F074F909E0404601F0EAFC1E
:10447000050004D10A9848440A90002CAFD10021CD
:10448000404600F0C9FEF16809B130468847284629
:104490009BE700004572726F723A20466C61736848
:1044A0002061646472657373206973206F75742072
:1044B0006F6620626F756E642E000000105300203E
:1044C0004572726F723A20466C6173682077726928
:1044D00074652053504920636F6D6D756E6963611B
:1044E0007465206572726F722E0000002DE9F04134
:1044F000134C0F460546E6682068001D01F088FA57
:10450000681C07D137B12168BDE8F0410D48091D8D
:1045100001F0CEBA20683544B5424560216805D225
:10452000A06BBDE8F041091D01F0AABA606B091D3E
:1045300001F0A6FAA06A854200D2A562BDE8F0812A
:10454000200000202C0F00202DE9F041054601F04D
:10455000BBFA2D4CA068401CA06020682B4F10B106
:10456000606930B32BE02560A068012827D10026C0
:1045700006EB860007EB800001F074FA761C382EFB
:10458000F6D3234801F06EFA2148143001F06AFA9C
:104590001F48283001F066FA1D483C3001F062FAED
:1045A0001B48503001F05EFA194860631430A06374
:1045B00005E02068E96AC06A884200D82560606A20
:1045C000401C60626864E86A2169884200D9206101
:1045D00000EB800007EB8000291D01F069FA01F073
:1045E00093FA606900280CD02068E96AC06A8842A2
:1045F00007D208494FF080500860BFF34F8FBFF3D8
:104600006F8FBDE8F0810000200000207C0A0020B0
:10461000DC0E002004ED00E038B501F055FA104C36
:104620002068C8B90F4801F01DFA0E48143001F097
:1046300019FA0C48E060143020610A4B0020F03B6E
:10464000009003F1500210210A2001F0BFFC20600D
:1046500010B105A101F0DAFABDE8384001F054BA12
:104660005C00002030100020546D725100000000EA
:1046700030B4026C0B46002A0BD0C1681144C160F3
:104680008468A14201D30168C16030BC1846FCF7C0
:10469000D9B830BC70472DE9F041856B1746044608
:1046A0000026026C82B1C7B1E068FCF7CBF8E16884
:1046B000206C091AE1602268914202D2A168081AAE
:1046C000E060022F16D017E02068A8B9A06801F0BA
:1046D000ABFF06460020A0600EE06068FCF7B2F871
:1046E000216C606808446060A168884204D3206837
:1046F000606001E005B16D1E6D1CA5633046BDE82C
:10470000F08110B5044690F8590058B101280CD03A
:1047100002280FD0502080F31188BFF34F8FBFF3D2
:104720006F8FFEE7206B01F003FA2046BDE81040D2
:1047300001F0FEB910BD000010484FF4705142075F
:1047400006D0C01D0D4920F00700411AC1F5705177
:104750000B4A00230144C2E900030839183A21F04A
:10476000070111604B600B600B1AC0E900139360E6
:104770004FF0004053605061704700001017002058
:104780008C000020144E154CA6F29C474FF0805828
:10479000DFF84C9012E000BF01F096F9F068C568B0
:1047A000281D01F035F9A068401EA0606068401E19
:1047B000606001F0A9F92846FFF7A3FF60680028B0
:1047C000EAD138680128F9D9C9F80080BFF34F8FC2
:1047D000BFF36F8FF2E70000180F002020000020C9
:1047E00004ED00E070B51D46049C51B1C4F80020F2
:1047F000C4E90F010121204601F01CFC84F84C5053
:1048000070BD2460F4E700002DE9F05F8846DDE923
:104810000B941546834691009A460A9EA522206B6A
:10482000FCF755F86FF00301206B01EB850108449C
:1048300020F00707780707D0502080F31188BFF3D6
:104840004F8FBFF36F8FFEE70025B8F1000F0FD039
:104850005FF00000221818F8001082F8341018F8E1
:10486000001011B1401C1028F4D384F8435001E02B
:1048700084F83450382E00D33726E662C4E9136535
:10488000201D01F0FAF804F1180001F0F6F8246197
:10489000C6F138006462A061656584F858505246DC
:1048A0005946384600F05AFA2060B9F1000F01D09D
:1048B000C9F80040BDE8F09F30B5114900E011464D
:1048C0000A688242FBD34B685C18844203D140687B
:1048D00018444860084643681C18944209D1084CA3
:1048E000183C2468A24209D052681A4442600A68FF
:1048F00012680260814200D0086030BD0460F9E7B0
:104900008C00002070B5002441600B4D0061914285
:1049100006D8D11A8269914206D2011D286907E0A2
:104920009A4203D2994201D3012403E0011DE868B1
:1049300001F0A6F8204670BD5C00002010B50446CA
:1049400001F0C2F8A06B28B15FF0000401F0DCF8C0
:10495000204610BD0124F9E730B589B03C4D6EE02A
:104960000498002806DADDE90601059A90470498C4
:10497000002864DB069C606910B1201D01F048F836
:1049800003A800F0D7F8024604980A2857D2DFE8B7
:1049900000F00505052D334A05052D3394F8280050
:1049A00040F0010084F828000599A069059B0144A6
:1049B0002046FFF7A7FF68B3216A2046884794F88E
:1049C000280040073BD5002000900598A1690023EE
:1049D00042181946204601F031FFD8B9502080F323
:1049E0001188BFF34F8FBFF36F8FFEE714F8280FC6
:1049F00020F00100207022E094F8280040F001002F
:104A000084F828000598A06128B181181346204633
:104A1000FFF778FF13E0502080F31188BFF34F8F2A
:104A2000BFF36F8FFEE794F82800810703D4204678
:104A300001F07EF803E020F0010084F82800002255
:104A400004A9286801F04AFC002889D109B030BDCA
:104A50005C0000202DE9FC410F46054601F0B8F945
:104A600001A800F067F80446019818B101F054FE5F
:104A7000BDE8FC81254EAFB130690068D0B3002796
:104A8000291B3A46306801F0D5F801F045FE0028B0
:104A9000EED11F494FF080500860BFF34F8FBFF336
:104AA0006F8FE5E7A542EBD801F036FEF0682746A8
:104AB000C068C468201D00F0ABFF94F828004107CF
:104AC00019D5A0692B4641193A462046FFF71AFF2F
:104AD000A8B100200346014600902A46204601F076
:104AE000ADFE60B9502080F31188BFF34F8FBFF344
:104AF0006F8FFEE707E020F0010084F82800216AAC
:104B000020468847B4E70127BAE700005C00002090
:104B100004ED00E00648416B096829B1416BC968A2
:104B2000C9684968816270474FF0FF31FAE70000B9
:104B30002000002070B5054601F00CFD064E04462D
:104B4000B068844203D200F009F8012000E00020A0
:104B500028602046B46070BD5C000020F8B5194D97
:104B600020E0C068C4680668201D00F051FF216A7B
:104B70002046884794F82800400713D5A0693044A0
:104B8000B04206D924616060211DE86800F078FF1A
:104B900008E000200346014600903246204601F01E
:104BA0004DFE38B1E86801680029DAD12969C5E904
:104BB0000310F8BD502080F31188BFF34F8FBFF36F
:104BC0006F8FFEE75C00002008484068401C4FF0F3
:104BD000500080F3118804D0BFF34F8FBFF36F8F65
:104BE000FEE7BFF34F8FBFF36F8FFEE79400002007
:104BF000074CE068016841B1C0680021D0F80000AE
:104C0000FFF728FFFFF7A8FEF3E701210020F7E7F1
:104C10005C0000202DE9F041044600F055FF94F9B6
:104C2000455004F1240609E0606A48B1304601F0BD
:104C30003BFD08B101F04EF86D1E6DB2002DF3DCA6
:104C40004FF0FF3684F8456000F05EFF00F03CFF57
:104C500094F9445004F1100709E0206948B138463E
:104C600001F022FD08B101F035F86D1E6DB2002D86
:104C7000F3DC84F84460BDE8F04100F045BF00007B
:104C80002DE9F0410546002701F0A2F8324E3068C8
:104C900008B9FFF751FD706905424ED1C5B308351B
:104CA00068070ED005F00700C0F10800054468074A
:104CB00007D0502080F31188BFF34F8FBFF36F8F61
:104CC000FEE72DB37068854237D823481830014677
:104CD0000C6801E020460C466168A94202D22168B6
:104CE0000029F7D131688C4227D00768216801601C
:104CF00060680837411B10290FD96019420708D096
:104D0000502080F31188BFF34F8FBFF36F8FFEE702
:104D100013E041606560FFF7CFFD61687068401A7D
:104D20007060B268904200D2B060706901430020A8
:104D3000C4E90001F068401CF06001F0EDFC780768
:104D400007D0502080F31188BFF34F8FBFF36F8FD0
:104D5000FEE73846BDE8F0817400002010B5031F5F
:104D60004FF080741C601B1F21F001011960191F96
:104D7000044B0B6014390A60091F6FF002024438BB
:104D80000A6010BDC94B00081CB500220C46082162
:104D9000009201920B466A4600F03EF918B112A04B
:104DA00000F0D6FC1BE09DF8000020709DF801206B
:104DB00062709DF80210A1709DF80300E070019BE5
:104DC000012923F07F43636003D9154800F0C0FC3C
:104DD00005E0092805D20146124800F0B9FC002080
:104DE0001CBD01201CBD00004572726F723A204349
:104DF000616E27742072656164204A4544454320F2
:104E0000626173696320666C6173682070617261AE
:104E10006D65746572206865616465722E000000BE
:104E200084710008DC710008F0B589B0054600F116
:104E300044044E6824216846FBF751FD24236A464A
:104E40003146284600F0E8F808B14DA056E0401C75
:104E5000C0B20928FBD39DF80100E0719DF8000065
:104E6000002100F003020120012A03D0032A03D00D
:104E700051A043E0A07100E0A1719DF80020C2F3B1
:104E80008002FAB112B14FF48072A2809DF8002026
:104E9000C2F3C002C2B142B121729DF80020C2F338
:104EA00000129AB10AB1062262729DF80220C2F382
:104EB00041026AB1012A0ED0022AA1720CD0E1721D
:104EC0004BA01BE0A080E1E72072EEE75022EBE769
:104ED000A072E17201E0A072E0729DF80420DDF89A
:104EE000053042EA03229DF80730DB090BD08BB175
:104EF00022F00042232A09D94648E16000F028FC4C
:104F0000002009B0F0BD00EBD20102E0D21E00FA91
:104F100002F1E16000210A464FEA0D0303EB41066E
:104F2000357F45B100FA05F704EBC205521C2F612D
:104F3000767F2E75D2B2491CC9B20429EED3002166
:104F400004EBC1031A69A2B14A1C0FE004EBC205CD
:104F50002F6957B11E69BE4207D993F814C01F616B
:104F60002F7D1F752E6185F814C0521CD2B2042A01
:104F7000ECD3491CC9B20429E2D320700120C0E758
:104F80005761726E696E673A2043616E27742072B2
:104F9000656164204A45444543206261736963202A
:104FA000666C61736820706172616D6574657220F2
:104FB0007461626C652E00004572726F723A205502
:104FC0006E69666F726D2034204B4220657261738A
:104FD0006520737570706F7274656420696E666F9A
:104FE000726D6174696F6E206572726F722E00004F
:104FF0004572726F723A2052656164206164647216
:10500000657373206279746573206572726F7221A3
:10501000000000003C7100083EB50AA5D5E9004536
:10502000CDE901450C0C8DF805400C0A8DF80640C1
:1050300000938DF8071013460522446A01A9203019
:10504000A0473EBD5A000000FF0000001CB5002133
:1050500000F1440400910191217008236A46FFF792
:10506000DBFF18B112A000F073FB0FE09DF8000009
:1050700053280BD19DF80100462807D19DF8020066
:10508000442803D19DF80300502801D000201CBD06
:105090009DF80400A0709DF805106170012904D9E5
:1050A000A2780BA000F054FBF0E701201CBD00002B
:1050B0004572726F723A2043616E27742072656187
:1050C000642053464450206865616465722E000078
:1050D0004572726F723A2054686973207265766502
:1050E0007273696F6E285625642E256429206F66B9
:1050F0002053464450206973206E6F74207375707E
:10510000706F727465642E002DE9FC41054600F154
:105110002004662000278DF80400009766683B464F
:10512000012201A92046B047060005D00FA000F0DB
:105130000FFB3046BDE8FC81284600F083FE992035
:105140008DF8050000970023666801220DF1050126
:105150002046B047040004D1284600F073FE040046
:1051600002D002A000F0F4FA2046E3E74572726F25
:10517000723A20466C6173682064657669636520C5
:105180007265736574206661696C65642E00000049
:105190007CB50C460546012100F03EF800281BD1E5
:1051A0000CB1B72000E0E9208DF804000020009049
:1051B00003466E6A012201A905F12000B0470600EE
:1051C00002D024B105A103E085F8354003E005A134
:1051D00006A000F0BDFA30467CBD0000456E746547
:1051E0007200000045786974000000004572726F1B
:1051F000723A20257320342D4279746520616464ED
:1052000072657373696E67206D6F6465206661698E
:105210006C65642E00000000FEB50C00054601D050
:10522000062000E004208DF80400002000900346D2
:105230006E6A012201A905F12000B047002814D1AF
:1052400002A9284600F004FB00280ED19DF80810A2
:105250004FEA81711CB1002907DB04A002E000299C
:1052600003DA0BA000F074FA0220FEBD4572726FE3
:10527000723A2043616E277420656E61626C65200E
:105280007772697465207374617475732E00000001
:105290004572726F723A2043616E2774206469739D
:1052A00061626C65207772697465207374617475CE
:1052B000732E00007CB5816A064600F1200409B116
:1052C0002046884701213046FFF7A6FF050025D17B
:1052D000C7208DF80400307D010728460DD59421A4
:1052E0008DF8051080218DF806109A218DF8071091
:1052F000009000230422656803E0009000236568A5
:10530000012201A92046A847050003D008A000F00B
:105310001FFA03E0304600F095FD054600213046B7
:10532000FFF77AFFE16809B12046884728467CBD2F
:105330004572726F723A20466C61736820636869C7
:10534000702065726173652053504920636F6D6DE5
:10535000756E6963617465206572726F722E0000EC
:105360002DE9F04717460D46814600F0E1F9044665
:10537000002001E03854401CA842FBD32A4649468D
:10538000204600F01FF9216808B130A057E02B46F5
:105390004A463748FBF7B0F83B462A46494620467E
:1053A00000F09EFA216808B132A048E02B464A4638
:1053B0003948FBF7A1F83B462A464946204600F00B
:1053C000E3F9216820B135A0FBF796F8002630E01C
:1053D0002B464A463A48FBF78FF83AA0FBF78CF881
:1053E0000026A5F1010814E0300704D109EB0601FD
:1053F00044A0FBF781F8B95D44A0FBF77DF83007C6
:10540000B0F1704F01D0464502D142A0FBF774F8CD
:10541000761CAE42E8D33FA0FBF76EF8D6E7B85D46
:10542000F1B2884204D03C482168FBF765F802E0FD
:10543000761CAE42F3D3AE4205D1216837A0BDE859
:10544000F047FBF759B8BDE8F0870000457261737B
:10545000652074686520257320666C61736820641C
:10546000617461206661696C65642E0D0A0000003C
:10547000306E000857726974652074686520257362
:1054800020666C6173682064617461206661696C78
:1054900065642E0D0A000000746E00085265616498
:1054A0002074686520257320666C617368206461D0
:1054B0007461206661696C65642E0D0A000000004D
:1054C000B86E00084F66667365742028682920301E
:1054D000302030312030322030332030342030350D
:1054E00020303620303720303820303920304120ED
:1054F00030422030432030442030452030460D0AD1
:10550000000000005B253038585D200025303258FF
:10551000200000000D0A0000E46D000854686520BA
:10552000257320666C6173682074657374206973D9
:1055300020737563636573732E0D0A0070B504469E
:10554000FEF710FD050009D0002084F8340006A005
:10555000D4F8001000F0FCF8284670BD012084F853
:1055600034000DA02168F5E74572726F723A20256C
:105570007320666C61736820646576696365206971
:105580006E697469616C697A6174696F6E206661B5
:10559000696C65642E000000257320666C61736879
:1055A0002064657669636520696E697469616C69F8
:1055B0007A6564207375636365737366756C6C7963
:1055C0002E0000002DE9FE4F044600F1200715468D
:1055D0008846006900262944814205D93FA000F091
:1055E000B7F80520BDE8FE8FB8F1000F05D1A8423D
:1055F00003D12046FFF75EFEF4E7B968002960D0CA
:10560000384688475DE000BF94F8440050B12A4610
:105610004146204600F028F904EBC00090F858A05D
:10562000406D02E094F81CA0A0690121814620464B
:10563000FFF7F2FD060046D18DF804A00DF105023A
:1056400041462046FEF71CFE94F8350008B10522BD
:1056500000E004220020009003467E6801A938463D
:10566000B047060003D027A000F072F82BE02046D8
:1056700000F0E8FB060026D14946B8FBF1F209FB31
:105680001280B8B1B8FBF1F209FB1281A9EB01005D
:10569000A84218D2B8FBF9F209FB1281B8FBF9F263
:1056A000A9EB010009FB12812D1AA9EB010101EB05
:1056B000080005E04D4506D9A5EB090508EB0900F2
:1056C0008046002DA0D100212046FFF7A5FDF968F6
:1056D00009B138468847304684E700004572726F4A
:1056E000723A20466C6173682061646472657373FA
:1056F000206973206F7574206F6620626F756E6409
:105700002E0000004572726F723A20466C61736819
:105710002065726173652053504920636F6D6D750C
:105720006E6963617465206572726F722E0000008D
:1057300000487047A000002010B5044800244460D1
:10574000FFF7FCFE00B10446204610BDA00000207B
:105750000FB410B503AC08A0FAF7CEFE23464FF401
:1057600080710748029AFAF7ADFE054905A0FAF7DD
:10577000C3FE10BC5DF814FB5B534655445D00004E
:105780001554002025730A002DE9FE4317460546EF
:1057900000F120048846C81929699946884205D92C
:1057A00015A0FFF7D5FF0520BDE8FE83A16809B16C
:1057B00020468847284600F045FB060015D1032007
:1057C0008DF804000DF1050241462846FEF758FD0C
:1057D00095F8350008B1052200E0042200976568BD
:1057E0004B4601A92046A8470646E16809B1204674
:1057F00088473046D8E700004572726F723A2046FB
:105800006C617368206164647265737320697320CE
:105810006F7574206F6620626F756E642E000000D5
:105820001CB50446FFF712FC48B169462046FFF755
:10583000ABFA20B169462046FFF7F6FA1CBD0348D3
:105840002168FFF785FF00201CBD0000E070000804
:105850001CB505228DF80420012200920B46446AF3
:1058600001A92030A0471CBD70B5054600206B6D16
:10587000B1FBF3F403FB141303B170BD5FF003033A
:1058800005EBC304646D34B1944204D8B1FBF4F663
:1058900004FB16141CB1002BEFD05B1EF0E718467A
:1058A00070BD0000426800215AB9074A4262074AA7
:1058B0008262074AC262074A0263074A8263074A52
:1058C000C263084670470000955900088D590008CA
:1058D00091590008140100202F1F0008C02709005B
:1058E000F8B504460020A58AEE0706D000934FF4D1
:1058F00080732046FEF758FDF8BD6D07FCD501B05A
:105900002046BDE8F040FEF771BA00002DE9FC41E9
:10591000174600F12005002651B150208DF80400F3
:10592000009600236C68012201A92846A04702E0E6
:105930000121FFF771FC04000DD101208DF8040056
:105940008DF80570009600236C68022201A9284694
:10595000A047040002D003A0FFF7FAFE2046BDE8EE
:10596000FC8100004572726F723A2057726974654B
:105970005F7374617475732072656769737465729F
:10598000206661696C65642E0000000000F09CB820
:1059900000F0BAB82DE9F05F046900279046894607
:1059A0009B460A9D3E4621893A466068FCF7E4FB27
:1059B000B8F1000F1ED01FFA88F264234946206810
:1059C000FDF7DEFAB0B102271AE04D4501D350468B
:1059D00000E028461FFA80F8A5EB08050BEB06014E
:1059E000642342462068FDF721FA08B1032707E047
:1059F000464403E04FF480394FF6FF7A002DE4D19E
:105A0000218901226068FCF7B7FB3846BDE8F09FAA
:105A1000D0E9013201699A60D0E901235A604A68ED
:105A2000824201D182684A60002202610868401EF9
:105A30000860086870470000034B036003F15C00D6
:105A4000086080201060704758100020044B0360ED
:105A500003F15C0008604FF4807010607047000034
:105A6000B412002000F108014FF0FF32C0E901122A
:105A7000C160016100210160704700210161704730
:105A800030B50B685A1C02D000F1080202E002692E
:105A900004E02246546825689D42FAD953684B6059
:105AA00099608A60516008610168491C016030BDDD
:105AB00042684A6093688B6093685960916008619E
:105AC0000168491C01607047502080F31188BFF3C2
:105AD0004F8FBFF36F8F0A494868401C4860012808
