:020000040800F2
:10000000800F002015030008373B00083D39000829
:10001000353B00087522000825400008000000005C
:100020000000000000000000000000005D3D00082E
:10003000C922000800000000393B00085F3D0008AD
:100040002F0300082F0300082F0300082F030008C8
:100050002F0300082F0300082F0300082F030008B8
:100060002F0300082F0300082F0300082F030008A8
:100070002F0300082F0300082F0300082F03000898
:100080002F0300082F0300082F0300082F03000888
:100090002F0300082F0300082F0300082F03000878
:1000A0002F0300082F0300082F0300082F03000868
:1000B0002F0300082F0300082F0300082F03000858
:1000C0002F0300082F0300082F0300082F03000848
:1000D0002F0300082F0300082F0300082F03000838
:1000E0002F0300082F0300082F0300082F03000828
:1000F0002F0300082F0300082F0300082F03000818
:100100002F0300082F0300082F0300082F03000807
:100110002F0300082F030008093E00082F030008E2
:100120002F0300082F0300082F0300082F030008E7
:100130002F0300082F0300082F0300082F030008D7
:100140002F0300082F0300082F0300082F030008C7
:100150002F0300082F0300082F0300082F030008B7
:100160002F0300082F0300082F0300082F030008A7
:100170002F0300082F0300082F03000800000000D1
:100180002F0300082F03000800F002F800F0B2F877
:100190000AA090E8000C82448344AAF10107DA45E2
:1001A00001D100F0A7F8AFF2090EBAE80F0013F082
:1001B000010F18BFFB1A43F00103184714C70000D2
:1001C00034C700000A444FF0000C10F8013B13F054
:1001D000070408BF10F8014B1D1108BF10F8015BA0
:1001E000641E05D010F8016B641E01F8016BF9D193
:1001F00013F0080F1EBF10F8014BAD1C0C1B09D1EA
:100200006D1E58BF01F801CBFAD505E014F8016B5B
:1002100001F8016B6D1EF9D59142D6D370470000ED
:100220000023002400250026103A28BF78C1FBD8FF
:10023000520728BF30C148BF0B6070476E2900F0DD
:100240002186702900F0438266290AF058866529C4
:100250000AF0558667290AF0528661290AF051860C
:1002600003681B0A28BF41F08001692900F07681EC
:10027000642900F07381752900F070816F2900F006
:10028000E286782900F00F82E92900F0A381E429B1
:1002900000F0A081F52900F09D81EF2900F0DF86B4
:1002A000F82900F00E820368DB0928BF41F08001C5
:1002B000632900F02A86732900F02F86E32901F0D4
:1002C000EF82F32901F0F482002070471FB50AF095
:1002D00011FE01F043FB0400002000210AF0F4FDB0
:1002E000401C6060002000210AF0D8FDE0601FBDC6
:1002F00010B510BD01F004FB1146FFF7E7FF07F052
:1003000089FD01F0E1FB03B4FFF7F2FF03BC04F049
:100310000EFA00000948804709480047FEE7FEE75B
:10032000FEE7FEE7FEE7FEE7FEE7FEE7FEE7FEE7A5
:1003300004480549054A064B70470000F93D00088E
:100340008901000880090020800F0020800B002018
:10035000800B0020704753EA020C00F069802DE901
:10036000F04B4FF00006002B1FBFB3FA83F503FAE2
:1003700005F424FA05F65E4012BF1643B2FA82F580
:1003800002FA05F4C5F120051EBF22FA05FC44EA75
:100390000C04203556EA044C4FEA144418BF641C80
:1003A0004FF000084FF00009904271EB030C39D375
:1003B000002919BFB1FA81F701FA07F6B0FA80F700
:1003C00000FA07F6C7F120071EBF20FA07FC46EA2D
:1003D0000C062037B6FBF4FCA7EB0507103F07F02F
:1003E0001F0BCBF120060CFA0BFB2CFA06F644BFD0
:1003F000B3460026202FA4BF5E464FF0000B5BEAF9
:10040000060C08BF4FF0010B19EB0B09ABFB027C8C
:1004100048EB0608C01B06FB02CC0BFB03CC71EBC0
:100420000C01C1E70B46024641464846BDE8F08B49
:1004300013B54FF000004FF00001AFF30080BDE8AE
:100440001C4070477CB51D4616460C00009001D03C
:100450002044401E074B7B442A46694601903046A3
:1004600000F029FD05461CB10020694600F036FD6C
:1004700028467CBD8D0A00000FB4044910B503AABC
:10048000029800F04FFD10BC5DF814FB0400002042
:100490000FB41CB5084B06AA7B446946009005982A
:1004A00000F009FD04460020694600F017FD2046D3
:1004B0001CBC5DF814FB0000410A000070B5044646
:1004C00085690068C10601D5302600E02026C007F6
:1004D00007D070BDD4E9012130469047206A401C06
:1004E00020626D1EF6D570BD70B504468569007832
:1004F000C00707D170BDD4E9012120209047206AB0
:10050000401C20626D1EF6D570BD70B50C460546C8
:10051000012A05D02878800600D5EA69002302E088
:10052000012305E05B1C934202D2E05C0028F9D174
:10053000A869E618C01AA861286A184428622846E3
:10054000FFF7BCFF04E0D5E9012114F8010B904747
:10055000B442F8D32846FFF7C7FF70BD2DE9F0413C
:100560000646002410687529314616A510D000F003
:100570001EFC002802DA404213A507E031688A0712
:1005800001D512A502E0490704D511A5012401E017
:1005900000F016FC00210A2206F1240709E0B0FB56
:1005A000F2FCB0FBF2F302FB1C003030785418462A
:1005B000491C0028F3D123462A463046BDE8F041C5
:1005C00000F007BC000000002D0000002B00000020
:1005D000200000002DE9F0418046D21D22F00702E4
:1005E0000025D2E90002F52915A614D0011E72F1EA
:1005F000000106DA0023D0EB030063EB020211A630
:1006000008E0D8F800108B0701D50FA602E04907D3
:1006100001D50EA601251146002408F1240704E0A7
:1006200000F080FB30323A55641C50EA0102F7D1E9
:100630002B46324621464046BDE8F04100F0C9BB9A
:10064000000000002D0000002B0000002000000032
:10065000F0B40D460188090502D5214C7C4402E026
:100660001F4C7C440E34002100F1240608E002F007
:100670000F071209E75D42EA03721B097754491C10
:1006800052EA0307F3D102780023120704D5702D34
:1006900006D009B1022311342246F0BC00F099BB08
:1006A00001231034F8E770B504460D462146106862
:1006B00000F086FB024629462046BDE87040002334
:1006C000C6E7D21D22F00703D3E90023C0E7036881
:1006D000126843F0200303600823C3610023B7E7D7
:1006E0004FB400002DE9F05F894604464FF0000A40
:1006F000DFF874B1FB44C0F820A02046E1688847C9
:10070000002874D0252806D0D4E901219047206A1A
:10071000401C2062F1E700265F462046E1688847DA
:100720002028054607DB312D05D2781910F8200C5A
:1007300008B10643F1E7B00701D526F00406C4F876
:100740001CA00027C4F818A02A2D09D0284603F0C1
:10075000E7FF38B304EB8708303DC8F8185019E0BC
:1007600059F8041B204604EB87029161E168884731
:10077000012F054618D1E069002820DA26F020066E
:100780001DE0D8F8180000EB800005EB4000303881
:10079000C8F818002046E1688847054603F0C0FF06
:1007A0000028EED1012F0AD02E2D08D12046E16875
:1007B00088477F1C0546022F46F02006C4DBA0694F
:1007C000002803DA404246F00106A061F00701D09C
:1007D00026F010066C2D0BD0682D09D04C2D39D089
:1007E0006A2D35D0742D35D07A2D33D016E038E00F
:1007F000E1682F4620468847B842054609D16C2F4C
:1008000026D04FF48060E1680643204688470546BD
:1008100004E06C2F1AD04FF4807006430DB3A5F19D
:100820004100192802D8203546F400664A46294678
:10083000204626604E46FFF701FD80B101280BD00F
:10084000F61D26F0070000F1080956E74020E4E70E
:100850008020D8E70020D6E706F104094DE72846B6
:1008600052E7206ABDE8F09FDFB3000010B5431CDB
:1008700002E010F8011B71B18107FAD14FF001328B
:1008800002C88C1A8C4314EAC211F9D0C01A0A06A5
:1008900003D0C01E10BDC01A10BD0A0401D0801EB6
:1008A00010BD0902FCD0401E10BD40EA010370B526
:1008B0009B072ED14FF00136042A2AD308C810C94D
:1008C0009D1B9D43121F15EAC61517D0D8B2E1B281
:1008D000401A50EA056110D198B2A1B2401A50EA0C
:1008E00005410AD123F07F4024F07F41401A50EAAD
:1008F000052102D1180EA0EB146070BDA342DBD01D
:1009000018BA21BA884201D9012070BD4FF0FF30DA
:1009100070BD0AB9002070BD10F8013B11F8014B01
:1009200063B1A3420AD1521E08D010F8013B11F85E
:10093000014B1BB1A34201D1521EEDD1181B70BD5A
:10094000032A40F2308010F0030C00F0158011F8FB
:10095000013BBCF1020F624498BF11F801CB00F8D3
:10096000013B38BF11F8013BA2F1040298BF00F827
:1009700001CB38BF00F8013B11F0030300F02580E4
:10098000083AC0F0088051F8043B083A51F804CB0B
:10099000A0E80810F5E7121D5CBF51F8043B40F8D1
:1009A000043BAFF30080D20724BF11F8013B11F8DC
:1009B00001CB48BF11F8012B24BF00F8013B00F820
:1009C00001CB48BF00F8012B704710B5203AC0F0AA
:1009D0000B80B1E81850203AA0E81850B1E8185040
:1009E000A0E81850BFF4F5AF5FEA027C24BFB1E87D
:1009F0001850A0E8185044BF18C918C0BDE81040EE
:100A00005FEA827C24BF51F8043B40F8043B08BFF6
:100A10007047D20728BF31F8023B48BF11F8012BBD
:100A200028BF20F8023B48BF00F8012B704702F0B6
:100A3000FF0343EA032242EA024200F01DBB4FF0EB
:100A4000000200B5134694469646203922BFA0E81E
:100A50000C50A0E80C50B1F12001BFF4F7AF09072A
:100A600028BFA0E80C5048BF0CC05DF804EB89001B
:100A700028BF40F8042B08BF704748BF20F8022B5E
:100A800011F0804F18BF00F8012B704710B50446D5
:100A900010F0030F08BF11F0030F40F015804FF066
:100AA000013E121FC0F20E8051F8043BA3EB0E0C66
:100AB0002CEA030C1CEACE1C08BF40F8043BF0D023
:100AC000A1F1040102F10402521E08DB11F8013BFE
:100AD000002B00F8013BF7D1114600F0CBFA20467D
:100AE00010BD00004FF0013C50F8042B51F8043BBE
:100AF0009A4221D1A2EB0C03934313EACC1317D1F2
:100B000050F8042B51F8043B9A4215D1A2EB0C0388
:100B1000934313EACC130BD150F8042B51F8043B48
:100B20009A4209D1A2EB0C03934313EACC13DBD016
:100B30004FF00000704700BFD01A01BAB1FA81F13E
:100B400001F0180122FA01F0CB40C1F12001DBB223
:100B5000C0B2C01A2CFA01F3D11A914311EAC311A1
:100B6000E6D17047014900F0A7BA0000F408002060
:100B700010B503681C1404EB21449BB289B21944DC
:100B800094FBF2F302FB134394FBF2F401EB0343F7
:100B900093FBF2F102FB113193FBF2F301E05B1ED8
:100BA00011440029FBDB016003EB044010BDF0B5EC
:100BB00004464FF0FF3585B00068049060680290ED
:100BC000A0680390E068019020690090666906F1D2
:100BD0008040B0F1004F7CD83C22002104A8FFF7F0
:100BE000C7FF3C22014602A8FFF7C2FF18220146B8
:100BF00003A8FFF7BDFF411E40F2B55201A8FFF761
:100C0000B7FF0C22074668460021FFF7B1FF414BB2
:100C100000EB8700304400267B4411E0511A01911B
:100C20000099491C0229009102D00C2908D105E045
:100C3000810705D00199491C019101E0401C0096F3
:100C40000099019A595C9142E8DD0099012906D189
:100C50001C2A04D1810702D00221CDE90016A0F19F
:100C600046018B293CD2DDE90061002202E09F5C55
:100C7000521C3944B242FADB012E02DD820700D059
:100C8000491E40F2B55340F26D16C21700EB927246
:100C900092105A4300F0030303FB062283070A4421
:100CA00000D1521E039E02EB4203049F06EBC303D6
:100CB000029EC3EB031306EB8303174E33441E144B
:100CC0009BB2C6EB0616C3EB0313B60007EB830318
:100CD00000E005E006EB134666F31F43360C02D036
:100CE000284605B0F0BD80C4029E40C4039E40C4A7
:100CF000019E761C44F80C6B009E44E902600720BC
:100D0000521C92FBF0F600FB162084E823001846E4
:100D1000E7E70000D4AE0000A039CEFD7047704771
:100D20007047704730B5B0F10A024FEA900E71F18A
:100D300000034EEA817EB0EB0E0061EB91014FEAB9
:100D4000101E4EEA017E10EB0E0041EB11114FEA2E
:100D5000102E4EEA016E10EB0E0041EB11214FEA0E
:100D6000104E4EEA014E10EB0E0041EB11414018BF
:100D700041F100014FEAD00040EA41704FEAD10151
:100D800010EB80054FEA810444EA907444EB0104BF
:100D90006D1944EB0404521BA3414FF0000348BFFC
:100DA0000A3200D530BD401C41F1000130BD096858
:100DB0004A0501D540B27047C905FCD500B270475D
:100DC00009684A0501D5C0B27047C905FCD580B293
:100DD00070472DE9F0470D4699469246044600F1CA
:100DE00024080168880604D5E06921F0100121601B
:100DF00000E00120A84201DD471B00E00027A169B7
:100E00007A1902EB0900081AA0612078C00602D402
:100E10002046FFF753FB002608E0D4E901211AF829
:100E200006009047206A401C761C20624E45F4DB89
:100E30002078C0060AD52046FFF740FB06E0D4E93B
:100E4000012130209047206A401C2062381EA7F103
:100E50000107F4DC07E0D4E9012118F80500904708
:100E6000206A401C2062281EA5F10105F3DC204603
:100E7000FFF73AFB2078000602D50220BDE8F08794
:100E80000120FBE711680268006A530501D508706C
:100E90000AE0D30501D5088006E0130603D5C21782
:100EA000C1E9000200E008600120704701694A1CA6
:100EB00002610878704700B58FB0CDE9013100219B
:100EC000059105497944CDE9031011466846FFF7BD
:100ED00009FC0FB000BD0000E5FFFFFF0A6802F843
:100EE000010B0A607047D1E900239A4202D2531CD9
:100EF0000B601070704710B5436913B1AFF30080F9
:100F000001E0FFF702FB012010BD127800F124017F
:100F10000A7000224A700122EDE711684FF0FF329B
:100F2000E9E70000074B70B50D467B44FFF7C3FFB0
:100F30000446284600F0C0FC10B14FF0FF3070BDF1
:100F4000204670BDEB6200002DE9FF5F15468A4622
:100F50000446DFF8AC80F8440027D8E900103E468C
:100F6000CDE9001010E03AF816106A4602A800F029
:100F7000A7FC411C07D02178890603D5E2693918FE
:100F800091420DD80744761C2078800602D5E0698E
:100F9000B84205DDAE42E6DB3AF816000028E2D1A1
:100FA000A069C01BA0612046FFF788FAD8E90010AD
:100FB000CDE90010002017E03AF818106A4602A8A0
:100FC00000F07EFCB0F1FF3F81460BD000250DF113
:100FD000080B05E0D4E901211BF8050090476D1CC2
:100FE0004D45F7D308F10100B0428046E4DB206AAA
:100FF000384420622046FFF777FABDE8FF9F0000E3
:101000008EAB000030B4002100F1240408E002F0AF
:101010000705D208303542EA4372DB086554491CA3
:1010200052EA0305F3D10468002310A2250707D56F
:10103000A40600D421B1C46901230DA2641EC461B9
:1010400030BCFFF7C6BE10B5044621461068FFF756
:10105000B7FE02462046BDE810400023D2E7D21D6D
:1010600022F00701D1E90023CCE7000000000000D6
:10107000300000004FF000020429C0F0128010F090
:10108000030C3FF4DEACCCF1040CBCF1020F18BF32
:1010900000F8012BA8BF20F8022BA1EB0C01FFF7F1
:1010A000D0BC5FEAC17C24BF00F8012B00F8012B03
:1010B00048BF00F8012B704770B50C46016800204E
:1010C0004A1C3ED03C22B1FBF2F302FB1313B1FBEE
:1010D000F2F12360B1FBF2F302FB1313B1FBF2F167
:1010E00018226360B1FBF2F302FB1313B1FBF2F1C0
:1010F00046F2E0320A440721A360B2FBF1F301FBA0
:10110000132140F2B553B2FBF3F5A161B2FBF3F149
:1011100003FB15228900B2F5B77F08D39B10521E3E
:10112000B2FBF3F52944B2FBF3F503FB15220F4B99
:10113000E261616189077B440CD03B2A0AD3521CCF
:1011400008E02C212046FFF77AFC0120E0600AE04D
:10115000521A401C195C9142FAD9521CC4E903206E
:101160004FF0FF302062204670BD0000B6A900009D
:1011700070472DE9FF4F0C461E464FF0FF378BB0EE
:10118000D2E90001DDF860800A908A46C1F30A5571
:1011900005B93D46002108464FF00000BAF1000FA6
:1011A00000F4400005DA00EB80004FF4400101EA52
:1011B00050004FEA9059B9F1010F00DDB9460A9885
:1011C00050EA4A000ED044F61050A5F2FF354543D0
:1011D0002F14B8F1000F1ED07542291E1EDDC9F173
:1011E00000021CE0B8F1010F4FF0000001D03021E7
:1011F00003E0F24305E02154401CB042FBDB3046E3
:101200000022002121540B99C1F80880C1E9002077
:101210000FB0BDE8F08FBD1B6D1CDEE74A4600DA5B
:10122000694206A800F0DEFB06AB93E8070003ABBB
:1012300083E8070050460A9900F054FC8DE8070047
:10124000A0F500501F3800900398002D0ADD42F2EF
:101250001F014A460844002303A90390684600F092
:10126000BDFE09E0A0F500504A461F38002303A93F
:101270000390684600F0C7FE8DE807000004000CEC
:1012800003D04FF0FF30410800E01046B8F1000FE6
:1012900003D00022009215461EE0751E05D4FFF70C
:1012A00041FD303262556D1EF9D5B3460122084327
:1012B00002D000227F1C04E02078302801D10022D7
:1012C0007F1E002A099784D01DE0112D07DAFFF751
:1012D00029FD303262556D1C50EA0102F5D10843F8
:1012E00002D00098C8B10EE00021681E05E0235C22
:1012F000625C63542254401E491C8142F7DBAB46BA
:10130000A81B401E0990002004F80B000B98099AB6
:10131000C0F80880C0E9002B7AE711264FF00008DA
:1013200057E72DE9F04F88460446D21D22F0070109
:1013300091B0D1E90001CDE90A0102F074FE024644
:101340000B98C00F01D02D2007E02068810701D540
:101350002B2002E0202101EAC000032A099001D0DD
:10136000072A05DB03464146204600F0FBFA0BE165
:101370002078800601D5E06900E00620B8F1650F0D
:10138000814606D0B8F1660F18D0B8F1670F70D15A
:1013900031E00020B9F1110F009001DB112301E0D1
:1013A00009F101030AAA01A90CA8FFF7E2FEDDE991
:1013B0000C70002609F10105834647E001204B46E9
:1013C00000904FF000470AAA01A90CA8FFF7D1FE30
:1013D000DDE90DB00C995D46002610B909F1010058
:1013E0000D18B9EB050003D4C0F1FF3609F1010572
:1013F000A5EB09002BE0B9F1010F01DA4FF001096B
:101400000020B9F1110F0090484601DD112300E0E2
:1014100003460AAA01A90CA8FFF7ABFEDDE90C7090
:101420004D4600268346207800070AD4AB4500DAF3
:101430005D4601A8012D04DD411911F8011C302978
:1014400007D04F4502DA17F1040F04DA0120824673
:101450000FE06D1EEEE7002F02DCED1B3E4403E0C3
:10146000781CA84200DD7D1CB81B00F1010A4FF07A
:1014700000472078000703D4AA4501DB4FF0FF3A6C
:101480000021B7F1004F0DF143088DF8431024D02F
:1014900002202B23002F01DA7F422D230A21021E76
:1014A000A0F1010000DC5FB197FBF1FC97FBF1F2CA
:1014B00001FB1C7C17460CF1300C08F801CDEEE75F
:1014C000A8F1010003702188090501D5452100E03C
:1014D0006521A0F1010800F8011C09980FA9A1EBF2
:1014E0000807FF1D00B10120411901EBEA70A16955
:1014F0003844081A401EA0612078C00602D4204655
:10150000FEF7DCFF099828B1D4E901219047206A51
:10151000401C20622078C00622D52046FEF7CEFF70
:101520001EE0002E04DBB34502DD01A8805D00E073
:101530003020D4E901219047206A401C2062761CAB
:10154000AAF101005FEA000A0AD100F007FAC068B8
:101550000168405CD4E901219047206A401C206268
:10156000281EA5F10105DCDC07E0D4E9012118F80B
:10157000010B9047206A401C2062381EA7F101072A
:10158000F3DC2046FEF7B0FF032011B041E6000077
:101590002DE9F04F04460D46D21D22F0070089B018
:1015A000D0E900974846394602F03DFD0246F80F63
:1015B00001D02D2307E02068810701D52B2302E00D
:1015C000202101EAC0038DF820300BB1012000E09A
:1015D0000020032A824601D0072A04DB2946204640
:1015E00000F0C0F93FE12078800601D40D2500E02D
:1015F000E569C7F30A560D2D49DA00214FEA175B5A
:1016000008464FF00000002F00F4400007DA00EB1E
:1016100080004FF4400100EBD07001EA60008115BA
:10162000012901DD4FF0FF3100224FEA850CBCF1AA
:10163000180F06D31346ACF118004FF08052C24089
:1016400003E04FF4801323FA0CF30CF10C0CBCF103
:10165000200F04D3ACF1200C09FA0CF001E007FADA
:101660000CF000294FF0004801DD18B90FE00ED151
:1016700040450CD319EB02095F4121B9404502D125
:101680009F4329EA0209BBEB175F00D0761C208834
:10169000000502D57B48784402E07A48784419383E
:1016A00008AA302302F80A30037C0AF10101002E57
:1016B0000AF1020A53546A4602DC4FF0300101E09D
:1016C0004FF031014FF001088DF8001002D0A6F262
:1016D000FF3603E059EA470100D06B4E002D02DCD3
:1016E0002178090704D54FF002082E218DF801104A
:1016F000C44600210BE0C7F303433F01C35C491C10
:101700006D1E02F80830052908F1010801DA002DE4
:10171000F1DC00210CE000EB1973491C1B786D1EF5
:10172000082902F808304FEA091908F1010801DA1E
:10173000002DF0DC21688B0602D516E0A8F1010827
:10174000E04505DD02EB080313F8013C302BF5D032
:10175000B8F1000F09DD02EB080313F8013C2E2B52
:1017600003D1090701D4A8F10108002D05DD3E21B0
:1017700002F808106D1E08F10108407C002E02F8E6
:10178000080008F1010804DA2D20764202F808006A
:1017900002E02B2002F808000A214FF47A708642FA
:1017A00008F101080BDB96FBF0F3303302F8083048
:1017B00096FBF0F308F1010800FB136601E0642ECC
:1017C0000CDB642096FBF0F3303302F8083096FB14
:1017D000F0F308F1010800FB136601E00A2E06DBB6
:1017E00096FBF1F0303002F8080008F1010896FB92
:1017F000F1F001FB1060303002F80800A16908F137
:10180000010808EB050202EB0A00081AA061207823
:10181000C00602D42046FEF751FE216A08AE01EB55
:101820000A00206204E0D4E9012116F8010B904778
:10183000BAF1010AF7D22078C00602D52046FEF799
:101840003DFE6E4609E016F8010B3E280FD0D4E9A4
:1018500001219047206A401C2062B8F10108F2D2B1
:101860002046FEF741FE09B00320BDE8F08F206A54
:101870002844206203E0D4E90121302090476D1E06
:10188000EBD3F8E775A4000002FCFFFF10B5436935
:1018900013B1AFF3008001E0FFF756FB012010BD4C
:1018A000128800F1240182840022C2840122EDE723
:1018B00011684FF0FF32E9E7007B00F080007047CD
:1018C00070B516460C46054600F040F8036893F8DC
:1018D0000101012806D0FF2C0FD8185D68B1012046
:1018E0002C7070BDD3F807013246214603F207136E
:1018F00003442846BDE8704018474FF0FF3070BDE4
:10190000754600F0EBF8AE4605006946534620F0F8
:101910000700854618B020B5FEF70AFDBDE8204057
:101920004FF000064FF000074FF000084FF0000B9B
:1019300021F00701AC46ACE8C009ACE8C009ACE84E
:10194000C009ACE8C0098D467047000010B500F032
:1019500005F8001D10BD00BF7195000000487047DC
:10196000400900202DE9F0411F4604460326016886
:10197000072A01F4006004DB08B116A505E016A5EE
:1019800003E008B115A500E015A521F010002060C6
:10199000A069C01EA0610FB1401EA0612046FEF7E5
:1019A0008DFD4FB1D4E9012138469047206A401C93
:1019B0002062C01C206206E0206AFAE7D4E9012117
:1019C00015F8010B9047761EF8D22046FEF78CFDE5
:1019D000BDE8F0814E414E006E616E00494E4600FA
:1019E000696E66002DE9F047814616468AB0354893
:1019F00078440DC88DE80D0032487844801C03AC53
:101A00000DC884E80D0041F69B300844372190FB57
:101A1000F1F290FBF1F5A5F1800501FB12041B3CEE
:101A200002D56442012000E00020DFF898A0804643
:101A30000027FA44AAF1BE0A0EE0E0070AD03246B7
:101A4000684607EB470101230AEB810100F0DBFA4E
:101A50008DE8070064107F1C002CEED1194F7F44E5
:101A6000AE3F19E0E80715D007EB04100DF1180A96
:101A700090E80E008AE80E00C068F04201D1981983
:101A800008903246012306A903A800F0BCFA03AB74
:101A900083E807006D10641C002DE3D14FF00103B3
:101AA00032466946B8F1000F03A802D000F096FA5A
:101AB00001E000F0A8FAC9E90001C9F808200AB05D
:101AC000BDE8F087ACA1000010B50446AFF300807C
:101AD0002046BDE81040FEF716BC000000487047E5
:101AE000200900205FEA400C08BF91F0000F4FEA88
:101AF0008C234FEAC12243EA51514FEA1C5018BFD0
:101B000000F5F0404FEA300018BF41F000415FEAB5
:101B10006C5C00F02980BCF1FF3F08BF40F08040C2
:101B20007047130C06BF12044FF0100C4FF0000C5E
:101B3000130E04BF12020CF1080C130F04BF1201A4
:101B40000CF1040C930F04BF92000CF1020CD30FA4
:101B500004BF52000CF1010C11464FF00002A0F13D
:101B60001F00A0EB0C00704711F0004F08BF70473A
:101B700031F000413FF4D5AF0B0C06BF09044FF024
:101B8000100C4FF0000C0B0E04BF09020CF1080CF6
:101B90000B0F04BF09010CF1040C8B0F04BF89006B
:101BA0000CF1020CCB0F04BF49000CF1010CCCF17D
:101BB0002003A0EB0C0022FA03F302FA0CF241EA34
:101BC000030100F10100704720F07F4C80EA030020
:101BD00023F07F47ACEB070303F57C5300F0004094
:101BE00003F1FF032DE980494FEA154B09B44FEA91
:101BF000144325EA0B4E24EA03480FF2042606EBB1
:101C0000132749083E785FEA320203FB0667C7F5EF
:101C1000000707FB06F64FEA54374FEAD64606F1AF
:101C2000020607FB066CCCF1005C4FEA1C472CEA6D
:101C3000074C07FB06F40CFB06F504EB15464FEAD0
:101C4000961634BF00204FF000404FEAD13706FB14
:101C500007FC4FEA1C4C0CFB0BF7D21B03FB0CF7E9
:101C600061EB07010CFB0EF7B0EB074072EB17427C
:101C70000CFB08F734BFA2EB0742B2EB074261EB63
:101C800017414FEA0C444FEA910706FB07FC4FEA65
:101C90001C4C0CFB0BF7B0EBC74072EB573203FB4D
:101CA0000CF734BFA2EBC742B2EBC74261EB57312E
:101CB0000CFB0EF7B0EBC70072EB57720CFB08F78A
:101CC00034BFA2EBC702B2EBC70261EB5771039FAF
:101CD0004FEA816141EA921104EBCC044FEAD1371B
:101CE0004FEA826206FB07FC42EA90124FEA8060EC
:101CF0004FEA1C4C0CFB0BF7D21B03FB0CF761EB00
:101D000007010CFB0EF7B0EB074072EB17420CFB20
:101D100008F734BFA2EB0742B2EB074261EB174171
:101D20004FEA8C554FEA910704EB9C2406FB07FC15
:101D30004FEA1C4C0CFB0BF7B0EBC74072EB573271
:101D400003FB0CF734BFA2EBC742B2EBC74261EB17
:101D500057310CFB0EF7B0EBC70072EB57720CFB60
:101D600008F734BFA2EBC702B2EBC70261EB5771B1
:101D700015EB4C254FEA816141EA92114FEA8262EC
:101D80004FEAD13742EA901206FB07FC44F1000407
:101D90004FEA80604FEA1C4C0CFB0BF7D21B03FB95
:101DA0000CF761EB07010CFB0EF7B0EB074072EB91
:101DB00017420CFB08F734BFA2EB0742B2EB074215
:101DC00061EB174115EB1C154FEA813141EA924155
:101DD0004FEA823242EA90424FEA80304FEA0C7674
:101DE00044F1000448EA03434EEA0B484FF0000E6A
:101DF000B2EB080C71EB030724BF624639464EEB89
:101E00000E0E4FF0000B0018524149414BEB0B0BEB
:101E1000B2EB080C71EB03077BF1000B24BF6246A9
:101E200039464EEB0E0E4FF0000B0018524149415F
:101E30004BEB0B0BB2EB080C71EB03077BF1000BC8
:101E400024BF624639464EEB0E0E51EA020718BF18
:101E500046F0010616EB0E7655F1000254F1000132
:101E600003D5BDE88901BDE80088BDE88901BDE86A
:101E70000048B619524141EB0101A3F1010370473B
:101E800080807F7E7D7C7B7A7978777676757473B7
:101E9000727171706F6E6E6D6C6C6B6A6A69686876
:101EA000676666656464636362616160605F5F5E0C
:101EB0005E5D5D5C5C5B5B5A5A5959585857575682
:101EC00056555555545453535252525151505050E7
:101ED0004F4F4F4E4E4D4D4D4C4C4C4B4B4B4A4A39
:101EE0004A4949494848484747474746464645457D
:101EF00045444444444343434342424242414141B6
:101F0000002B9C4630D477002BD01CB54FEA370706
:101F100003B44FF010004FF01001BAF1000F06D0DB
:101F2000BCF1000FDCBF40F0080040F008014FF0AA
:101F300000000FBCBDE810400BF1010BBBF1010F1D
:101F400008BF5FEA170722BF12F1010211F1010178
:101F50004FF0004143F1000300F0004043EA00006D
:101F60007047F9D35708D0E746EA064613F1400F09
:101F70004FEA16461FDD13F1200FDFBF16430A4656
:101F8000002120335B42BED0C3F1200746EA06465B
:101F900002FA07F74FEA164646EA0706C3F120079A
:101FA00022FA03F201FA07F721FA03F14FF00003D6
:101FB00042EA0702A7E746EA020646EA06464FEA71
:101FC000164646EA0106BCBF46EA0646360C4FF006
:101FD00000034FF000024FF0000194E72DE9804C20
:101FE0009A46934670B491E8380007C831EA400C2D
:101FF00048BF34EA430C03D5FFF7E6FDFFF780FF47
:10200000F0BCBDE8008C2DE9804C9A46934670B434
:1020100091E8380007C810F0804F08BF13F0804FD8
:1020200003D100F005F8FFF76BFFF0BCBDE8008CB2
:1020300020F07F4780EA030023F07F4C07EB0C037E
:10204000A3F57C5300F00040A3F1FE0392F0000FD3
:1020500000F0B38095F0000F00F077802DE9014982
:102060004FEA11404FEA144621EA004800FB06FC03
:1020700024EA064708FB06F607FB08F800FB07F70B
:1020800018EB06484CEB164C4FEA124B18EB07487E
:102090004FEA15464CEB174022EA0B4E0BFB06FCB1
:1020A00025EA06470EFB06F607FB0EFE0BFB07F7BD
:1020B0001EEB064E4CEB164C4FF000061EEB074E87
:1020C0004CEB174B18EB0B0840F1000018EB0E0B14
:1020D00058EB000840F100008F1A4FF000013CBFA0
:1020E000C943661B14BFB5EB040C00213CBFC943B8
:1020F000F61B4FEA17444EEA8E0E27EA04454FEAD4
:102100001C4704FB07622CEA074C05FB07F70CFB96
:1021100005F604FB0CFC16EB074642EB174216EBE8
:102120000C4642EB1C421BEB060658EB02024141F7
:1021300046EA9E0601D5BDE80189B619524141EB38
:102140000101A3F10103BDE801894FEA14454FEAFB
:10215000114724EA054621EA074C05FB07F406FB74
:1021600007F70CFB06F105FB0CFC11EB074144EBF8
:1021700017444FEA124711EB0C4144EB1C4422EA8E
:10218000074C05FB07F206FB07F70CFB06F605FB01
:102190000CFC16EB074642EB174216EB0C4642EBE3
:1021A0001C456A1854F1000148BF7047B6195241E6
:1021B00041EB0101A3F10103704795F0000F37D007
:1021C0004FEA11424FEA144721EA024624EA074C3B
:1021D00002FB07F106FB07F70CFB06F402FB0CFC05
:1021E00014EB074441EB17414FEA154714EB0C443D
:1021F00041EB1C4125EA074C02FB07F506FB07F7FC
:102200000CFB06F602FB0CFC16EB074645EB1745EC
:1022100016EB0C4645EB1C42121951F1000148BF68
:102220007047B619524141EB0101A3F10103704718
:102230004FEA14454FEA114724EA054621EA074CC4
:1022400005FB07F106FB07F70CFB06F24FF0000653
:1022500005FB0CFC12EB074241EB174112EB0C4261
:1022600051EB1C4148BF7047921841EB0101A3F1AB
:1022700001037047FEE76420AFF30080064A10B503
:1022800053680649064C0968B1FBF4F141435068B4
:10229000C01A8842FBD310BD001000E014000020DB
:1022A00040420F000648016841F080710160054816
:1022B000016841F0010101600021416070470000A8
:1022C000FCED00E0001000E0704772B6FEE7000091
:1022D00070B5044600F00CF90546601C02D00448B5
:1022E0000078044400F004F9401BA042FAD370BD0A
:1022F000080000202DE9F84FDFF8BCA100220125DD
:1023000003264FF00F090AF1040BAAF1040E00BFD7
:102310000B6805FA02F42340A34270D10F7907F04D
:102320000307012F01D0022F16D187684FEA420818
:1023300006FA08FC27EA0C07D1F80CC00CFA08FCD6
:102340004CEA070CC0F808C04768A7430C79C4F3EF
:10235000001494403C4344600C79E443A4070AD041
:10236000C4684FEA420C06FA0CF7BC438F6807FAC0
:102370000CF72743C7600C7904F00304022C12D138
:10238000D40800EB840CDCF820405707FF0E09FA54
:1023900007F824EA0804D1F8108008FA07F848EA98
:1023A0000408CCF8208004684FEA420C06FA0CF7C7
:1023B000BC430F7907F0030707FA0CF727430760C0
:1023C0004C6814F4403F70D03C4C276847F4804779
:1023D0002760246822F0030704F480440094384CFA
:1023E00007EB040CDCF8084897074FEA177809FA5E
:1023F00008F7BC43334FB84202D1002724E054E031
:10240000314FB84201D101271EE0304FB84201D10F
:10241000022719E02E4FB84201D1032714E02D4FB7
:10242000B84201D104270FE02B4FB84201D1052754
:102430000AE02A4FB84201D1062705E0284FB842EA
:1024400001D1072700E0082707FA08F72743CCF84F
:102450000878DAF800405746D1F804C09C435FEA98
:10246000CC2C00D51C433C60DBF800405F46D1F823
:1024700004C09C435FEA8C2C00D51C433C60DEF812
:1024800000407746D1F804C09C435FEA8C3C00D5FD
:102490001C433C60084F083F3C68D1F804C09C4393
:1024A0005FEACC3C00D51C433C60521C102AFFF470
:1024B0002FAFBDE8F88F0000083C014044380240CF
:1024C00000300140000002400004024000080240C9
:1024D000000C0240001002400014024000180240AC
:1024E000001C02400AB1816170470904FBE700004B
:1024F0000148806870470000080000200248816899
:102500000278114481607047080000200B4810B524
:10251000016841F400710160016841F4806101606B
:10252000016841F480710160032000F09BF80F20E6
:1025300000F006F800F050F8002010BD003C02400A
:1025400030B505461F4887B00024016841F01001EE
:102550000160006806A900F01000009001A800F0DA
:10256000D7F90498A8B100F0F3F940001649174ACA
:10257000B0FBF1F11648491E026040F2E732C0E9B3
:102580000324C0E90114846101F059F8040003D068
:1025900015E000F0DDF9E9E70D4801F07FF80400EF
:1025A0000DD1362000F030F8102D07D20022294638
:1025B000362000F037F80748056000E0012407B036
:1025C000204630BD4038024040420F00001000401D
:1025D000340200200C0000200A4808B5016841F4CC
:1025E00080410160006800F4804000900548001FB1
:1025F000016841F080510160006800F08050009057
:1026000008BD000044380240002809DB00F01F022A
:10261000012191404009800000F1E020C0F8001144
:1026200070470000F0B40E4B1B680C46C3F3022346
:10263000C3F10705042D00D90425191D072901D26E
:10264000002300E0DB1E012606FA05F1491E2140A9
:1026500099409E40761E16403143F0BC01F0FBBC11
:102660000CED00E0064900F0070208684FF6FF0392
:10267000184040EA0220034A1043086070470000F7
:102680000CED00E00000FA05034908B501200862DE
:1026900002480068009008BD00000E420070004033
:1026A0002DE9F843054600684FF00109C1074FF0D6
:1026B000000601D1400727D5DFF80C81C8F8686013
:1026C000FFF716FF0746414C05E000BFFFF710FF7C
:1026D000C01B022857D820680001F7D46868810120
:1026E000287A41EA0070394984310860C8F8689056
:1026F000FFF7FEFE074604E0FFF7FAFEC01B0228C4
:1027000041D820680001F7D52878800752D52F4896
:102710004030016841F08051016000682C4C00F0AD
:1027200080500090206840F480702060FFF7E0FE49
:10273000074604E0FFF7DCFEC01B022823D8206810
:10274000C005F7D5214C7034206810F4407020D0BB
:10275000A98901F4407181421BD020681D4920F4F1
:102760004070C1F800900E6020602068C00710D053
:10277000FFF7BEFE064641F2883707E0FFF7B8FED6
:10278000801BB84202D90320BDE8F8832068800787
:10279000F4D5E9680D48C1F301220830032A0BD0B3
:1027A000016821F4F81101602068A989C1F30B01C7
:1027B000084320600020E7E70268074B22F4F81284
:1027C00019400A430260EFE7000047420038024028
:1027D00000700040400E4742FFFCFF0F2DE9F0471C
:1027E0000E46050065D0DFF81481D8F80000F7B276
:1027F00000F00700B04207D288F80070D8F8000057
:1028000000F00700B04254D128683D4C810712D532
:10281000400703D5206840F4E05020602878000786
:1028200003D5206840F4604020602068A96820F04B
:10283000F000084320602878C0072DD03049686830
:102840000839012812D0022813D0032811D00968B2
:10285000890700292DDA216821F003010143216055
:10286000FFF746FE814641F2883A0EE00968890387
:10287000EFE709688901ECE7FFF73AFEA0EB0901F1
:10288000514502D90320BDE8F0872068696800F04F
:102890000C00B0EB810FEFD1D8F80010404601F0EA
:1028A0000701B14207D90770006800F00700B04285
:1028B00001D00120E7E72878400705D52068E968BE
:1028C00020F4E050084320602878000706D52068EF
:1028D000296920F4604040EAC100206000F058F807
:1028E0002168084AC1F30311515CC84006490860D9
:1028F00006480068FFF724FE0020C4E7003C0240C1
:102900000838024006AF0008140000200C00002028
:102910000F2202600C4A136803F00303436013683C
:1029200003F0F0038360136803F4E053C36012689C
:102930004FF4E05303EAD20202610448006800F059
:10294000070008607047000008380240003C024061
:102950000448054900680968044AC1F38221515CB2
:10296000C8407047140000200838024016AF000825
:102970000448054900680968044AC1F34231515CC2
:10298000C8407047140000200838024016AF000805
:10299000154810B5006810F00C02144813D041100F
:1029A000042A0FD0082A0ED10F4C241F2268236856
:1029B00002F03F025B0207D52068C0F38810A0FB3D
:1029C000010106E0084610BD2168C1F38811A1FB92
:1029D00000010023FDF7BFFC2168C1F30141491C40
:1029E0004900B0FBF1F010BD083802400024F400AB
:1029F0002DE9F84F04006ED02078DFF84C93C00723
:102A0000A9F104054AD009F104000168C1F381016C
:102A1000012908D00068C0F3810002280AD1D9F842
:102A20000000400206D52868800337D5606800287A
:102A3000E1D033E06068B0F5803F10D0B0F5A02F52
:102A4000286810D020F480302860286820F4802086
:102A500028606068A8B1FFF74BFD06460DE02868C6
:102A600040F48030F4E740F480202860F7E700BFAE
:102A7000FFF73EFD801B642873D828688003F7D5D4
:102A80000CE0FFF735FD064605E000BFFFF730FD1F
:102A9000801B6428F0D828688003F7D42078DFF8FA
:102AA000AC8280074FF0000A3ED5A748001D0168A0
:102AB00011F00C0F08D00068C0F3810002280BD180
:102AC000D9F80000400207D42868800716D5E068CE
:102AD000012800D112E033E1E068B8B10120C8F864
:102AE0000000FFF705FD064605E000BFFFF700FD0B
:102AF000801B0228C0D828688007F7D5286821697C
:102B000020F0F80040EAC10028600DE0C8F800A0FD
:102B1000FFF7EEFC064604E0FFF7EAFC801B022804
:102B20001FD828688007F7D42078000722D5864F61
:102B300087486169703771B101210160FFF7D8FCE6
:102B4000064604E0FFF7D4FC801B022809D8386849
:102B50008007F7D50EE0C0F800A0FFF7C9FC0646D5
:102B600005E082E0FFF7C4FC801B02287DD83868AE
:102B70008007F7D42078400768D5DFF8CCB100276C
:102B80000BF13C0BDBF80000C0000BD4DBF80010AD
:102B900041F08051CBF80010DBF80000012700F075
:102BA000805000906B4E3068C00510D4306840F4FF
:102BB00080703060FFF79CFC009005E0FFF798FC08
:102BC0000099401A022850D83068C005F6D55E4EEC
:102BD000A0686C3601280FD00528306810D020F08E
:102BE00001003060306820F004003060A068B8B1A7
:102BF000FFF77EFC00900FE0306840F00100F4E742
:102C000040F004003060F7E7FFF772FC0099411ACA
:102C100041F28830814266D830688007F4D50EE0F2
:102C2000FFF766FC009007E0FFF762FC0099411A8D
:102C300041F28830814256D830688007F4D42FB1F1
:102C4000DBF8001021F08051CBF80010A069C8B368
:102C50003D49091D0968C1F3810102294AD00228B2
:102C6000504607D0C8F8600000E03CE0FFF740FCA9
:102C700004463BE04746C8F86000FFF739FC0646CB
:102C800005E000BFFFF734FC801B02282BD8286822
:102C90008001F7D4D4E907010843A16A2E4A490804
:102CA00002EB0141626A41EA8211084394F82C1058
:102CB00040EA0161C9F8001001203866FFF718FCEE
:102CC000044606E03EE000BFFFF712FC001B0228AE
:102CD00009D828688001F7D534E000BFFFF708FC69
:102CE000001B022802D90320BDE8F88F2868800164
:102CF000F4D427E00128F7D0D9F80000E26900F405
:102D0000800191421CD1226A00F03F01914217D10B
:102D100047F6C071626A0140B1EB821F10D1A26A0E
:102D20004FF0FF3300F4403103EB5202B1EB024F9E
:102D300006D194F82C1000F07060B0EB016F01D058
:102D40000120D1E70020CFE70438024000004742CD
:102D5000800E4742007000400000FFFF00685030C6
:102D600050F8210070470068503040F8212070472B
:102D700010B500680B4641680D480140080CD8703A
:102D8000C1F304245C7001F03F049C70C1F3423134
:102D9000197052B900F0D1FED870587800F0CDFE0D
:102DA0005870987800F0C9FE9870002010BD00009F
:102DB0003FFFFF0010B50B460168896A5960016842
:102DC0000969C1F30E019960006801680D4801406E
:102DD000C1F305401870C1F306245C7001F07F0454
:102DE0009C70890DD97052B900F0A7FE1870587800
:102DF00000F0A3FE5870987800F09FFE98700020B5
:102E000010BD00007F7F7F0010B5040002D0607FFE
:102E100010B106E0012010BD00202077204600F010
:102E200041F8022060772068C168C943C90632D5DD
:102E3000CA214162216853204862204600F092FE78
:102E400020BB20688168164A11408160216888682B
:102E500062681043D4E904231A4310438860216850
:102E6000E068086120680169228941EA0241016144
:102E7000204600F09BFE48B921680A6C22F48022AB
:102E80000A6421680A6CA3691A430A642268FF2154
:102E9000516208B110BD00200121617710BD000012
:102EA000BFFF8FFF1FB50021009101910291039197
:102EB0000068084988420CD102200090C0010390AC
:102EC0006846FFF7EDFB08B1FFF7FFF90249012063
:102ED00008601FBD002800403C0E474270B5044604
:102EE000007F0B46012819D0012626770220607743
:102EF000B2B19878D97840EA01455878197800023B
:102F000040EA413005432168CA20486221685320C5
:102F10004862204600F026FED0B122E0022070BDBB
:102F20005878C10603D500F0EF000A305870D87801
:102F300000F00CFE0204587800F008FE42EA00227D
:102F4000987800F003FE0243187842EA4035DAE749
:102F50000748054020684560204600F027FE00B97C
:102F600066772268FF2151620021217770BD000041
:102F70003FFFFF002DE9F0410446007F0D46012888
:102F800023D04FF0010884F81C800220607720686D
:102F9000002780684FEA4060D2B1002800DBEF7064
:102FA000A878297840EA01466878E978000240EA82
:102FB000815006432168CA20486221685320486234
:102FC000204600F0CFFDB8B12CE00220BDE8F08132
:102FD000002800DBEF70287800F0B8FD0204687864
:102FE00000F0B4FD42EA0022A87800F0AFFD0243F1
:102FF000E87842EA8056DDE70D4806402068066022
:103000002068816821F480218160D5E903010843AB
:1030100021688A6810438860204600F0C7FD08B91F
:1030200084F81D802268FF2151622777CEE70000D7
:103030007F7F7F0070B504460B482168C860FFF7AA
:1030400057FA05464FF47A7607E000BFFFF750FACB
:10305000401BB04201D9032070BD2068C0688006C3
:10306000F4D5002070BD00005F7F010070B5040042
:1030700009D0606A002540B125616561A56294F8B8
:10308000510040B10CE0012070BD6068B0F5827F56
:10309000F4D0E561F2E784F85050204600F044F89F
:1030A000022084F851002068016821F0400101608D
:1030B000A088218900F4827001F404410843A189A9
:1030C00001F400610843217C01F002010843217DE5
:1030D00001F001010843218B01F400710843217FB5
:1030E00001F03801084394F8201001F080010843F2
:1030F000218D01F40051084321680860A069042172
:1031000001EA104094F8241001F0100108432168EE
:1031100048602068C16921F40061C16165650120D2
:1031200084F85100002070BD10B586B0044614210B
:103130006846FDF784FC13492068884220D1124874
:103140000021026842F480520260006800F480505E
:1031500005900D481438026842F0020202600068CF
:1031600000F002000590382000900220CDE9010116
:10317000032003900520049069460448FFF7BAF83D
:1031800006B010BD00300140443802400004024047
:103190002DE9F84F044690F851001D4616460F469B
:1031A000012838D1002F77D0002E75D060684FF0FD
:1031B0000408B0F5827F01D1A06810B3FFF798F939
:1031C000824694F85000012825D04FF0010984F878
:1031D000509084F851804FF00008C4F85480A763E1
:1031E000A687E687C4F83080A4F83480A4F8368037
:1031F000C4F84080C4F84480A068B0F5004F0CD0FB
:1032000015E084F85180009313460A46204600F0EA
:103210001CF9BDE8F88F0220FBE72068016821F067
:10322000400101602068016821F48041016020684C
:103230000168490603D4016841F040010160E0687B
:10324000C0B134E020688168C90709D0007BA16B58
:103250000870A06B401CA063E08F401EE08709E06F
:10326000FFF746F9A0EB0A00A84202D3681C01D080
:1032700032E085B3E08F0028E4D11BE0206881684C
:10328000C9070AD0C068A16B0880A06B801CA0632E
:10329000E08F401EE0870AE01BE0FFF729F9A0EB72
:1032A0000A00A84202D3681C01D015E09DB1E08F4E
:1032B0000028E3D152462946204600F08CFC08B194
:1032C0002020606584F8519084F85080606D00285B
:1032D0009FD001209DE7FFE784F8519084F850804B
:1032E000032096E72DE9F84F984616468A4604468D
:1032F000FFF7FEF8814694F8510001281ED1BAF17B
:10330000000F73D0002E71D094F85000012815D012
:10331000012784F85070032084F85100002565656A
:10332000C4F830A0A686E686A563A587E587656410
:103330002564A068B0F5004F03D00CE00220BDE882
:10334000F88F2068016821F0400101602068016861
:1033500041F48041016020680168490603D4016896
:1033600041F040010160E068B0F5006F606803D093
:1033700048B3012E27D047E008B1012E1FD1206BA2
:1033800021680088C86006E020688168890709D53F
:10339000216B0988C160206B801C2063E08E401E79
:1033A000E0860CE0FFF7A4F8A0EB0901414503D348
:1033B000B8F1FF3F03D035E0B8F1000F32D0E08E16
:1033C0000028E1D123E0206B21680078087306E033
:1033D0002068816889070AD5216B09780173206B01
:1033E000401C2063E08E401EE0860DE02BE0FFF7DE
:1033F0007FF8A0EB0901414503D3B8F1FF3F03D0AB
:1034000010E0B8F1000F0DD0E08E0028E0D14A4660
:103410004146204600F00EFC08B120206065A068FF
:1034200030B109E084F8517084F85050032086E7E9
:103430002068C1688068009084F8517004F8505F7B
:1034400060680028F3D0012079E72DE9FF4F81B0B3
:103450001D46934604464FF001090E9EFFF748F8BB
:10346000074694F851006168012806D0B1F5827FC3
:103470003CD1A168C9BB042838D10298002871D07A
:10348000BBF1000FFBD0002DF9D094F850000128BB
:103490002CD04FF0010A84F850A094F85100042871
:1034A00002D0052084F851004FF00008C4F8548081
:1034B000C4F838B0E587A58702992163E586A5861B
:1034C000C4F84080C4F8448020680168490603D4E9
:1034D000016841F040010160E068B0F5006F60688C
:1034E00008D0F0B3012D49D081E0FFE7022005B0FC
:1034F000BDE8F08F08B1012D39D1206B216800881B
:10350000C860206B801C2063E08E401EE0862EE0A9
:103510002068816889070FD5E18E69B1B9F1010F83
:103520000AD1216B0988C160206B801C2063E08E6A
:10353000401EE0864FF0000920688168C9070CD062
:10354000E18F51B1C068A16B0880A06B801CA063A3
:10355000E08F401EE0874FF00109FEF7C9FFC01B56
:1035600001E00BE067E0B04201D3701C50D1E08E67
:103570000028CDD1E08F0028CAD13EE0206B216821
:1035800000780873206B401C2063E08E401EE086AC
:103590002DE02068816889070FD5E18E69B1B9F106
:1035A000010F0AD1216B09780173206B401C206345
:1035B000E08E401EE0864FF0000920688168C90750
:1035C0000CD0E18F51B1C068A16B0870A06B401C9A
:1035D000A063E08F401EE0874FF00109FEF788FFEF
:1035E000C01BB04202D3701C01D011E086B1E08E46
:1035F0000028CED1E08F0028CBD13A463146204674
:1036000000F018FB50B12020606584F8508012E073
:1036100084F851A084F85080032068E7A06818B9A6
:103620002068C1688068009084F851A084F85080B8
:10363000606D0028F1D0012059E77047704710B540
:10364000040003D094F83D0010B107E0012010BD44
:10365000002084F83C00204600F01EF8022084F888
:103660003D00211D206800F0D5FB012084F84600B4
:1036700084F83E0084F83F0084F8400084F841005C
:1036800084F8420084F8430084F8440084F845003C
:1036900084F83D00002010BD7047000090F83D10F8
:1036A000012901D001207047022180F83D100168F6
:1036B000CA6842F00102CA6000681149884214D009
:1036C000B0F1804F11D00F4988420ED00E49884288
:1036D0000BD00E49884208D00D49884205D00D49CB
:1036E000884202D00C49884204D1816801F0070168
:1036F000062903D0016841F00101016000207047F4
:10370000000001400004004000080040000C0040A0
:1037100000040140004001400018004070472DE9BE
:10372000F04104460068C66805694FF00007A90724
:1037300013D5B10711D5F91E01610120207720684A
:1037400080698007204602D0FFF7E8FF04E000F020
:103750007EF8204600F07CF82777680716D57007BA
:1037600014D521686FF004000861022020772068DA
:10377000806910F4407F204602D0FFF7CFFF04E0BD
:1037800000F065F8204600F063F82777280715D584
:10379000300713D521686FF00800086104202077F6
:1037A0002068C0698007204602D0FFF7B7FF04E019
:1037B00000F04DF8204600F04BF82777E80616D5C4
:1037C000F00614D521686FF01000086108202077FA
:1037D0002068C06910F4407F204602D0FFF79EFFAA
:1037E00004E000F034F8204600F032F82777E807CC
:1037F00008D0F00706D021686FF00100086120466C
:1038000000F028F8280608D5300606D521686FF0A4
:10381000800008612046FFF710FF680608D5700693
:1038200006D521686FF040000861204600F01CF8C2
:10383000A8060AD5B00608D521686FF020000861F7
:103840002046BDE8F041FFF7F9BEBDE8F0817047C2
:103850007047000000680349884201D1FEF74EBE60
:103860007047000000100040704770B5040004D09D
:1038700094F84100002510B106E0012070BD84F8E5
:103880004050204600F024F8242084F841002068AD
:10389000C16821F40051C160204600F023FB20687C
:1038A000016921F4904101612068416921F02A01F8
:1038B00041612068C16841F40051C1606564202005
:1038C00084F8410084F842006563002070BD000068
:1038D00010B586B0044614216846FDF7B0F81449C7
:1038E0002068884221D113480021026842F010026A
:1038F0000260006800F0100005900E48143802685D
:1039000042F001020260006800F0010005904FF4EF
:10391000C06000900220CDE9010103200390072040
:10392000049069460448FEF7E5FC06B010BD0000AF
:10393000001001404438024000000240FEE7000051
:103940002DE9F04186B014216846FDF778F8274844
:103950000025016841F004010160016801F00401E3
:103960000591016841F020010160016801F020012A
:103970000591016841F080010160016801F080015A
:103980000591016841F002010160016801F0020146
:103990000591016841F0010101600068144F00F0D9
:1039A00001004FF4C0640590012221463846FEF71D
:1039B00099FD0122DFF83C80960331464046FEF730
:1039C00091FD00940124CDE90145694638460394F0
:1039D000FEF790FC0320CDE90250CDE90064694672
:1039E0004046FEF787FC06B0BDE8F0813038024063
:1039F000001402400004024030B587B0142168462C
:103A0000FDF71DF800240594FEF73EFE26480168E8
:103A100041F0805101600068244900F08050069018
:103A20002348C0E900147F218160FF21C0E903140D
:103A300044618461FFF7E8F908B1FEF746FC002114
:103A40001B48FFF78BF945F25105A8422AD00920FF
:103A50008DF8000014208DF801008DF802400394C9
:103A60000022694612480494FFF784FA08B1FEF771
:103A70002CFC03208DF8140007208DF81500012080
:103A80008DF8160019208DF81700002205A90848A6
:103A9000FFF724FA08B1FEF718FC2A460021044873
:103AA000FFF761F907B030BD403802400028004000
:103AB00074010020104810B50E4901604FF4827166
:103AC0004160002102228160C0E9031201224261AB
:103AD000520282610822C0E90721416281620A2103
:103AE000C162FFF7C3FA002803D0BDE81040FEF71B
:103AF000ECBB10BD00300140940100200C4810B513
:103B00000A4901604FF4E1314160002181600C22DB
:103B1000C160C0E904128161C161FFF7A6FE0028FF
:103B200003D0BDE81040FEF7D0BB10BD001001402F
:103B3000EC010020FEE7FEE77047010901EB81017F
:103B400000F00F0000EB4100C0B27047002102E01E
:103B50000A38C0B2491C0A28FAD2090740EA1160A3
:103B6000704700002DE9F041044600680025C16857
:103B7000490618D4C16841F08001C160FEF7B8FC65
:103B800006464FF47A78042707E000BFFEF7B0FC42
:103B9000801B404501D9677701252068C068400631
:103BA00001D4002DF2D02846BDE8F08170B504465E
:103BB00000680025C16821F08001C160206880682C
:103BC000800606D42046FFF735FA10B1042060774E
:103BD0000125284670BDF8B5044640684FF482734D
:103BE000984221D1A0684FF48065B0F5004F01D014
:103BF000A8420AD12068066826F040060660606880
:103C0000984211D1A068A8420ED000920B46002223
:103C10008021204600F044F8002804D0606D40F078
:103C2000200060650320F8BD00920B4600220121B0
:103C3000EFE70000F8B515460E460B460092044625
:103C40000122022100F02CF8A0B9134813490068A2
:103C5000B0FBF1F04FF47A71484300906068B0F522
:103C6000827F0DD13346002280212046009500F04E
:103C700017F870B1606D40F0200060650320F8BD5A
:103C8000009830B1401E009020688068C043000654
:103C9000F6D50020F8BD00001400002000366E01AB
:103CA0002DE9F8431E46914688460446089DFEF7D6
:103CB0001FFC401B351AFEF71BFC07462648006810
:103CC000C0F3CB3068430AE0701C09D0FEF710FC4B
:103CD000C01BA8420FD275B10098B8B3401E009027
:103CE0002068816838EA010033D000214945EBD1D2
:103CF0000020BDE8F8832068416821F0E0014160C0
:103D00006068B0F5827F0BD1A068B0F5004F02D09B
:103D1000B0F5806F04D12068016821F04001016096
:103D2000A06AB0F5005F09D12068016821F4005154
:103D300001602068016841F400510160012084F8AD
:103D40005100002084F850000320D2E7FFE700254F
:103D5000C6E70121CAE70000140000207047704741
:103D600030B593B030216846FCF769FE14210CA8E9
:103D7000FCF765FE1E480025016841F08051016096
:103D8000006800F0805011901A48016841F48041A9
:103D900001600068022400F480401190052000902A
:103DA0004FF480300190012002908005CDE906405B
:103DB00008AA0420A82182E813000B906846FEF7A9
:103DC00017FE08B172B6FEE70CA90F2081E831009A
:103DD0004FF4A0500F904FF48050109005210CA884
:103DE000FEF7FCFC002801D072B6FEE713B030BD30
:103DF00040380240007000400248016841F4700100
:103E00000160704788ED00E00148FFF788BC0000C2
:103E100034020020F0B50268274B284D284E294F68
:103E2000294C4FF0804C984209D0604507D0A842F9
:103E300005D0B04203D0B84201D0A04204D122F054
:103E4000700E4A6842EA0E0298421BD0604519D0B3
:103E5000A84217D0B04215D0B84213D0A04211D01A
:103E60001A4DA8420ED01A4DA8420BD0194DA842A7
:103E700008D0194DA84205D0184DA84202D0184DBF
:103E8000A84203D122F44075CA682A434D6922F042
:103E900080022A438D68C5620D688562984201D010
:103EA000A04201D109690163016841F00401016088
:103EB000012141610260F0BD0000014000040040AA
:103EC00000080040000C0040000401400040014098
:103ED000004401400048014000180040001C004020
:103EE0000020004070B5044600680169E26821F4D2
:103EF0004051114301612169A068E2690843616989
:103F0000114308432168CA6849F20C639A4302438B
:103F1000CA6020684169A26921F44071114341617E
:103F200031492068884202D03049884202D1FEF7E8
:103F30001FFD01E0FEF70CFDE26900231921642555
:103F40003226B2F5004F626828D0A0FB0101930F22
:103F50009200FCF700FA0146B0FBF5F06FF0180292
:103F6000504301EB800006EB0010B0FBF5F000F0D1
:103F7000F002B1FBF5F002EB0012B1FBF5F06FF0CF
:103F80001803584301EB800006EB0010B0FBF5F07E
:103F900000F00F0021681044886070BDA0FB010193
:103FA00092185B41FCF7D7F90146B0FBF5F002012E
:103FB000B1FBF5F06FF01803584301EB800006EBFE
:103FC000C000B0FBF5F000F0F80002EB4002B1FBDE
:103FD000F5F0584301EB800006EBC000B0FBF5F0B4
:103FE00000F00700D6E70000001001400014014077
:103FF00038B51D46009014466846FCF7B3FD017DB8
:104000006439E170017C491C6170017BA170816998
:1040100001B907212170017A29700179697000784E
:10402000A87038BDFEE703B401984100009850EA3B
:10403000C12018BF04204A0D18BF40F0010040F213
:10404000FF72B2EB515F08BF40F00200012808BFC9
:10405000052002B070470907090E002804DB00F1B3
:10406000E02080F80014704700F00F0000F1E0201D
:1040700080F8141D70472DE9F04F89B0154683462E
:104080000C4600268946EA461BE004F12008A845B4
:1040900001D2202700E02F1B3B466A4621465846A6
:1040A00000F02EF80020514608E0FF2E04D00A5CF4
:1040B000FF2A01D104EB00090E5C401CB842F4D386
:1040C0004446AC42E1D3FF2E03D0284609B0BDE8F8
:1040D000F08F4846FAE7417E09B1002070478068BA
:1040E000001D704710B5437E00240BB1012010BDA8
:1040F000806801F047FB002800DA0124204610BD4B
:1041000070B5457E00240DB1022070BD806801F0BD
:1041100035FC002800DA0224204670BD70B5457ECB
:1041200000240DB1032070BD806801F0DFFC002881
:1041300000DA0324204670BD70B5491E00220B46EC
:10414000802409E000EBD1052E7801F0070524FA60
:1041500005F52E4202D0521C491EF3D2981A70BDAA
:1041600070B504000498154606D089B1002D1BD007
:10417000227E002A75D123E048A0FCF77DF94AA0F1
:10418000FCF77AF9494A4AA14AA0FCF775F9FEE71B
:1041900042A0FCF771F944A0FCF76EF9434A4DA127
:1041A00044A0FCF769F9FEE73CA0FCF765F93EA0E6
:1041B000FCF762F93D4A49A13EA0FCF75DF9FEE734
:1041C000216023716062607E00282DD101F05CFACD
:1041D000284601F085FBA060B0B11C3001F088F9E1
:1041E000056AE06800281BD0B0FBF5F105FB110063
:1041F000002816D029A0FCF73FF92BA0FCF73CF9CA
:104200002A4638A0E16830E024A0FCF735F926A062
:10421000FCF732F9294643A0FCF72EF9042070BDC3
:10422000E560A068806B2061E068411E08420BD009
:104230001AA0FCF721F91CA0FCF71EF91B4A42A1A9
:104240001CA0FCF719F9FEE72169B1FBF0F200FBB5
:1042500012126AB111A0FCF70FF913A0FCF70CF9C8
:1042600000E018E0D4E9032142A0FCF705F910E0D2
:10427000B1FBF0F002280ED208A0FCF7FDF80AA06E
:10428000FCF7FAF8D4E90310B0FBF1F14948FCF768
:10429000F3F8082070BD002070BD00005B466C6123
:1042A000736844425D00000020000000D8B500089B
:1042B000646200002825732920686173206173738C
:1042C000657274206661696C656420617420257371
:1042D0002E0A00006E616D65000000007061746858
:1042E000000000004572726F723A206462207365AC
:1042F00063746F722073697A652028257529204DB3
:1043000055535420616C69676E2077697468206228
:104310006C6F636B2073697A652028257A75292E66
:104320000A0000004572726F723A2050617274691F
:1043300074696F6E2028257329206E6F7420666F54
:10434000756E642E0A0000002864622D3E7365635A
:104350005F73697A652026202864622D3E73656349
:104360005F73697A65202D20312929203D3D203059
:10437000000000004572726F723A20646220746F10
:1043800074616C2073697A652028257529204D5544
:10439000535420616C69676E207769746820736577
:1043A00063746F722073697A6520282575292E0A37
:1043B00000000000D4C4000838B50D00044616D033
:1043C000A07E002812D118A0FCF756F819A0FCF71F
:1043D00053F82046FFF77FFE0346009520792268B8
:1043E00000281FD014A116A0FCF746F838BD1F4CBA
:1043F0000125057620780028F8D10BA0FCF73CF8C1
:104400000CA0FCF739F81AA11BA0FCF735F806A0A0
:10441000FCF732F807A0FCF72FF82048FCF72CF83F
:10442000257038BD1EA1DEE75B466C6173684442AF
:104430005D000000200000005453444200000000D2
:104440004572726F723A20257320282573402573B8
:104450002920697320696E697469616C697A6520C5
:104460006661696C20282564292E0A005C01002001
:10447000322E312E31000000466C617368444220B8
:1044800056257320697320696E697469616C697A55
:104490006520737563636573732E0A0020C5000879
:1044A0004B56444200000000F0B5A1B0002604467F
:1044B00001201F9684F8310023483546CDE900409D
:1044C0001FAB324619A90296204605F049F9A07E95
:1044D00020B11F9810B1022021B0F0BDD4E9031023
:1044E000B0FBF1F01F99884210D118A0FBF7C4FF70
:1044F0002046FFF7F0FD024618A02168FBF7BCFF3D
:1045000019A0FBF7B9FF204601F082FE234823469D
:10451000CDE90050002219A91846029505F020F9AE
:104520001F4F2246002303A91046009703F08EF97F
:1045300094F8300018B1204602F081FEF1E784F8CB
:1045400031503046C8E70000054D00085B466C61FD
:10455000736844425D5B6B765D0000005B25735DB4
:104560005B25735D20000000416C6C2073656374F3
:104570006F722068656164657220697320696E637B
:104580006F72726563742E20536574206974207491
:104590006F2064656661756C742E0A009F4A00087E
:1045A000BD4A000870B51C4615000AD0E21DD308AC
:1045B0002A46FFF7A5FD21462846BDE87040FFF7D3
:1045C000BBBD06A0FBF758FF09A0FBF755FF094A42
:1045D00009A10DA0FBF750FFFEE700005B466C61F0
:1045E000736844425D5B7574696C735D0000000024
:1045F000200000009EBA00087374617475735F74C4
:1046000061626C65000000002825732920686173D1
:1046100020617373657274206661696C65642061E2
:10462000742025732E0A000070B51546C91D064674
:104630004FF0FF34C908FF22FCF7F9F945B1681EB5
:10464000C40805F00702305DFF21D1400840305515
:10465000204670BDF8B51446DDE906260D4607462E
:104660009A420BD314A0FBF707FF18A0FBF704FF37
:10467000174A18A11EA0FBF7FFFEFEE76CB1194612
:104680002046FFF7D1FF411C13D02218291801231F
:1046900038460096FFF742FDF8BD07A0FBF7ECFE99
:1046A0000AA0FBF7E9FE0A4A19A111A0FBF7E4FEF4
:1046B000FEE70020F8BD00005B466C617368444271
:1046C0005D5B7574696C735D000000002000000084
:1046D0008CBA00087374617475735F696E64657871
:1046E000203C207374617475735F6E756D000000FB
:1046F00028257329206861732061737365727420A3
:104700006661696C65642061742025732E0A00005F
:104710007374617475735F7461626C65000000008E
:1047200030380A2801D201207047002070477047B6
:104730002DE9FE4F0E465FEA00084E491D4617461A
:1047400008F120094FF0010A0ED098F83400002833
:1047500013D0D8F81000F119814217D946A005F0FE
:104760003FFC0520BDE8FE8F00914DA34EA240F214
:10477000CE2155A005F012FCFEE7009158A34AA2F5
:1047800040F2CF2150A005F009FCFEE7D9F808104F
:10479000484601B18847F0070CD02846314601232E
:1047A00000906D1C761C1A46404603F05BFD040029
:1047B00054D17F1E0121404605F06EF904004DD111
:1047C000AD208DF804000DF1040B34E0BAF1000FB8
:1047D00013D05C46621C3146404603F08BFB98F8D0
:1047E000350008B1052200E004222878A054A11861
:1047F000687848704FF0000A06E028788DF80500C8
:10480000687801228DF80600002000900023D9F876
:104810000440484601A9921CA047040003D034A0DC
:1048200005F0DEFB1AE0404606F054FA040015D10C
:10483000AD1CB61CBF1E022FC8D20021404605F099
:104840002BF904000AD1012F0CD101231A4631465D
:104850004046009503F006FD040003D000214046C9
:1048600005F01AF9D9F80C10484601B188472046DE
:1048700078E70000E1B200084572726F723A204694
:104880006C6173682061646472657373206973205E
:104890006F7574206F6620626F756E642E00000065
:1048A000666C6173680000002825732920686173B5
:1048B00020617373657274206661696C6564206140
:1048C000742025732E0000002E2E5C4253505C5342
:1048D0004655445C7372635C736675642E630000B6
:1048E000666C6173682D3E696E69745F6F6B000062
:1048F0004572726F723A20466C61736820777269F4
:1049000074652053504920636F6D6D756E696361E6
:104910007465206572726F722E0000002DE9FC41F3
:1049200015460E4607461C4601A80121FF22FCF74A
:104930007EF80020009023462A4631463846FFF78D
:10494000EDFBBDE8FC8100002DE9F0418AB00025B7
:1049500004464FF0FF3007950895CDE9030403A8FE
:10496000CDE905208846234808A9CDE9001007AB0A
:104970002A4602954146204604F0F2FE1E4F089852
:10498000012640B1CDE9005704AB02224146204642
:10499000029604F0E5FE0798002827D00399491CE9
:1049A00024D1012802D894F8300048B1CDE900574D
:1049B00004AB012241462046029604F0D1FE15E0E8
:1049C0000EA0FBF759FD2046FFF785FB02460FA01E
:1049D0002168FBF751FD40F2A1320FA116A0FBF7B1
:1049E0004BFD18A0FBF748FD84F8306003980AB02F
:1049F000BDE8F0812D980008714A00085B466C61A3
:104A0000736844425D5B6B765D0000005B25735DFF
:104A10005B25735D200000002E2E5C4253505C46E7
:104A20004C41534844425C7372635C6664625F6BE2
:104A30007664622E630000002825733A25642920DD
:104A40000000000054726967676572206120474367
:104A500020636865636B20616674657220616C6CAD
:104A60006F63204B56206661696C65642E0A0000F6
:104A700002786AB14A6803695832934208D9827849
:104A8000012A07D0022A03D10A6892F830200AB11D
:104A9000002070478968406908600120704710B5A0
:104AA00002460846117839B19178032904D10121D1
:104AB00080F8301002F0C3FB002010BDFEB50D469B
:104AC0000446417800F11006007809B1032806D0A9
:104AD000012844D0002954D002284CD051E02AA00B
:104AE000FBF7CAFC2846FFF7F6FA02462AA0296817
:104AF000FBF7C2FCA17832462A48FBF7BDFC2146F1
:104B0000284603F047FA00281FA014D0FBF7B4FC96
:104B10002846FFF7E0FA02461FA02968FBF7ACFC25
:104B200040F25D6220A128A0FBF7A6FC2948A168FD
:104B3000FBF7A2FC1DE0FBF79FFC2846FFF7CBFA32
:104B4000024615A02968FBF797FC40F25B6216A1AC
:104B50001DA0FBF791FC20A0FBF78EFC11E00121CA
:104B60000520CDE90001062302AA2846216DFFF7A2
:104B700071FD0120FEBDA27831462846236D05F067
:104B800009FF0020FEBD00005B466C617368444273
:104B90005D5B6B765D0000005B25735D5B25735D7F
:104BA00020000000F8C500082E2E5C4253505C46E1
:104BB0004C41534844425C7372635C6664625F6B51
:104BC0007664622E630000002825733A256429204C
:104BD0000000000088C600085265636F7665727930
:104BE00020746865204B5620737563636573736624
:104BF000756C2E0A000000002DE9F0478846074634
:104C00000025DFF874A033E007EB851404F11C00E5
:104C1000814600F06DFC06001AD0606BF169884295
:104C200023DB9022154916A0FBF726FC07EB851025
:104C3000F369426B211D1948FBF71EFC18A0FBF716
:104C40001BFC0D4900200C398860401EBDE8F08730
:104C50008A220A4914A0FBF70FFC494617A0FBF76C
:104C60000BFC10A0FBF708FC01E04AF825606D1C66
:104C70004545C9D30020E9E770000020ACB4000826
:104C80001B5B33313B32326D5B452F46414C5D201F
:104C90002825733A2564292000000000D8C10008A7
:104CA0001B5B306D0A0000005B442F46414C5D20C9
:104CB0002825733A25642920000000005761726E90
:104CC000696E673A20446F204E4F5420666F756EB0
:104CD000642074686520666C617368206465766919
:104CE0006365282573292E001378012B06D143789C
:104CF000032B01D0022B01D143680B604078107068
:104D00000020704770B505460078002822D1086859
:104D10001446401C0860907E08B1012070BD0EA0B2
:104D2000FBF7AAFB2046FFF7D6F902460EA0216842
:104D3000FBF7A2FB40F23C620EA116A0FBF79CFB26
:104D400017486968FBF798FB4FF0FF322046696807
:104D500002F07AF9002070BD5B466C6173684442D2
:104D60005D5B6B765D0000005B25735D5B25735DAD
:104D7000200000002E2E5C4253505C464C415348AC
:104D800044425C7372635C6664625F6B7664622E3D
:104D9000630000002825733A2564292000000000E4
:104DA00068C500082DE9F041064600780D680C46FC
:104DB000012728B17078022812D0012825D035E0CB
:104DC0001BA0FBF759FB2846FFF785F902461CA0FC
:104DD0002968FBF751FB1DA07168FBF74DFB10E044
:104DE000E86A401C1CD012A0FBF746FB2846FFF7E0
:104DF00072F9024612A02968FBF73EFB1E48FBF73A
:104E00003BFB27710120BDE8F081A068401CA06039
:104E10007068E0608868012808D1E86A401C05D104
:104E20003822314605F12800FBF7CFFD0020EAE7E4
:104E30005B466C61736844425D5B74736C5D00003B
:104E40005B25735D5B25735D200000005365637413
:104E50006F722028307825303858292068656164C1
:104E6000657220696E666F20697320696E636F7268
:104E7000726563742E0A000088C800082DE9FF4F90
:104E800089B0002605468DF8206093468946169F16
:104E900010464C69FBF7EAFC402812D96AA0FBF7E0
:104EA000EBFA2846FFF717F902466BA02968FBF7D3
:104EB000E3FA40216BA0FBF7DFFA05200DB0BDE857
:104EC000F08FFF22182102A8FBF7B1FD7048039074
:104ED0005846FBF7CBFCC0B28DF8180038441830A8
:104EE00007970490E968103988420FD956A0FBF75C
:104EF000C3FA2846FFF7EFF8024657A02968FBF7E8
:104F0000BBFA64A0FBF7B8FA0720D7E7601C07D10B
:104F100049462846049A03F01FF90446401C7DD0F8
:104F200008AB49462846049A05F089FD5FEA000867
:104F300075D1042206A93046059600F0C7FF042269
:104F400007A9059000F0C2FF05909DF8182059466A
:104F500000F0BCFF0590079A0C9900F0B7FF059090
:104F60004FF0010ACDE900A602AF06233A462146DA
:104F70002846FFF76FFB5FEA000807D114233A1DAC
:104F8000211D28460096FFF7C9F88046B8F1000FAA
:104F900057D104F118019DF818305A460E4628469C
:104FA000FFF7BCFC80469DF8200048B99DF818002A
:104FB0000799084482192846D9F8041005F073FEB1
:104FC0009DF8182023465946284605F0E3FCB8F121
:104FD000000F36D19DF81800079B811928460C9ABE
:104FE000FFF79CFC5FEA00082BD10220CDE9000A04
:104FF0005646062302AA21462846FFF72BFB5FEA06
:1050000000081ED19DF8200048B10FA0FBF734FA2C
:105010002846FFF760F802460FA001E00FE010E01D
:105020002968FBF729FA4FF4A06222A129A0FBF717
:1050300023FA2BA0FBF720FA85F8306001E04FF04F
:10504000070840463AE700005B466C6173684442DB
:105050005D5B6B765D0000005B25735D5B25735DBA
:10506000200000004572726F723A20546865204B30
:1050700056206E616D65206C656E6774682069737B
:10508000206D6F7265207468616E2025640A0000CF
:105090004B5630304572726F723A20546865204B1F
:1050A000562073697A6520697320746F6F20626976
:1050B000670A00002E2E5C4253505C464C41534818
:1050C00044425C7372635C6664625F6B7664622EFA
:1050D000630000002825733A2564292000000000A1
:1050E0005472696767657220612047432063686571
:1050F000636B2061667465722063726561746564B8
:10510000204B562E0A0000002DE9F0479AB08A463F
:1051100005461E461446582102A8FBF790FC34B9F8
:1051200002AA5146284601F02FFEA0B102AC012789
:105130004FF00008002E27D00420CDE900070623F9
:1051400018AA2846216DFFF785FA95F8A41006469F
:10515000314326D038E031A0FBF78EF92846FEF720
:10516000BAFF024631A02968FBF786F940F2BB324C
:1051700031A139A0FBF780F951463AA0FBF77CF941
:1051800005201AB0BDE8F0870321CDE900180623F9
:1051900018AA2846216DFFF75DFA064685F8A47027
:1051A00014E0BAF100004FF0FF3905D0FBF75EFBC9
:1051B00002464B46514604E034B1A2784B4604F116
:1051C0001001284605F0E6FB85F8A480206DE9680B
:1051D000B0FBF1F04843401C8146EEB90146042380
:1051E00018AA2846FFF7DEF9012815D14FF002086A
:1051F000CDE90087042318AA49462846FFF72AFA72
:105200000646216DE868B1FBF0F14143284602F003
:1052100057F908B180F802803046B2E75B466C610E
:10522000736844425D5B6B765D0000005B25735DD7
:105230005B25735D200000002E2E5C4253505C46BF
:105240004C41534844425C7372635C6664625F6BBA
:105250007664622E630000002825733A25642920B5
:10526000000000004E6F7420666F756E6420272565
:10527000732720696E204B562E0A0000F0B50446B5
:1052800000780E689FB00D4600287CD0A0780228D8
:1052900001D0032877D101210320CDE90001616805
:1052A00004231EAA3046491CFFF7D4F9606806AFF4
:1052B0001030169002A9304603F034FD9DF8090025
:1052C00028B19DF80800022817D0032815D034A073
:1052D000FBF7D2F83046FEF7FEFE024634A03168F6
:1052E000FBF7CAF840F26A4234A13CA0FBF7C4F8CD
:1052F0009DF80A103A463CA013E002A9304602F09D
:1053000049FE80B126A0FBF7B7F83046FEF7E3FE72
:10531000024627A03168FBF7AFF89DF80A103A461D
:105320003EA0FBF7A9F802AA2146304602F06CF82D
:105330001690401CBED1421E3046616801F084FECA
:10534000AF686068A86000222146304602F087F806
:10535000706113A0FBF790F83046FEF7BCFE0246E2
:1053600013A03168FBF788F840F2724213A11BA02A
:10537000FBF782F834A06168FBF77EF8012318AAD6
:105380003946304600E009E003F0C0FD30B91C9812
:105390006968884202D901201FB0F0BD0020FBE7F8
:1053A0005B466C61736844425D5B6B765D00000038
:1053B0005B25735D5B25735D200000002E2E5C4233
:1053C00053505C464C41534844425C7372635C6684
:1053D00064625F6B7664622E630000002825733A76
:1053E00025642920000000004B562028252E2A7312
:1053F000292069732067617262616765204E4F548E
:10540000206E656564206D6F76652C20636F6C6C13
:105410006563742069742E0A000000004572726F83
:10542000723A204D6F76656420746865204B562073
:1054300028252E2A732920666F7220474320666133
:10544000696C65642E0A0000436F6C6C65637420A0
:105450006120736563746F7220403078253038584E
:105460000A00000010B50C4601460F48006868B1FC
:1054700090F8342082B10C4A121D926911442246E0
:1054800004F092FC70B14FF0FF3010BD074A08A144
:105490000AA0FAF7F1FFFEE7044A10A107A0FAF705
:1054A000EBFFFEE7204610BD2800002024B40008D2
:1054B000736675645F6465760000000028257329B3
:1054C0002068617320617373657274206661696C12
:1054D00065642061742025732E0A0000736675646C
:1054E0005F6465762D3E696E69745F6F6B000000C6
:1054F00010B50E49097841B170B10D4C18222168E0
:10550000FBF7D3F978B1002010BD094A09A1133285
:105510000AA0FAF7B1FFFEE7054A10A1133207A06F
:10552000FAF7AAFFFEE7206810BD00002500002062
:10553000F0B30008696E69745F6F6B0028257329EA
:105540002068617320617373657274206661696C91
:1055500065642061742025732E0A00006E616D65FC
:10556000000000003EB5224D287808B100203EBD65
:10557000204C2068806A28B32068C06A002828D0A0
:105580002068006B00282BD02068406A00B180475B
:1055900018492F22091D18A0FAF76EFF206822680B
:1055A00021688069126AC9698DE8070018221146CE
:1055B00016482368FAF760FF15A0FAF75DFF01208F
:1055C0002870D3E70B4A13A1121D19A0FAF754FF54
:1055D000FEE7084A1EA1121D15A0FAF74DFFFEE7CF
:1055E000044A22A1121D12A0FAF746FFFEE70000AE
:1055F00025000020F0B300085B442F46414C5D209D
:105600002825733A25642920000000007CC1000889
:105610000A0000006465766963655F7461626C65A9
:105620005B695D2D3E6F70732E72656164000000D2
:105630002825732920686173206173736572742053
:105640006661696C65642061742025732E0A000010
:105650006465766963655F7461626C655B695D2D25
:105660003E6F70732E7772697465000064657669A9
:1056700063655F7461626C655B695D2D3E6F70731D
:105680002E6572617365000070B5FFF76BFF114DF9
:1056900004000ED400F05CF9041E0ADD287800280E
:1056A00015D1012028700CA0FAF7E6FE0FA111A079
:1056B00008E00020287030221B491CA0FAF7DCFE0D
:1056C0000AA121A0FAF7D8FE2CA0FAF7D5FE2046B1
:1056D00070BD0000240000201B5B33323B32326D72
:1056E0005B492F46414C5D2000000000302E352ED6
:1056F00039390000466C61736820416273747261CD
:105700006374696F6E204C61796572202856257329
:105710002920696E697469616C697A6520737563A3
:10572000636573732E000000E7B300081B5B333121
:105730003B32326D5B452F46414C5D202825733A44
:105740002564292000000000466C617368204162D6
:10575000737472616374696F6E204C617965722035
:10576000285625732920696E697469616C697A65A8
:10577000206661696C65642E000000001B5B306D63
:105780000A0000002DE9F04190460E46040010D0BA
:10579000A16B06EB08004FF0FF3788420FD94FF49A
:1057A000F7721E491EA0FAF767FE24A0FAF764FEFE
:1057B0002EE01A4A2FA131A0FAF75EFEFEE720463E
:1057C00001F082FB04F11C05B8B1616B036B8A190F
:1057D00041461046984704000CD54FF4FE720F491D
:1057E0000FA0FAF749FE29462CA0FAF745FE39A08A
:1057F000FAF742FE2046BDE8F08140F2F512074973
:1058000007A0FAF739FE221D29463448FAF734FE7C
:1058100030A0FAF731FE3846EDE7000051B5000838
:105820001B5B33313B32326D5B452F46414C5D2073
:105830002825733A25642920000000005061727405
:105840006974696F6E206572617365206572726F2D
:10585000722120506172746974696F6E2061646492
:1058600072657373206F7574206F6620626F756E3A
:10587000642E0000706172740000000028257329F6
:105880002068617320617373657274206661696C4E
:1058900065642061742025732E0A000050617274C3
:1058A0006974696F6E206572617365206572726FCD
:1058B000722120466C61736820646576696365288F
:1058C000257329206572617365206572726F72217C
:1058D000000000001B5B306D0A000000C0C2000821
:1058E00070B50F4D0646287808B100240EE00D4A29
:1058F0000DA10FA0FAF7C0FDFEE7686800EB841168
:105900003046091DFBF7EEF828B1641CA8688442F4
:10591000F3D3002070BD686800EB841070BD0000F8
:1059200064000020C8B40008696E69745F6F6B0082
:105930002825732920686173206173736572742050
:105940006661696C65642061742025732E0A00000D
:1059500010B5084C207808B1A06810BD0648022197
:10596000C4E90101FFF748F908B90120207000F0EF
:1059700077F9F1E7640000202CB400082DE9F04726
:10598000984691460E46040013D0B9F1000F16D088
:10599000A16B06EB08004FF0FF37884215D94FF492
:1059A000CF72214921A0FAF767FD27A0FAF764FD1D
:1059B00035E01D4A32A134A0FAF75EFDFEE71A4A2F
:1059C00039A131A0FAF758FDFEE7204601F07CFA34
:1059D00004F11C05C0B1616B846A8B1942464946CB
:1059E0001846A04704000CD54FF4D6720E490FA0FC
:1059F000FAF742FD29462DA0FAF73EFD38A0FAF746
:105A00003BFD2046BDE8F08740F2A512064907A0FD
:105A1000FAF732FD221D29463348FAF72DFD30A052
:105A2000FAF72AFD3846EDE72AB500081B5B33314B
:105A30003B32326D5B452F46414C5D202825733A41
:105A40002564292000000000506172746974696F38
:105A50006E2072656164206572726F7221205061E0
:105A600072746974696F6E20616464726573732007
:105A70006F7574206F6620626F756E642E00000073
:105A8000706172740000000028257329206861731A
:105A900020617373657274206661696C656420614E
:105AA000742025732E0A00006275660050617274BE
:105AB0006974696F6E2072656164206572726F72BD
:105AC0002120466C617368206465766963652825CA
:105AD00073292072656164206572726F7221000003
