:020000040800F2
:10000000884D002029020008BF1A0008510300088B
:10001000BD1A00085B0500082F1F00080000000043
:100020000000000000000000000000003B0200088B
:10003000E505000800000000970200084F1B0008BB
:10004000430200084302000843020008430200087C
:10005000430200084302000843020008430200086C
:10006000430200084302000843020008430200085C
:10007000430200084302000843020008430200084C
:10008000430200084302000843020008430200083C
:10009000430200084302000843020008430200082C
:1000A000430200084302000843020008430200081C
:1000B000430200084302000843020008430200080C
:1000C00043020008430200084302000843020008FC
:1000D00043020008430200084302000843020008EC
:1000E00043020008430200084302000843020008DC
:1000F00043020008430200084302000843020008CC
:1001000043020008430200084302000843020008BB
:100110004302000843020008851C0008430200084F
:10012000430200084302000843020008430200089B
:10013000430200084302000843020008430200088B
:10014000430200084302000843020008430200087B
:1001500043020008430200085D050008430200084E
:10016000430200084302000843020008430200085B
:100170004302000843020008430200080000000098
:10018000430200084302000800F002F800F03CF8C7
:100190000AA090E8000C82448344AAF10107DA45E2
:1001A00001D100F031F8AFF2090EBAE80F0013F0F8
:1001B000010F18BFFB1A43F0010318470436000073
:1001C00024360000103A24BF78C878C1FAD8520704
:1001D00024BF30C830C144BF04680C6070470000C1
:1001E0000023002400250026103A28BF78C1FBD840
:1001F000520728BF30C148BF0B6070471FB503F0DE
:1002000003FA1FBD10B510BD00F074F91146FFF7D9
:10021000F5FF00F09DF900F092F903B4FFF7F2FF4B
:1002200003BC01F0C9FE00000948804709480047A7
:10023000FEE7FEE7FEE7FEE7FEE7FEE7FEE7FEE796
:10024000FEE7FEE704480549054A064B70470000F3
:10025000751C00088901000888410020884D002095
:100260008845002088450020EFF3108072B6704763
:1002700080F310887047444A1368012B04D04FF074
:1002800001031360414A1060414A116041484FF038
:10029000805101607047EFF3108272B63A480168EE
:1002A00051B34FF0000101603848016891B1EFF39C
:1002B00009811EF0100F08BF21ED108B21E9F00F0E
:1002C0004FF000041EF0100F08BF012441F8044D48
:1002D000006801602E490968096808C9B1E8F00F93
:1002E000002B18BFB1EC108B81F309884EF0100E73
:1002F000002B18BF2EF0100E82F310884EF0040E63
:10030000704723490860EFF3148222F0040282F35D
:1003100014881E494FF0000008601B494FF001008F
:1003200008601D481D49D0F8002041EA0201016023
:1003300018484FF08051016019480068006880F348
:10034000088861B662B6BFF34F8FBFF36F8F7047F7
:100350001EF0040F0CBFEFF30880EFF3098020E9D3
:10036000F00F40F804ED40F804ED1EF0040F0CBF50
:1003700080F3088880F3098800B502F0BBF85DF8C7
:1003800004EB4EF0040E70472000002018000020FF
:100390001C00002004ED00E020ED00E00000FFFF65
:1003A00008ED00E0704753EA020C00F069802DE987
:1003B000F04B4FF00006002B1FBFB3FA83F503FA92
:1003C00005F424FA05F65E4012BF1643B2FA82F530
:1003D00002FA05F4C5F120051EBF22FA05FC44EA25
:1003E0000C04203556EA044C4FEA144418BF641C30
:1003F0004FF000084FF00009904271EB030C39D325
:10040000002919BFB1FA81F701FA07F6B0FA80F7AF
:1004100000FA07F6C7F120071EBF20FA07FC46EADC
:100420000C062037B6FBF4FCA7EB0507103F07F0DE
:100430001F0BCBF120060CFA0BFB2CFA06F644BF7F
:10044000B3460026202FA4BF5E464FF0000B5BEAA8
:10045000060C08BF4FF0010B19EB0B09ABFB027C3C
:1004600048EB0608C01B06FB02CC0BFB03CC71EB70
:100470000C01C1E70B46024641464846BDE8F08BF9
:1004800013B54FF000004FF00001AFF30080BDE85E
:100490001C4070474FF0000200B513469446964644
:1004A000203922BFA0E80C50A0E80C50B1F1200187
:1004B000BFF4F7AF090728BFA0E80C5048BF0CC035
:1004C0005DF804EB890028BF40F8042B08BF704793
:1004D00048BF20F8022B11F0804F18BF00F8012B05
:1004E000704770477047704770470000004870477A
:1004F000244100207546FFF7F9FFAE460500694626
:10050000534620F00700854618B020B5FFF79AFE45
:10051000BDE820404FF000064FF000074FF0000804
:100520004FF0000B21F00701AC46ACE8C009ACE885
:10053000C009ACE8C009ACE8C0098D46704710B5E9
:100540000446AFF300802046BDE81040FFF765BECB
:1005500010B503F015F8002010BDFEE7014800F0CB
:1005600045B800003C01002001681823CAB2103AC7
:10057000B2FBF3F2054B6FF30901032A9B5CC365E1
:1005800000D9091D81650846704700001236000831
:1005900010B5014600208B698A6A4FF0C07453B1D0
:1005A000B3F5005F15D072B1012A0CD0022A0AD02F
:1005B000032A09D104E01AB1012A06D0022A03D184
:1005C000C96AC90100D5012010BDC96AA142FAD08B
:1005D00010BD002AF7D0012AF2D0022AF3D0032A54
:1005E000F3D010BD704772B6FEE700002DE9F84366
:1005F00004464FF00009CDF8009063484FF41651BF
:10060000A56D0068B0FBF1F72E6894F85C10082027
:1006100000FA01F131420FD021680A6852070BD568
:100620000A6822F004020A6094F85C108840A8600E
:10063000606D40F00100606594F85C104FF00108B7
:1006400008FA01F0304208D021684969090604D54A
:10065000A860606D40F00200606594F85C100420B2
:100660008840304208D021680968890704D5A8600D
:10067000606D40F00400606594F85C1010208840C4
:10068000304218D021680968090714D5A86020688D
:100690000168490304D50068000308D5A16C07E090
:1006A0000168C90503D4016821F008010160216CCB
:1006B00009B12046884794F85C10202088403042D9
:1006C00031D021680968C9062DD5A86094F8350095
:1006D00005282068016806D0490347D50068000353
:1006E0001DD4616C1CE021F0160101602068416995
:1006F00021F080014161206C08B9A06C20B1206814
:10070000016821F00801016094F85C103F208840E6
:10071000A86084F8358084F83490216D1FE0E16B87
:1007200009B120468847606D00282BD0606DC00756
:1007300014D0052084F835002068016821F00101FB
:1007400001600098401C0090B84203D820680068FF
:10075000C007F6D184F8358084F83490E16C002924
:1007600010D001B02046BDE8F04308470168C90534
:10077000D5D4016821F01001016084F8358084F837
:100780003490CCE7BDE8F883100000202DE9F0415B
:10079000044600F063F906465CB1022084F8350097
:1007A000002584F834502068016821F001010160BF
:1007B0000DE00120BDE8F08100F050F9801B052814
:1007C00005D920206065032084F83500F2E7206811
:1007D0000068C007F0D12268116820480140D4E9C0
:1007E00001031843D4E903363343184363691843BC
:1007F000A3691843E3691843236A18430843616AED
:10080000042903D1D4E90B1319430843106020686D
:100810004069666A20F0070130460E43012704282C
:100820000CD1A06A0643E06A40B12046FFF7B0FE53
:1008300020B14020606584F83570BAE720684661D1
:100840002046FFF791FE94F85C203F2191408160A3
:10085000656584F835700020ACE700003F8010F03B
:100860002DE9F84FDFF8BCA10022012503264FF047
:100870000F090AF1040BAAF1040E00BF0B6805FA78
:1008800002F42340A34270D10F7907F00307012F30
:1008900001D0022F16D187684FEA420806FA08FCF9
:1008A00027EA0C07D1F80CC00CFA08FC4CEA070C3C
:1008B000C0F808C04768A7430C79C4F300149440FB
:1008C0003C4344600C79E443A4070AD0C4684FEA6F
:1008D000420C06FA0CF7BC438F6807FA0CF7274363
:1008E000C7600C7904F00304022C12D1D40800EB89
:1008F000840CDCF820405707FF0E09FA07F824EAB9
:100900000804D1F8108008FA07F848EA0408CCF87F
:10091000208004684FEA420C06FA0CF7BC430F79BA
:1009200007F0030707FA0CF7274307604C6814F435
:10093000403F70D03C4C276847F4804727602468CC
:1009400022F0030704F480440094384C07EB040CB5
:10095000DCF8084897074FEA177809FA08F7BC430C
:10096000334FB84202D1002724E054E0314FB8425F
:1009700001D101271EE0304FB84201D1022719E012
:100980002E4FB84201D1032714E02D4FB84201D1B8
:1009900004270FE02B4FB84201D105270AE02A4F68
:1009A000B84201D1062705E0284FB84201D10727F8
:1009B00000E0082707FA08F72743CCF80878DAF8A8
:1009C00000405746D1F804C09C435FEACC2C00D5C8
:1009D0001C433C60DBF800405F46D1F804C09C43F8
:1009E0005FEA8C2C00D51C433C60DEF80040774663
:1009F000D1F804C09C435FEA8C3C00D51C433C60AA
:100A0000084F083F3C68D1F804C09C435FEACC3CE7
:100A100000D51C433C60521C102AFFF42FAFBDE8E8
:100A2000F88F0000083C014044380240003001408B
:100A3000000002400004024000080240000C024096
:100A4000001002400014024000180240001C024046
:100A50000AB1816170470904FBE700000148806822
:100A600070470000040000200248816802781144A9
:100A700081607047040000200B4810B5016841F404
:100A800000710160016841F480610160016841F416
:100A900080710160032000F09BF80F2000F006F841
:100AA00000F050F8002010BD003C024030B5054673
:100AB0001F4887B00024016841F010010160006800
:100AC00006A900F01000009001A800F0D3F90498E6
:100AD000A8B100F0F5F940001649174AB0FBF1F152
:100AE0001648491E026040F2E732C0E90324C0E91B
:100AF0000114846100F040FD040003D015E000F013
:100B0000DFF9E9E70D4800F065FD04000DD136205E
:100B100000F030F8102D07D200222946362000F0D0
:100B200037F80748056000E0012407B0204630BDD3
:100B30004038024040420F00001000409C0100205D
:100B4000080000200A4808B5016841F480410160AE
:100B5000006800F4804000900548001F016841F0E3
:100B600080510160006800F08050009008BD0000D6
:100B700044380240002809DB00F01F0201219140A7
:100B80004009800000F1E020C0F80011704700002B
:100B9000F0B40E4B1B680C46C3F30223C3F10705E8
:100BA000042D00D90425191D072901D2002300E0D6
:100BB000DB1E012606FA05F1491E214099409E40A0
:100BC000761E16403143F0BC01F0B2B90CED00E0E6
:100BD000064900F0070208684FF6FF03184040EA94
:100BE0000220034A10430860704700000CED00E04B
:100BF0000000FA052DE9F843054600684FF00109A9
:100C0000C1074FF0000601D1400727D5DFF80C815E
:100C1000C8F86860FFF722FF0746414C05E000BFB7
:100C2000FFF71CFFC01B022857D820680001F7D42B
:100C300068688101287A41EA007039498431086086
:100C4000C8F86890FFF70AFF074604E0FFF706FFC1
:100C5000C01B022841D820680001F7D528788007FA
:100C600052D52F484030016841F080510160006842
:100C70002C4C00F080500090206840F48070206080
:100C8000FFF7ECFE074604E0FFF7E8FEC01B022872
:100C900023D82068C005F7D5214C7034206810F4A3
:100CA000407020D0A98901F4407181421BD0206896
:100CB0001D4920F44070C1F800900E60206020684B
:100CC000C00710D0FFF7CAFE064641F2883707E09A
:100CD000FFF7C4FE801BB84202D90320BDE8F883A9
:100CE00020688007F4D5E9680D48C1F30122083077
:100CF000032A0BD0016821F4F81101602068A9894A
:100D0000C1F30B01084320600020E7E70268074BAE
:100D100022F4F81219400A430260EFE7000047424C
:100D20000038024000700040400E4742FFFCFF0FB9
:100D3000704700002DE9F0470E46050065D0DFF84A
:100D40001481D8F80000F7B200F00700B04207D2D3
:100D500088F80070D8F8000000F00700B04254D1C5
:100D600028683D4C810712D5400703D5206840F420
:100D7000E05020602878000703D5206840F46040E8
:100D800020602068A96820F0F000084320602878DF
:100D9000C0072DD0304968680839012812D00228D0
:100DA00013D0032811D00968890700292DDA21689A
:100DB00021F0030101432160FFF750FE814641F21B
:100DC000883A0EE009688903EFE709688901ECE7D2
:100DD000FFF744FEA0EB0901514502D90320BDE80D
:100DE000F0872068696800F00C00B0EB810FEFD14C
:100DF000D8F80010404601F00701B14207D907704A
:100E0000006800F00700B04201D00120E7E7287831
:100E1000400705D52068E96820F4E05008432060C9
:100E20002878000706D52068296920F4604040EA48
:100E3000C100206000F064F82168084AC1F3031182
:100E4000515CC8400649086006480068FFF72EFE5E
:100E50000020C4E7003C0240083802401A3600086F
:100E6000100000200800002001490120C8647047DC
:100E7000000047420F2202600C4A136803F003038C
:100E80004360136803F0F0038360136803F4E053D6
:100E9000C36012684FF4E05303EAD20202610448CF
:100EA000006800F007000860704700000838024042
:100EB000003C02400148006870470000100000201C
:100EC0000448054900680968044AC1F38221515C5D
:100ED000C840704710000020083802402A36000839
:100EE0000448054900680968044AC1F34231515C6D
:100EF000C840704710000020083802402A36000819
:100F0000154810B5006810F00C02144813D04110B9
:100F1000042A0FD0082A0ED10F4C241F2268236800
:100F200002F03F025B0207D52068C0F38810A0FBE7
:100F3000010106E0084610BD2168C1F38811A1FB3C
:100F400000010023FFF72FFA2168C1F30141491C7A
:100F50004900B0FBF1F010BD083802400024F40055
:100F6000054810B50068000605D5FFF7E1FE024907
:100F70008020891C087010BD0C3802402DE9F84F04
:100F800004006ED02078DFF84C93C007A9F1040567
:100F90004AD009F104000168C1F38101012908D098
:100FA0000068C0F3810002280AD1D9F8000040028D
:100FB00006D52868800337D560680028E1D033E083
:100FC0006068B0F5803F10D0B0F5A02F286810D031
:100FD00020F480302860286820F480202860606831
:100FE000A8B1FFF73BFD06460DE0286840F48030CD
:100FF000F4E740F480202860F7E700BFFFF72EFDFC
:10100000801B642873D828688003F7D50CE0FFF7AD
:1010100025FD064605E000BFFFF720FD801B642884
:10102000F0D828688003F7D42078DFF8AC828007F6
:101030004FF0000A3ED5A748001D016811F00C0FC3
:1010400008D00068C0F3810002280BD1D9F8000055
:10105000400207D42868800716D5E068012800D12F
:1010600012E033E1E068B8B10120C8F80000FFF7F2
:10107000F5FC064605E000BFFFF7F0FC801B0228E8
:10108000C0D828688007F7D52868216920F0F800C3
:1010900040EAC10028600DE0C8F800A0FFF7DEFCC0
:1010A000064604E0FFF7DAFC801B02281FD82868F8
:1010B0008007F7D42078000722D5864F87486169DA
:1010C000703771B101210160FFF7C8FC064604E0EA
:1010D000FFF7C4FC801B022809D838688007F7D5C1
:1010E0000EE0C0F800A0FFF7B9FC064605E082E07C
:1010F000FFF7B4FC801B02287DD838688007F7D43E
:101100002078400768D5DFF8CCB100270BF13C0B05
:10111000DBF80000C0000BD4DBF8001041F0805178
:10112000CBF80010DBF80000012700F080500090A1
:101130006B4E3068C00510D4306840F48070306069
:10114000FFF78CFC009005E0FFF788FC0099401A3F
:10115000022850D83068C005F6D55E4EA0686C36BF
:1011600001280FD00528306810D020F00100306031
:10117000306820F004003060A068B8B1FFF76EFC62
:1011800000900FE0306840F00100F4E740F0040008
:101190003060F7E7FFF762FC0099411A41F28830AE
:1011A000814266D830688007F4D50EE0FFF756FC20
:1011B000009007E0FFF752FC0099411A41F2883095
:1011C000814256D830688007F4D42FB1DBF8001084
:1011D00021F08051CBF80010A069C8B33D49091D2A
:1011E0000968C1F3810102294AD00228504607D07C
:1011F000C8F8600000E03CE0FFF730FC04463BE04C
:101200004746C8F86000FFF729FC064605E000BF26
:10121000FFF724FC801B02282BD828688001F7D414
:10122000D4E907010843A16A2E4A490802EB0141AB
:10123000626A41EA8211084394F82C1040EA016185
:10124000C9F8001001203866FFF708FC044606E0E4
:101250003EE000BFFFF702FC001B022809D8286807
:101260008001F7D534E000BFFFF7F8FB001B022830
:1012700002D90320BDE8F88F28688001F4D427E064
:101280000128F7D0D9F80000E26900F4800191420A
:101290001CD1226A00F03F01914217D147F6C0717C
:1012A000626A0140B1EB821F10D1A26A4FF0FF3396
:1012B00000F4403103EB5202B1EB024F06D194F837
:1012C0002C1000F07060B0EB016F01D00120D1E76D
:1012D0000020CFE70438024000004742800E47421A
:1012E000007000400000FFFF10B5040002D0607FD6
:1012F00010B106E0012010BD00202077204600F04C
:1013000041F8022060772068C168C943C90632D518
:10131000CA214162216853204862204600F0DEFB6A
:1013200020BB20688168164A114081602168886866
:1013300062681043D4E904231A431043886021688B
:10134000E068086120680169228941EA024101617F
:10135000204600F0E7FB48B921680A6C22F480229D
:101360000A6421680A6CA3691A430A642268FF218F
:10137000516208B110BD00200121617710BD00004D
:10138000BFFF8FFF1FB500210091019102910391D2
:101390000068084988420CD102200090C0010390E7
:1013A0006846FFF727FC08B1FFF71DF90249012045
:1013B00008601FBD002800403C0E474270B504463F
:1013C000007F0B46012819D001262677022060777E
:1013D000B2B19878D97840EA014558781978000276
:1013E00040EA413005432168CA2048622168532001
:1013F0004862204600F072FBD0B122E0022070BDAE
:101400005878C10603D500F0EF000A305870D8783C
:1014100000F058FB0204587800F054FB42EA002226
:10142000987800F04FFB0243187842EA4035DAE73B
:101430000748054020684560204600F073FB00B96E
:1014400066772268FF2151620021217770BD00007C
:101450003FFFFF002DE9F0410446007F0D460128C3
:1014600023D04FF0010884F81C80022060772068A8
:10147000002780684FEA4060D2B1002800DBEF709F
:10148000A878297840EA01466878E978000240EABD
:10149000815006432168CA2048622168532048626F
:1014A000204600F01BFBB8B12CE00220BDE8F08123
:1014B000002800DBEF70287800F004FB0204687855
:1014C00000F000FB42EA0022A87800F0FBFA024399
:1014D000E87842EA8056DDE70D480640206806605D
:1014E0002068816821F480218160D5E903010843E7
:1014F00021688A6810438860204600F013FB08B911
:1015000084F81D802268FF2151622777CEE7000012
:101510007F7F7F0070B504460B482168C860FFF7E5
:101520009DFA05464FF47A7607E000BFFFF796FA7A
:10153000401BB04201D9032070BD2068C0688006FE
:10154000F4D5002070BD00005F7F010010B5401E83
:10155000B0F1807F01D3012010BD4FF0E024606125
:101560000F21601700F0E4FC0020A061072020613B
:10157000002010BD7047704710B5040003D094F8E8
:101580003D0010B107E0012010BD002084F83C00B0
:10159000204600F01EF8022084F83D00211D20683E
:1015A00000F076FB012084F8460084F83E0084F8C1
:1015B0003F0084F8400084F8410084F8420084F839
:1015C000430084F8440084F8450084F83D0000207E
:1015D00010BD704790F83D10012901D001207047DF
:1015E000022180F83D100168CA6842F00102CA6019
:1015F00000681149884214D0B0F1804F11D00F49D2
:1016000088420ED00E4988420BD00E49884208D03D
:101610000D49884205D00D49884202D00C498842C4
:1016200004D1816801F00701062903D0016841F067
:1016300001010160002070470000014000040040EB
:1016400000080040000C0040000401400040014040
:101650000018004070472DE9F04104460068C66854
:1016600005694FF00007A90713D5B10711D5F91E79
:10167000016101202077206880698007204602D020
:10168000FFF7E8FF04E000F07EF8204600F07CF869
:101690002777680716D5700714D521686FF0040006
:1016A0000861022020772068806910F4407F20467E
:1016B00002D0FFF7CFFF04E000F065F8204600F00D
:1016C00063F82777280715D5300713D521686FF001
:1016D00008000861042020772068C0698007204640
:1016E00002D0FFF7B7FF04E000F04DF8204600F00D
:1016F0004BF82777E80616D5F00614D521686FF069
:1017000010000861082020772068C06910F4407F2D
:10171000204602D0FFF79EFF04E000F034F8204698
:1017200000F032F82777E80708D0F00706D02168E4
:101730006FF001000861204600F028F8280608D55F
:10174000300606D521686FF0800008612046FFF75B
:1017500011FF680608D5700606D521686FF04000B5
:101760000861204600F01CF8A8060AD5B00608D586
:1017700021686FF0200008612046BDE8F041FFF7C6
:10178000FABEBDE8F0817047704700000068034969
:10179000884201D1FFF768B970470000001000408F
:1017A000704770B5040004D094F84100002510B1D2
:1017B00006E0012070BD84F84050204600F024F877
:1017C000242084F841002068C16821F40051C160E0
:1017D000204600F0EDFA2068016921F49041016192
:1017E0002068416921F02A0141612068C16841F403
:1017F0000051C1606564202084F8410084F84200F3
:101800006563002070BD000070B586B006461421E7
:101810006846FEF73FFE20493068884239D11F48AC
:101820000025016841F010010160006800F010001F
:1018300005901A481438016841F001010160006800
:10184000694600F0010005904FF4C060009002204E
:10185000CDE9010503200390072004901048FEF70E
:10186000FFFF114C0F4820604FF000606060402087
:10187000C4E902050001C4E90405A561E56125622A
:1018800020466562FEF782FF08B1FEF7ACFEB46346
:10189000A66306B070BD000000100140443802404D
:1018A00000000240B86402403C0100202DE9F843EA
:1018B000044690F84100984616460D46202802D06E
:1018C0000220BDE8F88385B17EB10020606421204C
:1018D00084F84100FFF7C2F8A6848146E684A06838
:1018E0002027B0F5805F02D003E00120E9E72069FE
:1018F00010B12E4600250EE000260CE08021204687
:1019000000F0DCFAA8B9C6B116F8010B21684860EE
:10191000E08C401EE084E08C4B464FF00002CDF896
:1019200000800028EAD14FF04001204600F0C6FABE
:1019300040B184F841700320C3E735F8020BC0F3CF
:101940000800E3E784F841700020BAE7094808B5C9
:10195000016841F4800101600068002200F4800009
:10196000009011464620FFF713F9BDE808404620D5
:10197000FFF700B93038024070B586B014216846D0
:10198000FEF788FD1A480025016841F00401016056
:10199000016801F004010591016841F02001016036
:1019A000016801F020010591016841F080010160AA
:1019B000016801F080010591016841F001010160B9
:1019C00000680C4E00F001004FF4C0640590012245
:1019D00021463046FFF73CF80120CDE900400220C7
:1019E000CDE9025069463046FEF73AFF06B070BDB9
:1019F000303802400014024010B586B01421684609
:101A0000FEF748FD1E4800241C490594C0E9001457
:101A10007F218160FF21C0E9031444618461FFF7E5
:101A200063FC08B1FEF7DFFD14208DF800001E20D6
:101A30008DF801008DF80240039400226946104899
:101A40000494FFF707FD08B1FEF7CDFD06208DF8E1
:101A5000140005208DF815001F208DF816001920A0
:101A60008DF81700002205A90548FFF7A7FC0028FC
:101A700001D0FEF7B8FD06B010BD00000028004000
:101A8000D40000200C4810B50A4901604FF4E13140
:101A90004160002181600C22C160C0E904128161B3
:101AA000C161FFF77EFE002803D0BDE81040FEF7BD
:101AB0009ABD10BD00100140F4000020FEE7FFF7C2
:101AC0004FFAFEE7002102E00A38C0B2491C0A289A
:101AD000FAD2090740EA1160704700002DE9F04191
:101AE000044600680025C168490618D4C16841F061
:101AF0008001C160FEF7B2FF06464FF47A780427F2
:101B000007E000BFFEF7AAFF801B404501D96777B9
:101B100001252068C068400601D4002DF2D0284677
:101B2000BDE8F08170B5044600680025C16821F069
:101B30008001C16020688068800606D42046FFF7D7
:101B4000E9FC10B1042060770125284670BD10B56E
:101B500000F0F6FD01F0B0FABDE8104000F0FEBD67
:101B600030B593B030216846FEF794FC14210CA8E0
:101B7000FEF790FC1F480025016841F0805101608C
:101B8000006800F0805011901B48016841F48041CA
:101B900001600068022400F480401190052000904C
:101BA0004FF480300190012002908005CDE906407D
:101BB00008AA0420A82182E813000B906846FFF7CA
:101BC000DDF908B172B6FEE70CA90F2081E83100FB
:101BD0004FF4A0500F904FF48050109005210CA8A6
:101BE000FFF7A8F808B172B6FEE7FFF73DF913B0AA
:101BF00030BD0000403802400070004070B5194C04
:101C00002068194A10F00C01184804D05510042916
:101C100003D0082903D002601BE0056019E01149D8
:101C2000091F0B68C3F380560B6803F03F0316B11E
:101C3000B5FBF3F201E0B2FBF3F20B680968C3F302
:101C400088135A43C1F30141491C4900B2FBF1F129
:101C500001602168064AC1F30311515C0268CA4061
:101C6000026070BD083802400024F400100000201B
:101C70001A3600080248016841F47001016070479B
:101C800088ED00E00148FFF7E6BC00009C01002061
:101C9000F0B50268274B284D284E294F294C4FF0AC
:101CA000804C984209D0604507D0A84205D0B04288
:101CB00003D0B84201D0A04204D122F0700E4A688D
:101CC00042EA0E0298421BD0604519D0A84217D0B4
:101CD000B04215D0B84213D0A04211D01A4DA8423C
:101CE0000ED01A4DA8420BD0194DA84208D0194D5C
:101CF000A84205D0184DA84202D0184DA84203D1E1
:101D000022F44075CA682A434D6922F080022A43B2
:101D10008D68C5620D688562984201D0A04201D1EC
:101D200009690163016841F0040101600121416119
:101D30000260F0BD000001400004004000080040C7
:101D4000000C0040000401400040014000440140FC
:101D50000048014000180040001C004000200040E6
:101D600001680C3151E8002F22F4907241E8002301
:101D7000002BF5D10168143151E8002F22F0010247
:101D800041E80023002BF5D1016B012909D101683D
:101D90000C3151E8002F22F0100241E80023002B03
:101DA000F5D1202180F84210002101637047000026
:101DB00070B5044600680169E26821F4405111439E
:101DC00001612169A068E269084361691143084320
:101DD0002168CA6849F20C639A430243CA602068CA
:101DE0004169A26921F44071114341613149206880
:101DF000884202D03049884202D1FFF771F801E0F1
:101E0000FFF75EF8E2690023192164253226B2F556
:101E1000004F626828D0A0FB0101930F9200FEF7EB
:101E2000C2FA0146B0FBF5F06FF01802504301EB27
:101E3000800006EB0010B0FBF5F000F0F002B1FB03
:101E4000F5F002EB0012B1FBF5F06FF01803584308
:101E500001EB800006EB0010B0FBF5F000F00F0086
:101E600021681044886070BDA0FB010192185B419D
:101E7000FEF799FA0146B0FBF5F00201B1FBF5F06F
:101E80006FF01803584301EB800006EBC000B0FB75
:101E9000F5F000F0F80002EB4002B1FBF5F058431A
:101EA00001EB800006EBC000B0FBF5F000F007008E
:101EB000D6E7000000100140001401402DE9F8436E
:101EC000984617460D460446089E24E0701C22D012
:101ED000FEF7C4FDA0EB0800B0421AD8CEB12068CE
:101EE000C168490717D5802D15D0402D13D0016842
:101EF000C94309070FD401680025406800902046B7
:101F0000FFF72EFF0820606484F840500120BDE8F0
:101F1000F8830320FBE72068006835EA000004D05E
:101F20000020B842D2D00020F1E70120F9E7FEE717
:101F30000907090E002804DB00F1E02080F80014F6
:101F4000704700F00F0000F1E02080F8141D70478A
:101F5000002807D00E4910F0FF0F04D051FA80F08E
:101F60000078401C704710F47F4F04D0C0F3072066
:101F7000085C0930704710F47F0F04D0C0F30740AD
:101F8000085C1130704701EB106000781930704721
:101F90003236000810B5044605488068FFF7D8FFC0
:101FA0000449401E51F830102060A1F1140010BD0A
:101FB000BC000020DC0300207047000070B50C4816
:101FC0000468FEF751F90546204600F06BFD04F168
:101FD000440001F001F9042084F83400204600F0A8
:101FE00067FF2846FEF744F9BDE8704000F0C4BC26
:101FF000C00000202DE9FC411F460446DDE9083100
:10200000DDE90A65143040600060C4E90827C4E9CE
:102010000A310A462321184600F0FEFBD4E90A01E2
:102020004218D4E908010E4B121F00F06BFBE0616F
:1020300084F835600020C4E90E052564206384F827
:10204000340020676067009023460190054A1946D6
:1020500004F1440001F0D4F80020BDE8FC81000048
:10206000BD1F00086920000870B50446FEF7FCF8A3
:1020700005466FF00100206304F1140000F0A9FB95
:10208000204600F0D5FC2846FEF7F2F8BDE8704087
:1020900000F072BC10B5029C24F001044472C0E947
:1020A00007120021C0E9093114304060006010BD02
:1020B000143000F097BB00001CB5FEF7DDFCFFF705
:1020C0004FFDFFF759FCFFF741FCFFF795FCFFF7C9
:1020D000D9FC05211420CDE900014FF400742346FA
:1020E0000022194919A000F0A6FE1B49086018B18A
:1020F00000F08CFF19A000E021A000F03DFB254678
:10210000274C4FF44876002229462046FEF7A0FCD3
:10211000322000F02DFF012229462046FEF798FCD0
:10212000322000F025FF002229462046FEF790FCD1
:10213000322000F01DFF012229462046FEF788FCD0
:10214000304600F015FFDEE7B52100086D795468D0
:102150007265616400000000000000204D79207469
:102160006872656164206372656174656420616E84
:10217000642073746172746564210D0A00000000AC
:102180004661696C656420746F2063726561746573
:10219000206D7920746872656164210D0A00000069
:1021A0000014024010B500F017F9BDE81040FFF729
:1021B00083BF0000124D4FF480644FF44876002234
:1021C00021462846FEF744FC322000F0D1FE0122D1
:1021D00021462846FEF73CFC322000F0C9FE0022D2
:1021E00021462846FEF734FC322000F0C1FE0122D1
:1021F00021462846FEF72CFC304600F0B9FEDEE70B
:102200000014024030B5826A4B681A4400239142A0
:1022100011D01478E4070ED1C46A94420BD0046B39
:10222000944200D10163136054684C60846A526820
:102230000D1B22449560826A8C6822448A420ED02B
:102240001478E4070BD1046B8C4200D102630B605D
:102250004B685360806A4968121A0844826030BD36
:102260002DE9F04F85B09946DDE90EA5109CAB46EF
:10227000630602D5DFF814C103E0DFF810C1ACF14A
:10228000110CE30601D524F00104E30701D030234B
:1022900000E0202300260493A3070BD5002A02DACE
:1022A0002D26524206E0630701D52B2602E02307C4
:1022B00000D520260023EE4622B930228DF80020DA
:1022C00001230CE0B9F10A0F14D002F00F08120933
:1022D0001CF808800EF803805B1C002AF2D1AB4288
:1022E00000DD1D46AAEB050214F0110F4FF0200788
:1022F00008D015E00A27B2FBF7F807FB1828B2FB55
:10230000F7F2E5E73EB1002A05DD521E03E0884200
:1023100000D20770401CB2F1000CA2F10102F6DC01
:1023200026B1884200D20670401C521EE40605D534
:1023300008E0884201D2049C0470401C141EA2F1E3
:102340000102F6DC30242E466D1E9E420ADD8842D4
:1023500000D20470401CF6E7884201D2E55C0570AB
:10236000401C00E074461D1EA3F1010307DDBBF114
:10237000000FF1D103E0884200D20770401C131E09
:10238000A2F10102F7DC05B0BDE8F08F4337000889
:102390001CB514210A20CDE900014FF4806300220E
:1023A000034904A000F047FDBDE81C4000F02EBE2C
:1023B000A52100086D61696E0000000070B5044C35
:1023C000044D02E020688047241DAC42FAD370BD62
:1023D000B0370008B837000870B5044C044D02E06F
:1023E00020688047241DAC42FAD370BDB83700087E
:1023F000BC37000810B5FDF737FF044A5188491C67
:102400005180BDE81040FDF733BF0000BC00002044
:1024100010B5FDF729FF0B4C6188491E09B2618098
:1024200000290ADC00216180FDF722FF6068002896
:1024300007D0BDE8104000F09FBABDE81040FDF79E
:1024400017BF10BDBC00002010B5040008D0FFF776
:10245000D1FF204600F007FCBDE81040FFF7D8BFD1
:1024600010BD000000487047DC04002000487047A1
:10247000DC40002010B5FEF7FFFAFFF771FBFFF715
:10248000BDFBFEF717FD4FF47A71B0FBF1F0FFF7DB
:102490005DF8FFF793FFFFF7E9FF0446FFF7E2FF60
:1024A0002146BDE8104000F083BC0000F8B50646A8
:1024B0000D200F498DF80000002481F8404030467F
:1024C00000F05BFC05460FE0305D0A2805D10123D2
:1024D0001A4669460648FFF7E9F9012331191A46F9
:1024E0000348FFF7E3F9641CAC42EDD3F8BD0000EC
:1024F000DC40002070B52F490546283009682C1DA6
:1025000011B18847002853D02BA0216C00F034F97A
:102510002DA0616A00F030F92FA0A16A00F02CF91B
:1025200031A0E16A00F028F933A0216B00F024F912
:1025300035A0616800F020F937A0A16800F01CF90F
:1025400039A0E16800F018F93BA0216900F014F906
:102550003DA0616900F010F93FA0A16900F00CF9FD
:1025600041A0E16900F008F943A0216A00F004F9F4
:1025700045A0616B00F000F947A0A16B00F0FCF8EA
:1025800049A0E16B00F0F8F82878400706D500F084
:1025900015FD014648A000F0EFF802E04EA000F063
:1025A000EBF82878C00602D452A000F0E5F8FEE768
:1025B00070BD0000140000207073723A203078253E
:1025C0003038780A000000007230303A2030782528
:1025D0003038780A000000007230313A2030782517
:1025E0003038780A000000007230323A2030782506
:1025F0003038780A000000007230333A20307825F5
:102600003038780A000000007230343A20307825E3
:102610003038780A000000007230353A20307825D2
:102620003038780A000000007230363A20307825C1
:102630003038780A000000007230373A20307825B0
:102640003038780A000000007230383A203078259F
:102650003038780A000000007230393A203078258E
:102660003038780A000000007231303A2030782586
:102670003038780A000000007231313A2030782575
:102680003038780A000000007231323A2030782564
:102690003038780A00000000206C723A203078252B
:1026A0003038780A000000002070633A2030782526
:1026B0003038780A00000000686172642066617535
:1026C0006C74206F6E207468726561643A202573A3
:1026D0000D0A0D0A000000006861726420666175D1
:1026E0006C74206F6E2068616E646C65720D0A0DEB
:1026F0000A00000046505520616374697665210D1B
:102700000A00000070B50446121D22F007000022E6
:102710000A4D443840F82250521C112AFAD3416223
:1027200000218162C16200F13402016382E81A0073
:102730004FF080730364016070BD0000EFBEADDE3A
:1027400010B5FDF791FD044A1178491C1170BDE8E0
:102750001040FDF78DBD00003000002010B5FDF7E2
:1027600083FD044A1178491E1170BDE81040FDF741
:102770007FBD0000300000200FB47F2110B503ABF7
:102780000748029A00F0AAFD04467F2800D97F245A
:102790000348FFF78BFE204610BC5DF814FB0000D9
:1027A0005C0300200268516002680A6001604860B2
:1027B00070470268516002680A60016048607047B3
:1027C000D0E900124A60D0E9001211604060006058
:1027D0007047D0E900124A60D0E9001211604060F1
:1027E00000607047D0E900124A60D0E90012116021
:1027F000406000607047000010B50446FFF7FAFD26
:1028000004482146406800F0D3F90446FFF700FE73
:10281000204610BD3400002010B50346CCB2042A77
:102820001AD3810718D1194644EA042343EA034323
:1028300006E008C1103A08C141F8083B41F8043CE1
:10284000102AF6D201E008C1121F042AFBD20B465F
:1028500002E000BF03F8014B521EFBD210BD2DE970
:10286000F0410F46064600F045F80546C068FFF700
:10287000C3FF040019D00021EA68FFF7CDFF2672DC
:102880000020607208223946204600F07EFAFDF7EB
:10289000EBFC064604F10C01281DFFF783FF3046D0
:1028A000FDF7E6FC2046BDE8F0810020FBE770B5AF
:1028B000044600202072FDF7D7FC054604F10C0009
:1028C000FFF77EFF2846FDF7D3FC2046BDE87040A9
:1028D000FFF7BABD70B5044600202072FDF7C4FCB6
:1028E000054604F10C00FFF76BFF2846BDE8704079
:1028F000FDF7BEBC074A002102EB01131B7883429F
:1029000002D102EB01107047491C0529F4DB0020BD
:10291000704700006C0000202DE9F0410446164687
:102920000D460846FFF7E6FF0746FFF763FD381D33
:10293000796800E009688142FCD1FFF769FD45F044
:102940008000207208223146204600F01EFAFDF772
:102950008BFC054604F10C01381DFFF723FF2846C8
:10296000BDE8F041FDF784BC007A000601D50120E6
:102970007047002070470000F8B5FDF775FC2A4D40
:1029800007466888D0BBA868C0B300266846FFF732
:1029900001FB0446686890F8341001F00702032A2E
:1029A0000ED190F83520009B9A4202D303D10A073A
:1029B00001D4044600E0012621F0080180F834101B
:1029C000844222D0009A29462A7005464C600EB1F6
:1029D00000F02EF8204600F065F894F8340020F05E
:1029E0000700C01C84F834001048007804F11C0172
:1029F000002805F11C0002D0FDF73DFC0EE0FDF7BC
:102A00003AFC3846FDF734FCF8BD00F04BF8686836
:102A100010F8341F21F00701C91C01703846BDE8C9
:102A2000F840FDF725BC0000BC000020300000206D
:102A300070B50546FDF718FC1849024648688542FE
:102A400006D115F8340F20F00700C01C287020E0D4
:102A500095F8340005F1140420F00700401C85F8B7
:102A6000340003070E4895F8353000EBC30006D557
:102A700043681C60436863604460206005E003684D
:102A80005C600368236004606060A86B8B68184317
:102A90008860BDE870401046FDF7EABBBC0000202E
:102AA000DC03002010B50446FDF7DEFB04F1140141
:102AB000D1E900235360D1E900231A60A16161616B
:102AC00094F83520074951F8323001EBC2018B42AE
:102AD00004D10549A36B8A689A438A60BDE8104017
:102AE000FDF7C6BBDC030020BC0000201CB50AA01B
:102AF000FFF742FE0BA0FFF73FFE13A115A0CDE9A3
:102B0000000101231A46042115A0FFF735FE1DA080
:102B1000FFF732FE1CBD00000A205C207C202F0A3B
:102B2000000000002D205254202D20202020205471
:102B30006872656164204F7065726174696E6720A8
:102B400053797374656D0A0032313A34393A333946
:102B5000000000004D6179203331203230323500E1
:102B6000202F207C205C202020202025642E25641E
:102B70002E2564206275696C642025732025730AF4
:102B8000000000002032303036202D20323032322A
:102B900020436F707972696768742062792052549B
:102BA0002D546872656164207465616D0A000000CF
:102BB000F0B5E9B3C91C21F003020C2A00D20C22A3
:102BC000416B91424DD3846A036B1B1B8D1A46E007
:102BD000E1180E78F60740D14E68F61A0C3E964280
:102BE0003BD34D6802F11807EE1A0C3EBE4222D3C9
:102BF0009D180C352C4420F0010626604E68C4E96F
:102C000001634D606368446B0C34A34202D0846A54
:102C100023449D60036A0C321A440262436A934261
:102C200000D2426240F001020A60026B8A4200E078
:102C300017E009D00EE00A1B036AAA1A1A44ECE74F
:102C4000836A52681A4402631378DB0702D0C36AAE
:102C50009A42F5D101F10C00F0BD1B1DE3589D42D5
:102C6000B6D20020F0BD002812D0A0F10C010868F7
:102C700020F001000860026B8A4200D90163836A78
:102C80004A68CB1AD21A036A9A1A0262FFF7BABAD2
:102C9000704700002DE9F04106461346C81C20F09D
:102CA000030404F13802D01C20F003050B4423F088
:102CB0000300182830D9A0F1180797422CD3471BDE
:102CC000382200212046183FFFF7A6FD32460C218E
:102CD0002046FFF721FE04F1140112A081E8A100B3
:102CE0006763A5622C60606B0C3068600020A86090
:102CF000A06A6968084444F00101E0620160606B09
:102D0000E16A0C304860606BE16A0C308860A06A50
:102D100020632046BDE8F0811A4604A0FFF72CFD91
:102D20000020F7E7736D616C6C0000006D656D202D
:102D3000696E69742C206572726F722062656769B2
:102D40006E206164647265737320307825782C205E
:102D5000616E6420656E64206164647265737320C3
:102D6000307825780A0000000FB410B504AA039942
:102D700000F0F6FB10BC5DF814FB014600E0491CB6
:102D80000A78002AFBD1081A704710B5002A07D02C
:102D9000034611F8014B03F8014B2CB1521EF8D138
:102DA00010BD03F8011B00E00021521EF9D110BD37
:102DB000C21C22F0030221F003018A1A10B5014659
:102DC00002A0FFF767FF0349486010BD68656170A6
:102DD000000000003400002010B5074B0022074C13
:102DE0005A80104604EBC001401C4960096020284D
:102DF000F8DB9A6010BD0000BC000020DC0300205E
:102E000038B56846FFF7C6F80446064844602046D1
:102E1000FFF748FE032084F8340004F11C00FDF79E
:102E200070FA38BDBC000020014840600060704767
:102E3000CC00002070472DE9FF478946DDE90C767C
:102E4000824601461D4690460120FFF708FD041EFC
:102E50000DD02846FFF7D0FC60B103968DE8A100A5
:102E600043464A4651462046FFF7C4F8204604B080
:102E7000BDE8F0872046FFF71AFD0020F7E70000C5
:102E800070B50A480025046884420DD0A4F11405E9
:102E9000FDF7EAF9D4E900124A60D4E900121160A2
:102EA00064602460FDF7E4F9284670BD2800002026
:102EB000044914300A6850600A6802600860416082
:102EC0007047000028000020FFF7DAFF0400FBD065
:102ED000266FFFF749FD0546012802D12046FFF77E
:102EE000F9FC0EB12046B047002DEDD1A06AFFF7E6
:102EF000ABFA2046FFF7DBFCE6E7000010B586B032
:102F000000220BA104A8FFF72FFF0B4820231F224C
:102F1000D9008DE80F00A0F1780420460023074A6D
:102F200004A900F00DF8204600F070F806B010BDBE
:102F30007469646C652564005C020020C92E000879
:102F40002DE9FF5F92460EAA0C4692E8E0010A4680
:102F5000994683460121FFF7DFFC8DE8E0014B46EF
:102F6000524621465846FFF745F804B0BDE8F09FA9
:102F700010B500F082F8BDE8104000F025B870B53B
:102F8000044690F8340000F00700022802D04FF009
:102F9000FF3070BDFDF768F9054604F11400FFF736
:102FA00018FC04F1440000F081F92046FFF740FDD1
:102FB0002846FDF75DF9002070BD0000014800685B
:102FC00070470000C0000020F1B50F480468FDF70D
:102FD0004BF9064600252046256300F02BF804F146
:102FE00044006A460021074600F0D0F8384600F059
:102FF0001BF93046FDF73CF9FFF7BEFC206B801C47
:1030000000D12563206BF8BDC000002010B590F8FA
:103010003520012191408163022180F83410FFF7AF
:10302000AEFF0348006808B1FFF7A6FC002010BD02
:10303000C000002070B5044690F8340000F007008E
:10304000012804D0032802D04FF0FF3070BDFDF7F7
:103050000BF905462046FFF725FD94F8340020F0D3
:103060000700801C84F8340004F1440000F01EF9CD
:103070002846FDF7FDF8002070BD002802DA4FF069
:10308000FF3070474FF47A7190FBF1F290FBF1F34F
:1030900001FB130000EB40034A43C3EBC0104B1E7F
:1030A00003EBC00090FBF1F010447047014800684A
:1030B000704700002400002010B5FDF7D5F8044645
:1030C0000E480168491C0160FFF778FF016C491E3A
:1030D000016406D02046FDF7CBF8BDE8104000F0B3
:1030E0000FB8C16B016410F8341F41F00801017082
:1030F0002046FDF7BDF8FFF73FFCEEE72400002077
:103100002DE9FC41CDF804D0CDF800D0FFF7CEFF7B
:103110000646FDF7A9F807461B4D2DE060696FF0E4
:103120000041301A143C884229D22046FEF7C0FFE5
:10313000607A810702D420F00100607204F114016A
:1031400088466846FFF735FBD4E907108847FFF744
:10315000ADFF06460098694688420DD04046FFF70D
:1031600041FB607A810707D5C10705D020F0010037
:103170006072204600F058F82C68AC42CED1384638
:10318000FDF776F8BDE8FC81CC00002070B515464F
:103190000E460446FDF768F8062E17D2DFE806F063
:1031A0000503080C111A616A0FE0296861620DE0DD
:1031B000617A21F0020102E0617A41F0020161725C
:1031C00004E0617AC90700D001212960FDF750F8B9
:1031D000002070BDA16AF8E770B50446FDF744F819
:1031E00005462046FEF764FF607A20F00100607219
:1031F0002846FDF73DF82046FFF76CFB002070BD28
:103200002DE9F8439046DDE908450A461F46064683
:103210000A21FFF781FB23463A4641463046009596
:10322000FEF738FFBDE8F8832DE9F8430446FDF7C3
:103230001BF880462046FEF73BFF607A20F0010035
:103240006072FFF733FF616A174A4318A3620020D8
:10325000009202EBC002694656686FF000475DF8C5
:1032600020200AE01268A2EBC0056D699D4202D0E1
:10327000ED1ABD4203D341F82020B242F2D10A48F0
:10328000001F0168491C016004F114010098FFF758
:1032900090FA607A40F0010060724046FCF7E8FF67
:1032A0000020BDE8F8830000CC00002070B5044683
:1032B000407AC0070ED0FCF7D7FF05462046FEF740
:1032C000F7FE607A20F0010060722846FCF7D0FF1C
:1032D000002070BD4FF0FF3070BD00002DE9FF4FA2
:1032E0008946044600EB090783B080464FF0FF3A59
:1032F0004FF0200BA74202D25746C8F1FF390BE12D
:10330000252803D0BC4200D2207080E00026059919
:10331000491C059108782D2811D02B2812D020287F
:1033200013D0232814D0302815D00A785546303AC7
:103330000A2A13D205A800F038F905461AE046F02B
:103340001006E4E746F00406E1E746F00806DEE78B
:1033500046F02006DBE746F00106D8E72A2809D127
:103360000698491C059120C80690002D02DA6D428E
:1033700046F010060598D44601782E2918D1401C35
:1033800005900178A1F130020A2A04D205A800F0C4
:103390000CF9844607E02A2908D1401C05900698BC
:1033A00050F804CB0690BCF1000F01DA4FF0000C8E
:1033B000059A00201178682901D06C2902D1521C8D
:1033C0000846059211780A236F2974D00CDC632912
:1033D0001FD004DC25296FD058290DD184E0642941
:1033E00001D0692908D183E0702966D073292CD0D7
:1033F00075297FD0782979D0BC4201D22520207050
:103400000598641C0178E9B3BC4200D22170641CA9
:103410007FE0F00608D458466D1E002D04DDBC4246
:1034200000D22070641CF7E70698BC4210F8041B19
:10343000069000D22170584602E0BC4200D22070B3
:10344000641C6D1E002DF8DC63E0069802C806902F
:1034500001B941A1002000E0401CA84202D00A5C52
:10346000002AF9D1BCF1000F02DD604500DD6046A5
:10347000F2060BD45A462B466D1E834206DDBC4233
:1034800002D200E054E02270641CF4E7002206E05F
:10349000BC4201D20B782370491C521C641C82422E
:1034A000F6DB5A4629466D1E814232DDBC4200D20F
:1034B0002270641CF6E715E010E0681C02D10825B4
:1034C00046F00106CDE9005C06980296102304C878
:1034D00006903946204619E00CE007E0BC4296D23F
:1034E000252011E7082305E046F04006102301E0FF
:1034F00046F002066C2801D068281CD0069804C843
:103500000690CDE9005C394620460296FEF7A8FEFB
:1035100004460598401C05900598007800287FF423
:10352000EFAEB9F1000F11D0BC420DD220700DE00A
:10353000401E0590EDE7069830F8041B06908AB20D
:10354000B007DED512B2DCE707F8010C07B0A4EB38
:103550000800BDE8F08F0000284E554C4C290000B3
:10356000134610B50A464FF0FF31FFF7B7FE10BD06
:1035700000207047002070470020704700207047EF
:1035800010B5FCF771FEFEF775FFFFF7AFFAFFF716
:103590004BFCFFF721FCFEF7FBFEFFF74BFCFFF7B0
:1035A000ADFCFFF72DFC002010BD10B5014600203A
:1035B0006FF02F0307E0541C0C60127800EB8000C2
:1035C00003EB400010440A681478303C0A2CF2D314
:1035D00010BD00000B4810B5094901604FF4E131FE
:1035E0004160002181600C22C160C0E90412816148
:1035F000C161FEF7D6F8002800D0FEE710BD00003C
:1036000000100140DC4000204FF04070E1EE100A55
:10361000704700061016000610160000000000009B
:10362000000001020304060708090000000001026F
:103630000304000001000200010003000100020079
:10364000010004000100020001000300010002006B
:10365000010005000100020001000300010002005A
:10366000010004000100020001000300010002004B
:103670000100060001000200010003000100020039
:10368000010004000100020001000300010002002B
:10369000010005000100020001000300010002001A
:1036A000010004000100020001000300010002000B
:1036B00001000700010002000100030001000200F8
:1036C00001000400010002000100030001000200EB
:1036D00001000500010002000100030001000200DA
:1036E00001000400010002000100030001000200CB
:1036F00001000600010002000100030001000200B9
:1037000001000400010002000100030001000200AA
:103710000100050001000200010003000100020099
:10372000010004000100020001000300010002008A
:1037300001003031323334353637383961626364F1
:1037400065660030313233343536373839414243DB
:10375000444546004F4B000045494E56414C000041
:1037600045525346554C4C00454E4F4D454D00007B
:1037700045494F004552524F52000000454E4F53AD
:103780005953000045494E54525054004554494D38
:103790004F55540045554E4B4E4F570045425553DB
:1037A0005900000045525345505459007D350008DA
:1037B00075350008D53500087135000879350008E1
:1037C000E037000800000020D4000000C401000819
:1037D000B4380008D4000020B44C0000E001000818
:1037E00000000000010000001000000000000000C8
:1037F0000024F400000000000000000000000000B1
:103800000000000000000000280000202800002028
:103810000000000000000000000000005437000815
:10382000743700088C37000860370008A437000898
:10383000683700087C3700089C370008703700089C
:10384000843700085837000894370008010000004A
:1038500070000020700000207800000002000000CE
:1038600080000020800000202000000008000000F0
:103870009000002090000020340000000A000000AA
:10388000A0000020A00000202C0000000C00000080
:10389000B0000020B0000020280000000000000060
:1038A0000000000000000000000000000000000018
:0438B0000000000014
:040000050800018965
:00000001FF
